:020000040800F2
:10000000000003206D020008950A0008990A000804
:100010009D0A0008A10A0008A50A000800000000C7
:10002000000000000000000000000000A90A000815
:10003000AD0A000800000000B10A0008B50A000877
:10004000BD020008BD020008BD020008BD02000894
:10005000BD020008BD020008BD020008BD02000884
:10006000BD020008BD020008BD020008BD02000874
:10007000BD020008BD020008BD020008BD02000864
:10008000BD020008BD020008BD020008BD02000854
:10009000BD020008BD020008BD020008BD02000844
:1000A000BD020008BD020008BD020008BD02000834
:1000B000BD020008BD020008BD020008BD02000824
:1000C000BD020008BD020008BD020008BD02000814
:1000D000BD020008BD020008BD020008BD02000804
:1000E000BD020008BD020008BD020008BD020008F4
:1000F000BD020008BD020008BD020008BD020008E4
:10010000BD020008BD020008BD020008BD020008D3
:10011000BD020008BD020008BD020008BD020008C3
:10012000BD020008BD020008BD020008BD020008B3
:10013000BD020008BD020008BD020008BD020008A3
:10014000BD020008BD020008BD020008BD02000893
:10015000BD020008BD020008BD020008BD02000883
:10016000BD020008BD020008BD020008BD02000873
:10017000BD020008BD020008BD020008000000002A
:10018000BD020008BD020008BD020008BD02000853
:10019000BD020008BD020008BD020008BD02000843
:0C01A0000000000000000000BD0200088C
:1001AC0053B94AB9002908BF00281CBF4FF0FF31D2
:1001BC004FF0FF3000F00CB8ADF1080C6DE904CE37
:1001CC0000F000FDDDF804E0DDE9022304B0704727
:1001DC00704700BF0348044B834202D0034B03B16A
:1001EC00184770470C0000200C0000200000000095
:1001FC000548064B1B1AD90F01EBA301491002D07D
:10020C00034B03B1184770470C0000200C00002072
:10021C000000000010B5064C237843B9FFF7DAFF55
:10022C00044B13B10448AFF300800123237010BDBD
:10023C000C000020000000008C0E000808B5054BD7
:10024C001BB105490548AFF30080BDE80840FFF736
:10025C00CFBF00BF00000000100000208C0E000873
:10026C00DFF834D000F022FC0C480D490D4A002375
:10027C0002E0D458C4500433C4188C42F9D30A4A4F
:10028C000A4C002301E013600432A242FBD300F0BD
:10029C0075FC00F06BFC7047000003200000002090
:1002AC000C000020C40E00080C0000202C000020C4
:1002BC00FEE70000002800F0D8812DE9F04103682A
:1002CC00DD0782B004462FD59D498A6802F00C02E6
:1002DC00042A00F0EC808A6802F00C02082A00F074
:1002EC00E2806368B3F5803F00F0EB80B3F5A02F9C
:1002FC0000F07381924D2A6822F480322A602A68B9
:10030C0022F480222A60002B40F0E08000F0D0FA2A
:10031C00064605E000F0CCFA801B642800F2008150
:10032C002B689F03F6D423689D0728D5844A9168CF
:10033C0011F00C0F00F09B80916801F00C01082962
:10034C0000F09180E368002B00F00C817D4B7C4E1B
:10035C0001221A6000F0ACFA054605E000F0A8FA9C
:10036C00401B022800F2DC8033689F07F6D5336807
:10037C00226923F0F80343EAC203336023681A07A7
:10038C005CD45D073AD56E4A136C13F0805340F081
:10039C0088800193136C43F080531364136C03F047
:1003AC0080530193019B0125674E3368D80540F1BA
:1003BC00A780A368012B00F0B780052B00F01D81EE
:1003CC005F4E326F22F001023267326F22F004026C
:1003DC003267002B40F0AD8000F06AFA41F28838A9
:1003EC00074605E000F064FAC01B404500F2988017
:1003FC00336F9B07F6D4002D40F0F980A369CBB185
:10040C004F4DAA6802F00C02082A00F0BC80022BA7
:10041C004C4B4FF000021A6600F0F98000F048FADD
:10042C00044604E000F044FA001B022878D82B683C
:10043C009B01F7D4002002B0BDE8F0816369FBB1E9
:10044C00404B3F4E0122C3F8802E00F031FA054696
:10045C0004E000F02DFA401B022861D8736F9B0753
:10046C00F7D523688DE7526851023FF56BAF344ADC
:10047C001268920738D5E268012A35D00120DAE7F4
:10048C00304A2F4EC2F8803E00F012FA054604E0C6
:10049C0000F00EFA401B022842D8736F9F07F7D466
:1004AC00DFE7002580E74A6851027FF51AAF244A3E
:1004BC00126892037FF538AF6268002A7FF434AF7C
:1004CC00DCE71F4A136843F48033136000F0F0F943
:1004DC001B4E054604E000F0EBF9401B64281FD8C6
:1004EC0033689B03F7D51EE7154920690A6822F08B
:1004FC00F80242EAC0020A601A077FF542AF9DE794
:10050C00336843F48073336000F0D2F907463368E4
:10051C00D9053FF54EAF00F0CBF9C01B0228F6D938
:10052C00032002B0BDE8F081054A136F43F00103CC
:10053C00136700F0BDF9024F064641F288380AE015
:10054C0000380240000047420070004000F0B0F953
:10055C00801B4045E4D83B6F9A07F7D5002D3FF43C
:10056C004DAF44E0424A434E136000F0A1F90546FA
:10057C0004E000F09DF9401B0228D1D8336899079C
:10058C00F7D42368FBE6012B3FF478AF6B68E26984
:10059C0003F4800191427FF471AF226A03F03F01B2
:1005AC0091427FF46BAF616A47F6C0721A40B2EBAE
:1005BC00811F7FF463AFA26A520803F44031013A01
:1005CC00B1EB024F7FF45AAFE26A03F07063B3EB06
:1005DC00026F14BF012000202DE7264B1A6842F44D
:1005EC0080221A601A6842F480321A606EE7214A3F
:1005FC00136C23F08053136400E71E4B1A6F42F008
:10060C0004021A671A6F42F001021A6791E700F0B0
:10061C004FF9064605E000F04BF9801B02283FF627
:10062C007FAF2B689901F6D4D4E90731626A0B438A
:10063C0043EA8213D4E90A2052080D4943EA0063C5
:10064C00013A43EA024301226B600A6600F030F97A
:10065C00084D044605E000F02BF9001B02283FF67C
:10066C005FAF2B689A01F6D5E4E60120704700BF16
:10067C000000474200380240164908B58B6803F069
:10068C000C03042B1BD0082B01D0134808BD4A685F
:10069C004B68496813F4800302F03F0211D10E48F5
:1006AC00C1F38811A1FB0001FFF77AFD094B5B68D0
:1006BC00C3F3014301335B00B0FBF3F008BD074803
:1006CC0008BD0648C1F388110023A1FB0001FFF708
:1006DC0067FDEBE7003802400024F40040787D0110
:1006EC00002800F08780484A136803F00F038B4200
:1006FC002DE9F0410D46044609D2CBB213701368B4
:10070C0003F00F038B4202D00120BDE8F081236877
:10071C00980714D5590704D53C498A6842F4E0522D
:10072C008A601A0704D539498A6842F460428A60A3
:10073C003649A0688A6822F0F00202438A60DF071B
:10074C0021D56268012A57D0931E012B2F4B1B68B1
:10075C004DD99907D8D52D4EB36823F00303134315
:10076C00B36000F0A5F841F28838074604E000F0C9
:10077C009FF8C01B404544D8B368626803F00C0373
:10078C00B3EB820FF3D1204A136803F00F03AB4293
:10079C0006D9EBB21370136803F00F03AB42B3D15D
:1007AC0023685A0706D51949E0688A6822F4E05292
:1007BC0002438A601B0707D5144A2169936823F406
:1007CC00604343EAC1039360FFF756FF0F4A104C96
:1007DC0092681049C2F303120346A25C0E48D34040
:1007EC0000680B6000F01AF80020BDE8F081980159
:1007FC00B1D489E701207047044B1B689E03AAD42F
:10080C0082E7032081E700BF003C02400038024031
:10081C00A40E0008080000200400002038B50E4A81
:10082C000E4B1278054618684FF47A73B3FBF2F34B
:10083C00B0FBF3F000F0CCF808B90F2D01D9012072
:10084C0038BD0446024629464FF0FF3000F084F8CC
:10085C00034B20461D6038BD00000020080000201E
:10086C000400002008B50B4B1A6842F400721A60A1
:10087C001A6842F480621A601A6842F480721A6034
:10088C00032000F057F80F20FFF7C8FF00F0BAF86C
:10089C00002008BD003C0240034A044B11681B7841
:1008AC000B441360704700BF28000020000000209C
:1008BC00014B1868704700BF2800002030B583B08A
:1008CC00194B1A491A4D002201921A6C42F08052AF
:1008DC001A641B6C03F0805301930122019B0A6480
:1008EC00FFF7E6FF044605E0FFF7E2FF001BB0F55B
:1008FC007A7F16D86B68DA03F6D50C4B0C4D0122B7
:10090C005A64FFF7D5FF044605E0FFF7D1FF001B43
:10091C00B0F57A7F05D86B689B03F6D5002003B041
:10092C0030BD032003B030BD0038024000000E4241
:10093C00007000400749CA6803024FF6FF0003F439
:10094C00E0630240134343F0BF6343F40033CB60D6
:10095C00704700BF00ED00E01B4BDB68C3F30223C4
:10096C0000B5C3F1070EBEF1040F03F1040C28BF50
:10097C004FF0040EBCF1060F1CD9A3F1030C4FF081
:10098C00FF3303FA0CF322EA03024FF0FF3303FAAE
:10099C000EF321EA030303FA0CF313431B010028A3
:1009AC00DBB20ADB00F1604000F5614080F80033F7
:1009BC005DF804FB00229446E7E7044A00F00F00C0
:1009CC00024413765DF804FB00ED00E0FCEC00E063
:1009DC000138B0F1807F01D30120704710B44FF083
:1009EC00E023074C58614FF0F00C84F823C0002230
:1009FC00072110469A615DF8044B1961704700BFDE
:100A0C0000ED00E082B00C4B002100915A6C42F4D6
:100A1C0080425A645A6C02F480420092009A01910E
:100A2C001A6C42F080521A641B6C03F080530193D1
:100A3C00019B02B0704700BF0038024084B0114BDC
:100A4C0000220192196B41F004011963196B01F03A
:100A5C000401019101990292196B41F08001196313
:100A6C00196B01F080010291029903921A6B42F00A
:100A7C0001021A631B6B03F001030393039B04B085
:100A8C00704700BF00380240FEE700BFFEE700BF22
:100A9C00FEE700BFFEE700BFFEE700BF704700BFE8
:100AAC00704700BF704700BFFFF7F6BE034AD2F88D
:100ABC00883043F47003C2F88830704700ED00E0D2
:100ACC0030B5002395B0CDE90B33CDE90933CDE931
:100ADC000333CDE90533234901930D930793086C38
:100AEC00214A40F080500864096C01F0805101915A
:100AFC0001990293116841F44041116012680F93FF
:100B0C0002F44042102301210292CDE90B1308227A
:100B1C00B423CDE91023029802240222042308A84E
:100B2C0008940E94CDE91223FFF7C4FB08B172B6FA
:100B3C00FEE7FFF7C3FE034608B172B6FEE70F22CD
:100B4C00CDE903244FF4A0554FF4805203A805219E
:100B5C00CDE905350792FFF7C3FD08B172B6FEE784
:100B6C0015B030BD003802400070004008B5FFF7EA
:100B7C0079FEFFF7A5FFFFF761FFFEE770B50D4D9E
:100B8C000D4C641BA4100026A64209D10B4D0C4C35
:100B9C0000F076F9641BA4100026A64205D170BDA6
:100BAC0055F8043B98470136EEE755F8043B984757
:100BBC000136F2E7BC0E0008BC0E0008BC0E0008A3
:100BCC00C00E00082DE9F047089D0E4604460F465E
:100BDC00002B4AD194468C45B2FA82F260D942B1CC
:100BEC00C2F12003974020FA03F30CFA02FC1F43D6
:100BFC0094404FEA1C4E1FFA8CF6B7FBFEF1230C07
:100C0C000EFB117743EA074301FB06F098420AD921
:100C1C001CEB030301F1FF3780F01581984240F281
:100C2C001281023963441B1AA4B2B3FBFEF00EFB13
:100C3C00103344EA034400FB06F6A6420AD91CEB27
:100C4C00040400F1FF3380F00081A64240F2FD80E5
:100C5C006444023840EA0140A41B00211DB1D44079
:100C6C000023C5E90043BDE8F0878B4205D90DB1DF
:100C7C00C5E9000100210846F5E7B3FA83F1002924
:100C8C0046D1B34202D3824200F2F580841A66EB5D
:100C9C00030201201746002DE5D0C5E90047E2E725
:100CAC00002A40F09380A1EB0C034FEA1C471FFA7B
:100CBC008CFE0121B3FBF7F607FB1630230C43EA3D
:100CCC0000430EFB06F0984208D91CEB030306F117
:100CDC00FF3802D2984200F2D08046461B1AA4B2CA
:100CEC00B3FBF7F007FB103344EA03440EFB00FEA2
:100CFC00A64508D91CEB040400F1FF3302D2A6452B
:100D0C0000F2B6801846A4EB0E0440EA0640A5E7B4
:100D1C00C1F120078B4022FA07FC4CEA030C06FABF
:100D2C0001FE20FA07F426FA07F344EA0E0400FA4F
:100D3C0001F84FEA1C404FEA1449B3FBF0FE1FFACE
:100D4C008CF600FB1E3349EA03430EFB06F999456A
:100D5C0002FA01F20BD91CEB03030EF1FF3A80F0FF
:100D6C008580994540F28280AEF1020E6344A3EB7C
:100D7C000909A4B2B9FBF0F300FB139944EA094446
:100D8C0003FB06F6A64208D91CEB040403F1FF3062
:100D9C0068D2A64266D9023B644443EA0E40A41BC7
:100DAC00A0FB02E6B4427346B14652D34FD05DB1BC
:100DBC00B8EB030264EB090404FA07F722FA01F317
:100DCC001F43CC40C5E9007400214CE7C2F120015F
:100DDC0020FA01F30CFA02FC26FA01F19640334397
:100DEC004FEA1C471FFA8CFEB1FBF7F007FB1016FD
:100DFC00190C41EA064100FB0EF68E4204FA02F48D
:100E0C0008D91CEB010100F1FF382DD28E422BD9F1
:100E1C0002386144891B9BB2B1FBF7F607FB161134
:100E2C0043EA014306FB0EF1994208D91CEB03037C
:100E3C0006F1FF3814D2994212D9023E63445B1A70
:100E4C0046EA004136E73946EDE6184602E7F0453A
:100E5C00ADD2BEEB020366EB0C060138B146A6E739
:100E6C004646ECE7034698E74046D3E7D6467EE78E
:100E7C006444023847E708460DE7023E63442DE719
:100E8C00F8B500BFF8BC08BC9E467047F8B500BF6B
:080E9C00F8BC08BC9E4670473B
:100EA4000000000000000000010203040607080916
:080EB4001CFDFF7F010000009E
:040EBC0049020008DF
:040EC0002102000803
:0C0EC40001000000100000000024F400F9
:040000050800026D80
:00000001FF
