:020000040800F2
:100000000000032041030008150800081908000833
:100010001D0800082108000825080008000000004D
:100020000000000000000000000000002908000897
:100030002D080008000000003108000835080008FD
:100040009103000891030008910300089103000840
:100050009103000891030008910300089103000830
:100060009103000891030008390800089103000873
:100070009103000891030008910300089103000810
:100080009103000891030008910300089103000800
:1000900091030008910300089103000891030008F0
:1000A00091030008910300089103000891030008E0
:1000B000910300084108000891030008910300081B
:1000C00091030008910300089103000891030008C0
:1000D00091030008910300089103000891030008B0
:1000E00091030008910300089103000891030008A0
:1000F0009103000891030008910300089103000890
:10010000910300089103000891030008910300087F
:10011000910300089103000891030008910300086F
:100120009103000891030008910300086908000882
:10013000910300089103000891030008910300084F
:10014000910300089103000891030008910300083F
:100150009103000875080008910300089103000846
:10016000910300089103000891030008910300081F
:1001700091030008910300089103000800000000AB
:1001800091030008910300089103000891030008FF
:1001900091030008910300089103000891030008EF
:0C01A000000000000000000091030008B7
:1001B00010F8012B11F8013B012A28BF9A42F7D011
:1001C000D01A70470000000000000000000000008E
:1001D00001F0FF01102A2BDB10F0070F08D010F8F8
:1001E000013B013A8B422DD010F0070F42B3F6D1FC
:1001F000F0B441EA012141EA014122F007047FF015
:1002000000070023F0E80256083C85EA010586EA6B
:10021000010685FA47F5A3FA87F586FA47F6A5FAA7
:1002200087F68EB9EED1F0BC01F0FF0102F00702B3
:1002300032B110F8013B013A83EA010313B1F8D15E
:100240000020704701387047002D06BF354603383F
:10025000073815F0010F07D1013015F4807F02BF78
:10026000013015F4C03F0130F0BC0138704700BFC9
:10027000034613F8012B002AFBD1181A01387047E6
:1002800053B94AB9002908BF00281CBF4FF0FF31FD
:100290004FF0FF3000F00CB8ADF1080C6DE904CE62
:1002A0003EF048FBDDF804E0DDE9022304B07047CE
:1002B000704700BF0348044B834202D0034B03B195
:1002C00018477047880200208802002000000000C4
:1002D0000548064B1B1AD90F01EBA301491002D0A8
:1002E000034B03B1184770478802002088020020A2
:1002F0000000000010B5064C237843B9FFF7DAFF81
:10030000044B13B10448AFF300800123237010BDE8
:100310008802002000000000F0EB030808B5054B40
:100320001BB105490548AFF30080BDE80840FFF761
:10033000CFBF00BF000000008C020020F0EB0308DC
:10034000DFF834D000F014FC0C480D490D4A0023AE
:1003500002E0D458C4500433C4188C42F9D30A4A7A
:100360000A4C002301E013600432A242FBD33DF0AB
:1003700031FB00F05DFC704700000320000000200E
:1003800088020020283C06088802002094E500200E
:10039000FEE700000E480F494FF4827210B50023AB
:1003A000C0E900124FF4007410210A22C0E90233A0
:1003B000C0E90433C0E90641C0E90833C0E90A32A4
:1003C00004F0AAF900B910BDBDE8104000F046BC29
:1003D000A8020020003C004010B51B4A016888B00C
:1003E00000239142CDE90233CDE90433069301D0D5
:1003F00008B010BD02F5FE320093106C40F40040CE
:100400001064106C00F40040009000980193136B8E
:100410000E4843F002031363136B9FED097B03F057
:10042000020301930322062302A98DED027BCDE98D
:100430000523019C04F0AAFA08B010BDAFF30080B8
:100440003800000002000000003C004000040240B0
:1004500082B00C4B002100915A6C42F480425A64E5
:100460005A6C02F480420092009A01911A6C42F098
:1004700080521A641B6C03F080530193019B02B0FD
:10048000704700BF0038024010B50B480B4C0023EA
:100490004FF4E1310C22C0E90041C0E90233C0E968
:1004A0000432C0E9063304F005FF00B910BDBDE811
:1004B000104000F0D3BB00BF00030020001001403B
:1004C00010B51B4A016888B000239142CDE9023380
:1004D000CDE90433069301D008B010BD02F5943283
:1004E0000093506C40F010005064506C00F010000D
:1004F000009000980193136B0E4843F001031363BF
:10050000136B9FED097B03F0010301930322072383
:1005100002A98DED027BCDE90523019C04F036FA9A
:1005200008B010BDAFF3008000060000020000001C
:10053000001001400000024010B51848184C19493D
:1005400000234FF48042C0E90041C0E90233C0E912
:100550000423C0E90633036202F0FAFE50B90F48E3
:10056000002104F097FD68B90C48002104F0CEFD8D
:1005700080B910BD00F072FB0848002104F08AFD2C
:100580000028F1D000F06AFB0448002104F0BEFD11
:100590000028EED0BDE8104000F060BB480300200A
:1005A00000540040A086010030B5184B026889B0A5
:1005B00000249A42CDE90244CDE90444069401D0D6
:1005C00009B030BD124D00942B6B43F002032B6336
:1005D0002B6B03F0020300934FF440721223CDE91A
:1005E000022300980B480322042302A9CDE9052326
:1005F00004F0CCF901942B6C43F400132B642B6CA6
:1006000003F400130193019B09B030BD0054004076
:1006100000380240000402402DE9F04300248FB06E
:10062000CDE90844CDE90A44634B00940C941A6B5D
:10063000624DDFF89481624EDFF8909142F0100233
:100640001A631A6B02F010020092009A01941A6B5E
:1006500042F004021A631A6B02F004020192019A3A
:1006600002941A6B42F020021A631A6B02F0200205
:100670000292029A03941A6B42F080021A631A6B78
:1006800002F080020392039A04941A6B42F0010272
:100690001A631A6B02F001020492049A05941A6B11
:1006A00042F002021A631A6B02F002020592059AE6
:1006B00006941A6B42F040021A631A6B02F0400271
:1006C0000692069A07941A6B42F008021A631B6B93
:1006D00003F008030793224628464FF40051079B76
:1006E00004F0C4FB224640464FF4606104F0BEFBB8
:1006F0002246304644F2010104F0B8FB30460122A4
:100700004FF4004104F0B2FB48460122402104F0BE
:10071000ADFB022310220A9308A94FF4881329483D
:10072000CDE9082304F032F928464FF4005301259F
:1007300008A9CDE90835CDE90A4404F027F94FF4BA
:10074000C06308A9404603270893CDE909540B94D8
:1007500004F01CF94CF2010308A930460893CDE9D6
:1007600009540B9704F012F90622304608A9002319
:10077000CDE908230A9404F009F940464FF40063D8
:1007800008A90893CDE909540B9704F0FFF840231A
:1007900008A948460893CDE90A47099504F0F6F8F8
:1007A000224621460A2003F043FF0A2003F086FF79
:1007B0000FB0BDE8F08300BF0038024000080240DF
:1007C00000040240001002400014024000180240E1
:1007D0000C490D4A0B6810B50C4C121B2BB1184478
:1007E000904207D80860184610BD094B0B601844AA
:1007F0009042F7D93DF0E8F80C2303604FF0FF3347
:10080000184610BD9C0300200000032000040000D7
:1008100098E50020FEE700BFFEE700BFFEE700BF4F
:10082000FEE700BFFEE700BF704700BF704700BF94
:10083000704700BF03F0EEBB102004F049BB00BFBF
:10084000074A08B513680133136000F003FB05483D
:1008500003F006FBBDE80840012026F0FFBE00BF04
:10086000A003002008050020014804F03DBB00BFA4
:10087000A4030020014804F037BB00BF040400209B
:10088000014B1868704700BFA003002070B5161E0A
:1008900007DD0C468D19AFF3008004F8010BA5426B
:1008A000F9D1304670BD00BF70B5161E07DD0C468D
:1008B0008D1914F8010B00F0F3F9A542F9D1304677
:1008C00070BD00BF4FF0FF30704700BF4FF40053C2
:1008D0004B600020704700BF012070470020704728
:1008E00010B59FED2F7B344888B080ED007B9FEDE5
:1008F0002E7B002210230421C0E9042380ED0E7B0F
:100900004FF480539FED2A7BC0E9021283620F21CE
:100910000823CDE901136946C0E90622C0E908228F
:10092000C0E90B228DED047B009242634264039286
:10093000069203F0F5FD58BB9FED197B1F4880ED33
:10094000007B9FED197B0022102380ED0E7B9FED35
:10095000187B0624C0E904234FF48053C0E9024207
:1009600083620F2401236946C0E90622C0E90822F8
:10097000C0E90B22CDE90034CDE902338DED047BD3
:1009800042634264069203F0CBFD20B908B010BD6B
:1009900000F064F9D0E700F061F908B010BD00BFC5
:1009A000000000A0040100A0000000000000000002
:1009B0001000000011000000B804002068040020AE
:1009C000F0B5224B89B01C6800220492002C3AD169
:1009D0001F4A019401211960936B0B439363936B3E
:1009E0004FF23F00022103F0010303260C25CDE95D
:1009F000020101931748019B02A90227CDE9056571
:100A000003F0C4FF41F23F431348069502A9CDE924
:100A10000237CDE9044603F0B9FF4FF683730F4860
:100A2000029302A9CDE90374CDE9056503F0AEFF99
:100A30004FF633730A48039702A9CDE90446069599
:100A4000029303F0A3FF09B0F0BD00BF64040020CF
:100A5000003802400014024000180240001002401A
:100A6000000C024000B51E481E4A87B002605922A1
:100A70000023426040F2E732CDE90233CDE904338E
:100A8000CDE90033C0E902320361836102F0A8FDC1
:100A9000B8B94FF480531248029302A902F038FF0C
:100AA000D0B9002200230E486946CDE9002303F0A7
:100AB000ABFC70B90A4802F0B1FE28B907B05DF886
:100AC00004FB00F0CBF8E4E700F0C8F807B05DF8ED
:100AD00004FB00F0C3F8EDE700F0C0F8E1E700BF69
:100AE00008050020000400400E4B02689A4200D026
:100AF000704700B583B0002203F50D330192196CE5
:100B000041F0020119641B6C03F0020301931146CA
:100B10001D20019B03F08CFD1D2003B05DF804EB4C
:100B200003F0CCBD0004004010B582B000240F4B90
:100B30000194196B41F4800119631B6B03F480036A
:100B40002246214601933B20019B03F071FD3B208F
:100B500003F0B4FD22462146452003F069FD4520FF
:100B600002B0BDE8104003F0A9BD00BF003802404C
:100B7000034AD2F8883043F47003C2F888307047D3
:100B800000ED00E030B5002395B0CDE90B33CDE9A1
:100B90000933CDE90333CDE90533234901930D939F
:100BA0000793086C214A40F080500864096C01F0FA
:100BB0008051019101990293116841F44041116003
:100BC00012680F9302F44042102301210292CDE9F2
:100BD0000B130822B423CDE9102302980224022229
:100BE000082308A808940E94CDE9122301F0D2FF3F
:100BF00008B172B6FEE703F0C1FC034608B172B655
:100C0000FEE70F22CDE903244FF4A0554FF48052A4
:100C100003A80521CDE90535079202F069FA08B16C
:100C200072B6FEE715B030BD0038024000700040DB
:100C300008B503F0D5F9FFF7A5FFFFF7EDFCFFF7C7
:100C400073FFFFF74DFEFFF777FCFFF71DFCFFF783
:100C500009FFFFF79FFB01F081FFFEE772B6FEE799
:100C6000704700BF10B580B90A4B5A785AB91C7842
:100C700001225A700CB1042010BDFFF705FC064894
:100C800021463CF0CBFE002010BD04483DF07EFA2A
:100C9000022010BD04000020C0EC030898EC0308FB
:100CA00000B583B04FF0FF330190012201A9034842
:100CB00004F09AFB019803B05DF804FB00030020E8
:100CC0000E4A1378012B18D04FF0E02301200021A9
:100CD000107019611A690A490A4822F004021A615F
:100CE0000A680949A1FB0212520D02601A696FF0ED
:100CF0007F4142F001021A6159617047500500209E
:100D0000000000205405002083DE1B4330B51F4B3C
:100D10001A78012A37D04FF0E022012400211C70FC
:100D2000116113691A491B4C23F0040313610B680A
:100D30001949A1FB03135B0D236011696FF07F4418
:100D400041F00101116154614FF0E02103FB00FE0D
:100D50004D698A694FF47A7303FB0EFE4FF0000C65
:100D60008B699342FCD0A5EB030002EB0C0410440A
:100D700005D2A4EB030CE64504D91A46F0E78444F7
:100D8000E645FAD830BD034B1B68DDE7500500206F
:100D9000000000205405002083DE1B4330B51D4BAE
:100DA0001A78012A33D04FF0E022012400211C7070
:100DB000116113691849194C23F0040313610B687E
:100DC0001749A1FB03135B0D236011696FF07F448A
:100DD00041F00101116154614FF0E02103FB00F08B
:100DE0004D698A694FF0000C8B699A42FCD0A5EBE3
:100DF000030E0CEB0204F44405D9A4EB030C60458C
:100E000004D91A46F0E794446045FAD830BD034B44
:100E10001B68E1E750050020000000205405002079
:100E200083DE1B4308B504483DF0B0F9BDE8084037
:100E3000002001F0F5BA00BFE4EC030808B504484F
:100E40003DF0A4F9BDE80840012001F0E9BA00BF77
:100E5000FCEC030810B5134C1348102103F0F2FF0B
:100E6000237813B9012813D010BD012BFCD1002821
:100E7000FAD1FFF705FD0D4B1B68C01A6328F3D9A3
:100E8000B0F57A7F0AD3FFF7D9FF0023237010BD96
:100E90002070FFF7F5FC054B186010BDFFF7C2FF8F
:100EA000F3E700BF58050020001002405C05002059
:100EB0002DE9F04101F07CFA164A174BD2F8027086
:100EC0001F60B8B23F0C0CBF01230023B0FA80F2C0
:100ED000D919520989B2C2F100080244C1B15B427A
:100EE0001FFA88F895B29EB24046314601F0C0F92B
:100EF0002C2001F0ABF93DB100244FF6FF70013416
:100F000001F092F9AC42F8D10136B6B2B742EBD15A
:100F1000BDE8F08164050020600500202DE9F04F58
:100F20008946264980460888498840459CBF00F18B
:100F3000FF381FFA88F849459CBF01F1FF391FFAB5
:100F400089F990429CBF00F1FF3082B299429CBF68
:100F500001F1FF318BB2C9F101010B449FB2C8F11D
:100F600001031A4483B096B227B30C9B023B0025C1
:100F70006FF0004B019309EB0501404689B201F087
:100F800077F92C2001F062F986B106FB05F40C9A82
:100F900004EB0B0302EB430A019B344403EB4404D0
:100FA0003AF8020F01F040F95445F9D10135ADB2DC
:100FB000AF42E0D803B0BDE8F08F00BF600500206D
:100FC00008B5112001F042F97820FFF79FFE362086
:100FD00001F03CF9002001F027F93A2001F036F940
:100FE000052001F021F9B22001F030F90C2001F0C8
:100FF0001BF90C2001F018F9002001F015F933203D
:1010000001F012F9332001F00FF9B72001F01EF9B9
:10101000352001F009F9BB2001F018F9322001F068
:1010200003F9C02001F012F90C2001F0FDF8C220F4
:1010300001F00CF9012001F0F7F8C32001F006F9E6
:10104000102001F0F1F8C42001F000F9202001F097
:10105000EBF8C62001F0FAF80F2001F0E5F8D020F7
:1010600001F0F4F8A42001F0DFF8A12001F0DCF891
:10107000E02001F0EBF8D02001F0D6F8002001F0DC
:10108000D3F8022001F0D0F8072001F0CDF80A20B3
:1010900001F0CAF8282001F0C7F8322001F0C4F8A6
:1010A000442001F0C1F8422001F0BEF8062001F012
:1010B000BBF80E2001F0B8F8122001F0B5F81420AA
:1010C00001F0B2F8172001F0AFF8E12001F0BEF80E
:1010D000D02001F0A9F8002001F0A6F8022001F0CC
:1010E000A3F8072001F0A0F80A2001F09DF82820BD
:1010F00001F09AF8312001F097F8542001F094F8AB
:10110000472001F091F80E2001F08EF81C2001F02C
:101110008BF8172001F088F81B2001F085F81E20BD
:1011200001F082F82A2001F091F8002001F07CF80B
:10113000002001F079F8002001F076F8EF2001F0AE
:1011400073F82B2001F082F8002001F06DF80020E8
:1011500001F06AF8012001F067F83F2001F064F81F
:10116000BDE80840292001F071B800BF08B5ED20A6
:1011700001F06CF8012001F057F8FE2001F054F85E
:10118000EE2001F063F8DE2001F04EF8212001F09E
:101190004BF8F12001F05AF8012001F045F8DF206A
:1011A00001F054F8102001F03FF8C42001F04EF88F
:1011B0008F2001F039F8C62001F048F8002001F036
:1011C00033F8E22001F030F8E22001F02DF8E220BF
:1011D00001F02AF8BF2001F039F8AA2001F024F824
:1011E000B02001F033F80D2001F01EF8002001F0CE
:1011F0001BF80D2001F018F8002001F015F811205F
:1012000001F012F8002001F00FF8192001F00CF89D
:10121000002001F009F8212001F006F8002001F07B
:1012200003F82D2001F000F8002000F0FDFF3D2024
:1012300000F0FAFF002000F0F7FF5D2000F0F4FF5F
:10124000002000F0F1FF5D2000F0EEFF002000F034
:10125000EBFFB12000F0FAFF802000F0E5FF002056
:1012600000F0E2FF8B2000F0DFFF002000F0DCFF49
:10127000962000F0D9FF002000F0D6FFB22000F049
:10128000E5FF002000F0D0FF002000F0CDFF02209D
:1012900000F0CAFF002000F0C7FF032000F0C4FFE9
:1012A000002000F0C1FFB32000F0D0FF002000F0CC
:1012B000BBFF002000F0B8FF002000F0B5FF0020C9
:1012C00000F0B2FF002000F0AFFF002000F0ACFF04
:1012D000002000F0A9FF002000F0A6FF002000F091
:1012E000A3FF002000F0A0FF002000F09DFF0020E1
:1012F00000F09AFF002000F097FF002000F094FF1C
:10130000002000F091FF002000F08EFF002000F090
:101310008BFF002000F088FF002000F085FF0020F8
:1013200000F082FF002000F07FFF002000F07CFF33
:10133000002000F079FF002000F076FFB42000F0DC
:1013400085FF8B2000F070FF002000F06DFF9620DD
:1013500000F06AFF002000F067FFA12000F064FFAA
:10136000002000F061FFB52000F070FF022000F0C7
:101370005BFF002000F058FF032000F055FF002025
:1013800000F052FF042000F04FFF002000F04CFF5F
:10139000B62000F05BFF002000F046FF002000F0C8
:1013A00043FFB72000F052FF002000F03DFF002077
:1013B00000F03AFF3F2000F037FF002000F034FF3C
:1013C0005E2000F031FF002000F02EFF642000F0CE
:1013D0002BFF002000F028FF8C2000F025FF0020CC
:1013E00000F022FFAC2000F01FFF002000F01CFFE7
:1013F000DC2000F019FF002000F016FF702000F044
:1014000013FF002000F010FF902000F00DFF0020DF
:1014100000F00AFFEB2000F007FF002000F004FFBF
:10142000DC2000F001FF002000F0FEFEB82000F0FC
:101430000DFF002000F0F8FE002000F0F5FE002077
:1014400000F0F2FE002000F0EFFE002000F0ECFEC5
:10145000002000F0E9FE002000F0E6FE002000F091
:10146000E3FEBA2000F0F2FE242000F0DDFE0020B2
:1014700000F0DAFE002000F0D7FE002000F0D4FEDD
:10148000C12000F0E3FE202000F0CEFE002000F09E
:10149000CBFE542000F0C8FE002000F0C5FEFF2067
:1014A00000F0C2FE002000F0BFFEC22000F0CEFE21
:1014B0000A2000F0B9FE002000F0B6FE042000F083
:1014C000B3FE002000F0B0FEC32000F0BFFE3C20C1
:1014D00000F0AAFE002000F0A7FE3A2000F0A4FED3
:1014E000002000F0A1FE392000F09EFE002000F058
:1014F0009BFE372000F098FE002000F095FE3C2077
:1015000000F092FE002000F08FFE362000F08CFEEE
:10151000002000F089FE322000F086FE002000F05E
:1015200083FE2F2000F080FE002000F07DFE2C20A6
:1015300000F07AFE002000F077FE292000F074FE13
:10154000002000F071FE262000F06EFE002000F06A
:101550006BFE242000F068FE002000F065FE2420D1
:1015600000F062FE002000F05FFE232000F05CFE31
:10157000002000F059FE3C2000F056FE002000F054
:1015800053FE362000F050FE002000F04DFE3220C9
:1015900000F04AFE002000F047FE2F2000F044FE3D
:1015A000002000F041FE2C2000F03EFE002000F064
:1015B0003BFE292000F038FE002000F035FE2620FA
:1015C00000F032FE002000F02FFE242000F02CFE60
:1015D000002000F029FE242000F026FE002000F06C
:1015E00023FE232000F020FE002000F01DFEC4207A
:1015F00000F02CFE622000F017FE002000F014FE28
:10160000052000F011FE002000F00EFE842000F006
:101610000BFE002000F008FEF02000F005FE002088
:1016200000F002FE182000F0FFFD002000F0FCFD9D
:10163000A42000F0F9FD002000F0F6FD182000F0D5
:10164000F3FD002000F0F0FD502000F0EDFD002043
:1016500000F0EAFD0C2000F0E7FD002000F0E4FDC2
:10166000172000F0E1FD002000F0DEFD952000F0E5
:10167000DBFD002000F0D8FDF32000F0D5FD0020B8
:1016800000F0D2FDE62000F0CFFD002000F0CCFD00
:10169000C52000F0DBFD322000F0C6FD002000F088
:1016A000C3FD442000F0C0FD002000F0BDFD65201A
:1016B00000F0BAFD002000F0B7FD762000F0B4FD88
:1016C000002000F0B1FD882000F0AEFD002000F009
:1016D000ABFDC62000F0BAFD202000F0A5FD0020E3
:1016E00000F0A2FD172000F09FFD002000F09CFDFF
:1016F000012000F099FD002000F096FDC72000F0C9
:10170000A5FD002000F090FD002000F08DFD0020E0
:1017100000F08AFD002000F087FDC82000F096FD53
:10172000002000F081FD002000F07EFD002000F090
:101730007BFD002000F078FDC92000F087FD00202F
:1017400000F072FD002000F06FFD002000F06CFD45
:10175000002000F069FD002000F066FD002000F090
:1017600063FD002000F060FD002000F05DFD002022
:1017700000F05AFD002000F057FD002000F054FD5D
:10178000002000F051FD002000F04EFD002000F090
:101790004BFD002000F048FD002000F045FDE0205A
:1017A00000F054FD162000F03FFD002000F03CFD4D
:1017B0001C2000F039FD002000F036FD212000F053
:1017C00033FD002000F030FD362000F02DFD00201C
:1017D00000F02AFD462000F027FD002000F024FD47
:1017E000522000F021FD002000F01EFD642000F0DA
:1017F0001BFD002000F018FD7A2000F015FD0020F0
:1018000000F012FD8B2000F00FFD002000F00CFD19
:10181000992000F009FD002000F006FDA82000F04E
:1018200003FD002000F000FDB92000F0FDFC0020C9
:1018300000F0FAFCC42000F0F7FC002000F0F4FCFB
:10184000CA2000F0F1FC002000F0EEFCD22000F0F5
:10185000EBFC002000F0E8FCD92000F0E5FC0020C3
:1018600000F0E2FCE02000F0DFFC002000F0DCFCF7
:10187000F32000F0D9FC002000F0D6FCE12000F0BD
:10188000E5FC162000F0D0FC002000F0CDFC1C2070
:1018900000F0CAFC002000F0C7FC222000F0C4FCCD
:1018A000002000F0C1FC362000F0BEFC002000F05B
:1018B000BBFC452000F0B8FC002000F0B5FC522035
:1018C00000F0B2FC002000F0AFFC642000F0ACFCA3
:1018D000002000F0A9FC7A2000F0A6FC002000F017
:1018E000A3FC8B2000F0A0FC002000F09DFC9920C0
:1018F00000F09AFC002000F097FCA82000F094FC77
:10190000002000F091FCB92000F08EFC002000F0D7
:101910008BFCC42000F088FC002000F085FCCA206D
:1019200000F082FC002000F07FFCD22000F07CFC64
:10193000002000F079FCD82000F076FC002000F0B8
:1019400073FCE02000F070FC002000F06DFCF32040
:1019500000F06AFC002000F067FCE22000F076FC5A
:10196000052000F061FC002000F05EFC0B2000F080
:101970005BFC002000F058FC1B2000F055FC002010
:1019800000F052FC342000F04FFC002000F04CFC32
:10199000442000F049FC002000F046FC4F2000F0FD
:1019A00043FC002000F040FC612000F03DFC0020E2
:1019B00000F03AFC792000F037FC002000F034FC05
:1019C000882000F031FC002000F02EFC972000F071
:1019D0002BFC002000F028FCA62000F025FC0020B5
:1019E00000F022FCB72000F01FFC002000F01CFCDF
:1019F000C22000F019FC002000F016FCC72000F007
:101A000013FC002000F010FCD12000F00DFC0020A1
:101A100000F00AFCD62000F007FC002000F004FCD7
:101A2000DD2000F001FC002000F0FEFBF32000F0C0
:101A3000FBFB002000F0F8FBE32000F007FC052092
:101A400000F0F2FB002000F0EFFB0A2000F0ECFBBE
:101A5000002000F0E9FB1C2000F0E6FB002000F075
:101A6000E3FB332000F0E0FB002000F0DDFB44202E
:101A700000F0DAFB002000F0D7FB502000F0D4FB90
:101A8000002000F0D1FB622000F0CEFB002000F02F
:101A9000CBFB782000F0C8FB002000F0C5FB8820BD
:101AA00000F0C2FB002000F0BFFB972000F0BCFB61
:101AB000002000F0B9FBA62000F0B6FB002000F0EB
:101AC000B3FBB72000F0B0FB002000F0ADFBC2205C
:101AD00000F0AAFB002000F0A7FBC72000F0A4FB49
:101AE000002000F0A1FBD12000F09EFB002000F0C0
:101AF0009BFBD52000F098FB002000F095FBDD203B
:101B000000F092FB002000F08FFBF32000F08CFB34
:101B1000002000F089FBE42000F098FB012000F099
:101B200083FB002000F080FB012000F07DFB002003
:101B300000F07AFB022000F077FB002000F074FB3D
:101B40002A2000F071FB002000F06EFB3C2000F02A
:101B50006BFB002000F068FB4B2000F065FB0020D1
:101B600000F062FB5D2000F05FFB002000F05CFBFA
:101B7000742000F059FB002000F056FB842000F098
:101B800053FB002000F050FB932000F04DFB0020A1
:101B900000F04AFBA22000F047FB002000F044FBCD
:101BA000B32000F041FB002000F03EFBBE2000F01F
:101BB0003BFB002000F038FBC42000F035FB002088
:101BC00000F032FBCD2000F02FFB002000F02CFBBA
:101BD000D32000F029FB002000F026FBDD2000F0E0
:101BE00023FB002000F020FBF32000F01DFB002071
:101BF00000F01AFBE52000F029FB002000F014FBA8
:101C0000002000F011FB002000F00EFB002000F08F
:101C10000BFB022000F008FB002000F005FB292050
:101C200000F002FB002000F0FFFA3C2000F0FCFA7C
:101C3000002000F0F9FA4B2000F0F6FA002000F046
:101C4000F3FA5D2000F0F0FA002000F0EDFA7420C5
:101C500000F0EAFA002000F0E7FA842000F0E4FA4D
:101C6000002000F0E1FA932000F0DEFA002000F0FE
:101C7000DBFAA22000F0D8FA002000F0D5FAB32059
:101C800000F0D2FA002000F0CFFABE2000F0CCFA2B
:101C9000002000F0C9FAC42000F0C6FA002000F0CD
:101CA000C3FACD2000F0C0FA002000F0BDFAD32026
:101CB00000F0BAFA002000F0B7FADC2000F0B4FA25
:101CC000002000F0B1FAF32000F0AEFA002000F09E
:101CD000ABFAE62000F0BAFA112000F0A5FA0020D5
:101CE00000F0A2FA342000F09FFA002000F09CFAE5
:101CF000562000F099FA002000F096FA762000F0C5
:101D000093FA002000F090FA772000F08DFA00207E
:101D100000F08AFA662000F087FA002000F084FACA
:101D2000882000F081FA002000F07EFA992000F06F
:101D30007BFA002000F078FABB2000F075FA002052
:101D400000F072FA992000F06FFA002000F06CFAAF
:101D5000662000F069FA002000F066FA552000F0D5
:101D600063FA002000F060FA552000F05DFA0020D0
:101D700000F05AFA452000F057FA002000F054FA1B
:101D8000432000F051FA002000F04EFA442000F009
:101D90004BFA002000F048FAE72000F057FA322012
:101DA00000F042FA002000F03FFA552000F03CFA23
:101DB000002000F039FA762000F036FA002000F01A
:101DC00033FA662000F030FA002000F02DFA672088
:101DD00000F02AFA002000F027FA672000F024FA29
:101DE000002000F021FA872000F01EFA002000F009
:101DF0001BFA992000F018FA002000F015FABB2019
:101E000000F012FA002000F00FFA992000F00CFA0E
:101E1000002000F009FA772000F006FA002000F018
:101E200003FA442000F000FA002000F0FDF95620EB
:101E300000F0FAF9002000F0F7F9232000F0F4F99F
:101E4000002000F0F1F9332000F0EEF9002000F05E
:101E5000EBF9452000F0E8F9002000F0E5F9E82072
:101E600000F0F4F9002000F0DFF9002000F0DCF9C8
:101E7000992000F0D9F9002000F0D6F9872000F071
:101E8000D3F9002000F0D0F9882000F0CDF900202F
:101E900000F0CAF9772000F0C7F9002000F0C4F97B
:101EA000662000F0C1F9002000F0BEF9882000F0A3
:101EB000BBF9002000F0B8F9AA2000F0B5F9002025
:101EC00000F0B2F9BB2000F0AFF9002000F0ACF94F
:101ED000992000F0A9F9002000F0A6F9662000F092
:101EE000A3F9002000F0A0F9552000F09DF9002092
:101EF00000F09AF9552000F097F9002000F094F9CD
:101F0000442000F091F9002000F08EF9442000F008
:101F10008BF9002000F088F9552000F085F90020A9
:101F200000F082F9E92000F091F9AA2000F07CF994
:101F3000002000F079F9002000F076F9002000F090
:101F400073F9002000F082F9AA2000F06DF9CF208B
:101F500000F07CF9002000F067F9002000F064F93F
:101F6000002000F061F9002000F05EF9002000F090
:101F70005BF9002000F058F9002000F055F900202E
:101F800000F052F9002000F04FF9002000F04CF969
:101F9000002000F049F9002000F046F9002000F090
:101FA00043F9002000F040F9002000F03DF9002046
:101FB00000F03AF9002000F037F9F02000F046F97F
:101FC000002000F031F9502000F02EF9002000F040
:101FD0002BF9002000F028F9002000F025F9F3206B
:101FE00000F034F9002000F01FF9F92000F02EF97C
:101FF000062000F019F9102000F016F9292000F051
:1020000013F9002000F010F93A2000F01FF95520D4
:1020100000F00AF9112000F019F96420FEF776FEAD
:10202000292000F013F9352000F010F9002000F00D
:10203000FBF8512000F00AF9FF2000F0F5F85320DA
:1020400000F004F92C2000F0EFF8552000F0FEF825
:10205000822000F0E9F8BDE808402C2000F0F6B836
:1020600008B5112000F0F2F87820FEF74FFE362078
:1020700000F0ECF8482000F0D7F83A2000F0E6F83D
:10208000552000F0D1F8F02000F0E0F8C32000F077
:10209000CBF8F02000F0DAF8962000F0C5F8B42074
:1020A00000F0D4F8012000F0BFF8B62000F0CEF820
:1020B0000A2000F0B9F8A22000F0B6F8B72000F02E
:1020C000C5F8C62000F0B0F8B92000F0BFF8022033
:1020D00000F0AAF8E02000F0A7F8C02000F0B6F861
:1020E000802000F0A1F8162000F09EF8C12000F03A
:1020F000ADF8192000F098F8C22000F0A7F8A7204A
:1021000000F092F8C52000F0A1F8162000F08CF83D
:10211000E82000F09BF8402000F086F88A2000F0CC
:1021200083F8002000F080F8002000F07DF82920DE
:1021300000F07AF8192000F077F8A52000F074F884
:10214000332000F071F8E02000F080F8F02000F07B
:102150006BF8072000F068F80D2000F065F8042007
:1021600000F062F8052000F05FF8142000F05CF841
:10217000362000F059F8542000F056F84C2000F0BA
:1021800053F8382000F050F8132000F04DF81420D8
:1021900000F04AF82E2000F047F8342000F044F810
:1021A000E12000F053F8F02000F03EF8102000F09D
:1021B0003BF8142000F038F80E2000F035F80C2021
:1021C00000F032F8082000F02FF8352000F02CF84D
:1021D000442000F029F84C2000F026F8262000F0DA
:1021E00023F8102000F020F8122000F01DF82C2019
:1021F00000F01AF8322000F017F8F02000F026F86E
:102200003C2000F011F8F02000F020F8692000F0E8
:102210000BF87820FEF77AFD212000F017F8BDE8D2
:102220000840292000F012B882B04FF0D842ADF833
:102230000600BDF806309BB2ADF80630BDF806309A
:102240009BB2A2F8803002B0704700BF82B04FF05E
:10225000D842ADF80600BDF806309BB2ADF80630A6
:10226000BDF806309BB2A2F87E3002B0704700BFC6
:102270004FF0D843020A4FF02A0CA3F87EC0C0B238
:10228000A3F880204FF02B0C0A0AC9B2A3F88000F3
:10229000A3F87EC0A3F88020A3F88010704700BF89
:1022A000F0B5264C83B04FF0000E4FF0D84C20799B
:1022B0006388E588A168A789E689ACF87E300228A2
:1022C0000BD902380022BCF8803001329BB2ADF845
:1022D00002309042BDF80230F5D1BCF880309BB29C
:1022E000ADF80630BDF80620BCF880309BB2ADF8E2
:1022F0000430BDF8043092B29BB243EA02239BB291
:102300009D420CD00EF1010EBEF1030F04F110043A
:10231000CDD10B483BF03AFF042003B0F0BD094B90
:102320005FFA8EFEA3F800E05F809E808847294612
:1023300005483BF073FB002003B0F0BDBC18040857
:1023400044ED03086405002018ED030810B4174C91
:102350004FF0D8436188A28894F806C0A3F880C0E3
:102360003624A3F87E4001392A24A3F87E400020B9
:10237000C1F30F24013AC9B2A3F88000A3F880008A
:10238000A3F88040A3F880102B24C2F30F21D2B20F
:10239000A3F87E40A3F880005DF8044BA3F880000A
:1023A000A3F88010A3F88020704700BF64050020C8
:1023B00008B501224021164802F058FD0A20FEF718
:1023C000A5FC00224021124802F050FD3220FEF709
:1023D0009DFC0F480122402102F048FDC820FEF775
:1023E00095FCFFF75DFF00B108BD0A4A0A49138852
:1023F000D0801B010833CB58C2F80230FFF7A6FF8C
:10240000BDE80840054801224FF4004102F02EBD0E
:102410000018024064050020C018040800040240AF
:10242000012835D81C4A2DE9F04302EBC00587B0DE
:102430006C786F886E6834B13946304607B0BDE8B5
:10244000F04302F02DBD12F83090059422464FF073
:10245000010839463046CDE90144CDE9034485F809
:10246000018002F003FD01A93046CDE90178CDE9F4
:10247000034402F08BFA494608483BF0CFFA6E68F5
:102480006F883046394607B0BDE8F04302F008BD1A
:1024900003483BF07BBE00BF0C00002088ED030822
:1024A00068ED03082DE9F04188B0254BDFF89880EE
:1024B000244F0026009606961A6B42F002021A6319
:1024C0001A6B02F002020092009A01961A6B42F017
:1024D00002021A631B6B03F002030124022501931D
:1024E00002A94046019B0294CDE90344059502F000
:1024F0004DFA112302A938464FF40062CDE90223B8
:1025000002F044FA32464FF40061384602F0AEFC65
:102510002846FEF743FC22462146404602F0A6FC30
:102520002846FEF73BFC22464FF40061384602F095
:102530009DFC2846FEF732FC08B0BDE8F08100BFE4
:1025400000380240001402400004024038B5114D2A
:10255000114C284601224FF4006102F087FC012251
:102560001146204602F082FC0220FEF717FC0022F2
:102570004FF40061284602F079FC0220FEF70EFCC1
:1025800020460022012102F071FCBDE83840022003
:10259000FEF704BC001402400004024010B50E4CCB
:1025A00000224FF40061204602F060FC0220FEF79A
:1025B000F5FB01221146094802F058FC0220FEF703
:1025C000EDFB204601224FF4006102F04FFCBDE814
:1025D00010400220FEF7E2BB00140240000402405B
:1025E00070B501224FF400612148214E02F03EFCFB
:1025F0000220FEF7D3FB01221E48114602F036FCF2
:102600000220FEF7CBFBFB2402E012F0FF0412D005
:102610004FF40061304602F015FC621E05460028AA
:10262000F3D100220121134802F020FC0220FEF722
:10263000B5FB284670BD22464FF400610C4802F0FD
:1026400015FC0220FEF7AAFB01221146094802F000
:102650000DFC0220FEF7A2FB054801224FF40061A9
:1026600002F004FC0220FEF799FB0125D9E700BF28
:102670000014024000040240F8B5164F164E0446FE
:10268000082523064FF000024FF4006148BF0122E5
:10269000384602F0EBFB0220FEF780FB01221146D8
:1026A000304602F0E3FB0220FEF778FB013D0022FA
:1026B0000121304602F0DAFB640015F0FF05E4B2B8
:1026C000DFD1BDE8F840034801224FF4006102F079
:1026D000CDBB00BF0014024000040240F8B5314EEB
:1026E000074608250024012211463046944002F096
:1026F000BDFB0220FEF752FB4FF400612A4802F0B6
:10270000A1FB0346E4B20022012130460BB10C4488
:10271000E4B202F0ABFB0220FEF740FB6A1E12F0AF
:10272000FF05E0D12048CFB901224FF4006102F04B
:102730009DFB0220FEF732FB01221146194802F0F0
:1027400095FB0220FEF72AFB3A460121154802F0CC
:102750008DFB0220FEF722FB2046F8BD2A464FF4EF
:10276000006102F083FB0220FEF718FB01221146F4
:102770000C4802F07BFB0220FEF710FB2A460121E9
:10278000084802F073FB0220FEF708FB01224FF419
:102790000061054802F06AFB0220FEF7FFFA2046BE
:1027A000F8BD00BF00040240001402402DE9F04FC4
:1027B0005C4F83B0FFF7CAFE7878400000F0FE005F
:1027C000FFF75AFFFFF70CFF8120FFF755FFFFF7D8
:1027D00007FF4E20FFF750FFFFF702FFFFF7B6FE9F
:1027E0007878400040F00100C0B2FFF745FFFFF7E6
:1027F000F7FE0020FFF772FF8146FFF7CFFE19F0CA
:10280000800F05D14FF00009484603B0BDE8F08FB6
:1028100019F00F0952D0DFF810A1DFF810813E4601
:102820000AEB490B0DF105053AF8024BFFF78EFE56
:102830007878400000F0FE00FFF71EFFFFF7D0FEA3
:10284000200AFFF719FFFFF7CBFEE0B2FFF714FFF6
:10285000FFF7C6FEFFF77AFE7878400040F00100EF
:10286000C0B2FFF709FFFFF7BBFE6C460120FFF780
:1028700035FF04F8010BAC42F8D10020FFF72EFF22
:102880008DF80500FFF78AFE98F806300099BDF82C
:102890000000BDF80240BDF80420A02B38D02CD891
:1028A000002B3CD0602B04D1B8F80430B4805B1A04
:1028B000F380DA45328106F10606B5D1FFF746FE10
:1028C0007878400000F0FE00FFF7D6FEFFF788FEA4
:1028D0008120FFF7D1FEFFF783FE4E20FFF7CCFEED
:1028E000FFF77EFE0020FFF7C7FEFFF779FEFFF738
:1028F00055FE484603B0BDE8F08FC02BD9D1B8F8DB
:1029000002301B1AB380B8F804301B1BF380D0E7E9
:10291000B8F80230F080A3EB1143B380C9E77160CF
:10292000C7E700BF80050020EC18040864050020FC
:1029300010B5274882B03BF071F8FFF707FE28205A
:10294000FFF79AFEFFF74CFE8120FFF795FEFFF799
:1029500047FE4020FFF790FEFFF742FEFFF7F6FD2F
:102960002920FFF789FEFFF73BFE0120FFF7B6FEA7
:10297000034601208DF80430FFF7B0FE0346012026
:102980008DF80530FFF7AAFE034600208DF80630CB
:10299000FFF7A4FE8DF80700FFF700FE04210024D6
:1029A0000DEB01008DF80840FDF702FC50B1094B1A
:1029B00009484FF4A05201A91A803BF02FF8204695
:1029C00002B010BD05483BF0E1FB042002B010BD91
:1029D000A8ED030880050020B0ED0308DCED030836
:1029E0002DE97043574A584E584BD279584888B011
:1029F0000024CDE9034400940594B27006941A6B48
:102A000042F002021A631A6B02F002020092009A6C
:102A100001941A6B42F004021A631B6B03F0040367
:102A20000225019302A9019B02954FF001084FF086
:102A30000209059501F0AAFF4FF400520123454811
:102A400002A9CDE90223CDE9048901F09FFF01230A
:102A500002223F48069402A9CDE90223CDE9048968
:102A600001F094FF3B4822464FF4005102F0FEF97A
:102A700037482246294602F0F9F90122294634480E
:102A800002F0F4F90120FEF741F901224FF4005160
:102A9000304802F0EBF90A20FEF738F90222002351
:102AA000CDE9022302A9002202232948CDE904230B
:102AB00001F06CFF6420FEF729F9FFF7F3FCFFF744
:102AC00037FFD8BB0446FFF741FD7078400000F0A7
:102AD000FE00FFF7D1FDFFF783FD8020FFF7CCFD5F
:102AE000FFF77EFD4020FFF7C7FDFFF779FD284681
:102AF000FFF7C2FDFFF774FDFFF750FD0A20FEF758
:102B000005F9FFF723FD7078400000F0FE00FFF7A5
:102B1000B3FDFFF765FD8020FFF7AEFDFFF760FD19
:102B20004020FFF7A9FDFFF75BFD2046FFF7A4FD5E
:102B3000FFF756FDFFF732FD074B736208B0BDE8A3
:102B4000708300BF6405002080050020003802402B
:102B50000004024000080240AD27000808B50B48F9
:102B60003BF014FBFEF7ACF80020FEF77BF80848BA
:102B70003BF00CFB2CF058F93AF0DCFE3AF00CFF7D
:102B800039F024FA27F074FBFCE700BF04EE0308D9
:102B900020EE0308002800F06E822DE9F041036862
:102BA0000F2B82B0044600F23881DD0737D5636809
:102BB00033F4803203D0B3F5A02F40F0A081A84AAF
:102BC000936803F00C03042B00F07C81936803F0FE
:102BD0000C03082B00F072816368B3F5803F00F0AE
:102BE0007B81B3F5A02F00F003829D4D2A6822F46B
:102BF00080322A602A6822F480222A60002B40F06A
:102C0000708101F013FA064605E001F00FFA801B0F
:102C1000642800F296812B689F03F6D423689907F5
:102C200030D5E368012B00F20B8123691F2B00F2E2
:102C300010818B4B9A6812F00C0F00F0F8809A68A4
:102C400002F00C02082A00F0EE80E368002B00F08E
:102C50009481844B824E01221A6001F0E7F9054607
:102C600005E001F0E3F9401B022800F26A813368B5
:102C70009F07F6D53368226923F0F80343EAC203BD
:102C8000336023681A0700F1AF805D0744D5A3685D
:102C9000012B06D9052B04D073484FF4C571FDF7FD
:102CA000DFFF6F4A136C13F0805340F0FB800193F9
:102CB000136C43F080531364136C03F0805301933F
:102CC000019B0125694E3368D80540F12A81A3682C
:102CD000012B00F03A81052B00F0BD81604E326F70
:102CE00022F001023267326F22F004023267002BB9
:102CF00040F0308101F09AF941F28838074605E04A
:102D000001F094F9C01B404500F21B81336F9B0713
:102D1000F6D4002D40F07681A369022B00F2C48026
:102D2000002B5DD04E4DAA6802F00C02082A00F07C
:102D30003581022B40F07E81E36933F4800304D0B7
:102D400049484FF4EB71FDF78BFF236A023B3D2BA3
:102D500000F26481636A323BB3F5BF7F00F25881B1
:102D6000A26A082A00F260814FF4AA73D340D80700
:102D700040F15A81E36A023B0D2B00F27681394B18
:102D8000374E00221A6601F051F9054605E001F0C0
:102D90004DF9401B022800F2D48033689901F6D423
:102DA000D4E90731626A2E4D0B4343EA8213D4E91A
:102DB0000A2052082B4943EA0063013A43EA0243DE
:102DC000012273600A6601F031F9044605E001F062
:102DD0002DF9001B022800F2B4802B689A01F6D569
:102DE000002002B0BDE8F0816369012B51D8002BAF
:102DF0003ED01C4B1A4E0122C3F8802E01F016F96A
:102E0000054605E001F012F9401B022800F2998006
:102E1000736F9B07F6D5236837E71348E621FDF764
:102E20001FFF2368C1E65B685A023FF50EAF0C4BEB
:102E30001B689B0768D5E368012B65D00120D0E7AC
:102E4000094840F21D11FDF70BFF23691F2B7FF688
:102E5000F0AE05484FF48F71FDF702FFE9E600BFC1
:102E6000003802400000474238EE0308007000407E
:102E7000824A834EC2F8803E01F0D8F8054604E04D
:102E800001F0D4F8401B02285BD8736F9F07F7D47A
:102E9000C1E77C484FF4AF71FDF7E2FE6369002B98
:102EA000E6D0A6E700250DE7764840F2CD11FDF704
:102EB000D7FEA369002B7FF435AF91E75368590221
:102EC0007FF58AAE6E4B1B689A037FF5A7AE6368E9
:102ED000002B7FF4A3AEB1E7694A136843F4803353
:102EE000136001F0A3F8664E054604E001F09EF879
:102EF000401B642825D833689B03F7D58EE66148CC
:102F0000EB21FDF7ADFE5AE65D4A2169136823F017
:102F1000F80343EAC103136023681A077FF5B5AECF
:102F200062E7336843F48073336001F07FF807464B
:102F30003368D9053FF5CBAE01F078F8C01B022805
:102F4000F6D9032002B0BDE8F0814D4A136F43F07B
:102F50000103136701F06AF8494F064641F28838C9
:102F600004E001F063F8801B4045EAD83B6F9A0704
:102F7000F7D5002D3FF4D0AE44E0404A404E1360F8
:102F800001F054F8054604E001F050F8401B022817
:102F9000D7D833689907F7D4236873E6012B3FF439
:102FA0004DAF6B68E26903F4800191427FF446AF54
:102FB000226A03F03F0191427FF440AF616A47F615
:102FC000C0721A40B2EB811F7FF438AFA26A520878
:102FD00003F44031013AB1EB024F7FF42FAFE26AC4
:102FE00003F07063B3EB026F14BF01200020F8E61A
:102FF000234B1A6842F480221A601A6842F4803225
:103000001A606EE71E4A136C23F08053136483E644
:103010001C484FF4EC71FDF723FEA1E6194840F27D
:10302000D711FDF71DFE95E6164840F2D911FDF7C0
:1030300017FE9FE6114B00221A6600F0F7FF0446C8
:1030400005E000F0F3FF001B02283FF67AAF2B6883
:103050009B01F6D4C4E60A4B1A6F42F004021A67C9
:103060001A6F42F001021A6774E706484FF4ED71D7
:10307000FDF7F6FD83E60120704700BF00004742E0
:103080000038024038EE0308164908B58B6803F093
:103090000C03042B1BD0082B01D0134808BD4A6831
:1030A0004B68496813F4800302F03F0211D10E48C7
:1030B000C1F38811A1FB0001FDF7E2F8094B5B6841
:1030C000C3F3014301335B00B0FBF3F008BD0748D5
:1030D00008BD0648C1F388110023A1FB0001FDF7DC
:1030E000CFF8EBE7003802400024F40040787D017F
:1030F000002800F0FE800368013B0E2B2DE9F04113
:103100000D46044600F2C6800F2D00F2B7807A4AC1
:10311000136803F00F03AB42C0F0C6802368980722
:1031200028D5590704D575498A6842F4E0528A6067
:103130001A0704D571498A6842F460428A60A1681E
:1031400091B1C02910D000F2C780A0290CD000F2A4
:10315000CC8021F01002802A06D040F27E216848FF
:10316000FDF77EFDA16823686448826822F0F002C2
:103170000A438260DF0727D56368032B00F2A38030
:10318000012B00F09A809A1E012A5C4A126840F2D4
:103190008780910725D5594EB26822F00302134368
:1031A000B36000F043FF41F28838074605E000F0C5
:1031B0003DFFC01B404500F28D80B368626803F09C
:1031C0000C03B3EB820FF2D14B4A136803F00F03E9
:1031D000AB4209D9EBB21370136803F00F03AB4293
:1031E00002D00120BDE8F08123685A0718D5E168B4
:1031F00031F480520ED021F40062B2F5A05F09D004
:10320000B1F5C05F06D040F2C3213D48FDF728FD6F
:10321000E16823683948826822F4E0520A438260F8
:103220001B0718D5226932F480530DD022F40063B5
:10323000B3F5A05F08D0B2F5C05F05D0304840F2CA
:10324000CA21FDF70DFD22692C498B6823F46043E8
:1032500043EAC2038B60FFF717FF284A294C9268A4
:103260002949C2F303120346A25C2848D3400068F0
:103270000B6000F091FE0020BDE8F081204840F294
:103280005B21FDF7EDFC1C4BEDB21A681D701B684D
:103290000120A7E71A4840F25A21FDF7E1FC33E785
:1032A00090013FF578AF9CE7EBB21370136803F021
:1032B0000F03AB423FF432AF93E7104A1268960314
:1032C0003FF569AF8DE70E4840F28521FDF7C8FC58
:1032D000636855E70320CFE7E0293FF445AF21F0CD
:1032E0002002D02A7FF439AF3EE7B0293FF43CAF4B
:1032F00033E70120704700BF003C02400038024025
:1033000038EE030888EC03080000002020000020AD
:10331000044B05499B68054A0868C3F38223D35CC4
:10332000D8407047003802400000002080EC0308BD
:10333000044B05499B68054A0868C3F34233D35CD4
:10334000D8407047003802400000002080EC03089D
:10335000002800F032810368994A934270B5044610
:103360000CD002F58062934208D002F5806293424D
:1033700004D0944840F2C911FDF772FC6368924A88
:10338000013B934200F20181A36833F4804340F093
:10339000DA80E368B3F5806F80F0DF80236923F47F
:1033A0000043B3F5804F04D0864840F2CD11FDF7BD
:1033B00057FC6369012B00F2D680A36933F0FE034A
:1033C00040F0DB80E36933F0400304D07D484FF4E4
:1033D000E871FDF745FC236A33F0800340F0A180DB
:1033E00094F83D3003F0FF02002B00F0A680236824
:1033F000242284F83D201A6822F001021A601A681B
:1034000042F400421A601A6822F400421A60FFF780
:103410007FFF6E4B65689D4251D86D4B984240F2DC
:10342000B2806C4B6A00A3FB0035431EB3FBF2F382
:103430002268516821F03F0141EA95415160116ACB
:103440004FEA954C0CF1010C21F03F0141EA0C01CF
:103450001162D16940F6FC70013321F44F410342FF
:1034600021F0FF0140F0978004230B43D361D4E99E
:1034700007301168034321F0C0010B4313609168CA
:10348000D4E9030321F40341034321F0FF010B437B
:103490009360D4E90530D168034321F0FF010B4369
:1034A000D3601168002341F00101202011602364E2
:1034B00084F83D00236384F83E30184670BD464BC7
:1034C000984260D92268434B444EA3FB003C431E04
:1034D000506820F03F0040EA9C4050604FEA9C4119
:1034E0004FF4967000FB01F1A6FB0161106A890997
:1034F00020F03F00013101431162D169A06821F43D
:103500004F4121F0FF01002848D105EB4505B3FBF1
:10351000F5F30133C3F30B03002B4CD043F400430A
:10352000A3E7284840F2D111FDF79AFB94F83D300B
:1035300003F0FF02002B7FF45AAF84F83C202046B2
:10354000FDF732F853E71F4840F2CB11FDF788FB37
:10355000E368B3F5806FFFF421AF1A484FF4E671CA
:10356000FDF77EFB1AE717484FF4E771FDF778FB8C
:10357000A36933F0FE033FF425AF124840F2CF11A8
:10358000FDF76EFB1EE7012070BD0E484FF4E5719C
:10359000FDF766FBF8E6C3F30B0366E705EB85056D
:1035A00005EB8505B3FBF5F30133C3F30B0313B14F
:1035B00043F4404359E7012357E70120704700BF18
:1035C0000054004070EE03087F1A0600A086010038
:1035D0007F841E0083DE1B43FF083D00D34D621035
:1035E000002800F0118138B5884A036893420446E8
:1035F00037D0B3F1804F34D0A2F57C42934230D023
:1036000002F5806293422CD002F58062934228D06A
:1036100002F58062934224D002F58062934220D06A
:1036200002F5704293421CD002F57052934218D0BA
:1036300002F58062934214D002F58062934210D06A
:10364000A2F5983293420CD002F58062934208D0E2
:1036500002F58062934204D06D4840F21311FDF7E9
:10366000FFFAA36833F010020AD023F04002202AA8
:1036700006D0402B04D066484FF48A71FDF7F0FA6B
:10368000236933F480725DD12268E368B2F1804F20
:1036900065D060498A4262D0013B4FF6FE72934288
:1036A0008CBF00230123002B00F0A880A36933F016
:1036B000800304D0564840F21711FDF7D1FA94F870
:1036C0003D3003F0FF02002B00F0928022684F494A
:1036D000022384F83D308A42136875D0B2F1804FDE
:1036E00041D0A1F57C418A423DD001F580618A42FA
:1036F00039D001F580618A4235D001F578418A429E
:1037000062D045498A4232D001F580618A422ED08A
:1037100001F580618A422AD0A1F598318A4226D0EB
:1037200001F580618A4222D001F580618A421ED073
:10373000A5696168E06823F080032B431360D062C1
:10374000916221E0B3F5007F9ED0314840F215111F
:10375000FDF786FA2268E368B2F1804F99D1003B09
:1037600018BF01239FE7A16823F070030B43206972
:10377000A16923F44073034323F08003E0680B4303
:1037800061681360D0629162012353611369DB07A2
:1037900003D5136923F001031361012384F8463034
:1037A00084F83E3084F83F3084F8403084F841306B
:1037B00084F8423084F8433084F8443084F845304B
:1037C00084F83D30002038BDA068216923F07003E3
:1037D000034323F440730B43A16923F080030B439D
:1037E0001360E368D3626368936263691363CBE732
:1037F00084F83C202046FDF777F967E704484FF44A
:103800008B71FDF72DFA51E7012070470000014050
:10381000A8EE0308000C004000400140394A03684C
:10382000934210B5044637D0B3F1804F34D0A2F59F
:103830007C42934230D002F5806293422CD002F554
:103840008062934228D002F58062934224D002F530
:103850008062934220D002F5704293421CD002F560
:103860007052934218D002F58062934214D002F550
:103870008062934210D0A2F5983293420CD002F5A8
:103880008062934208D002F58062934204D01E48C1
:103890004FF4E871FDF7E4F994F83D30012B2FD196
:1038A00023681849022284F83D20DA688B4242F0EE
:1038B0000102DA6019D0B3F1804F16D0134A934257
:1038C00013D002F5806293420FD002F580629342DA
:1038D0000BD002F57842934207D002F57052934222
:1038E00003D0A2F59432934204D19A6802F0070201
:1038F000062A03D01A6842F001021A60002010BDA7
:10390000012010BD00000140A8EE030800040040A3
:1039100038B590F83C30012B00F0C381022301221E
:1039200080F83C2080F83D300B68702B04460D4633
:1039300000F05D8225D823F01002402A00F0DE80DE
:10394000602B00F0B08133F030026ED122689168B4
:1039500021F47F4121F077019160402B00F2D88063
:10396000202B00F0708100F26B8133F0100100F029
:103970006A8101200122002384F83D2084F83C3034
:1039800038BDB3F5805F00F01381B3F5005FDAD185
:103990000268936823F47F4323F077039360A64B78
:1039A0009A4217D0B2F1804F14D0A3F57C439A42CB
:1039B00010D003F580639A420CD003F580639A42DD
:1039C00008D003F578439A4204D09C4841F2EE4176
:1039D000FDF746F9AB6833F4405304D0974841F201
:1039E000F141FDF73DF96B68B3F5004F09D033F0B5
:1039F000020206D00A2B04D0904841F2F241FDF7B2
:103A00002FF9E8680F2800F201822268D5E90153F6
:103A100091682B4321F47F410B4343EA00239360D9
:103A2000936843F48043936039E141F2C341834892
:103A3000FDF716F922682B68916821F47F4121F087
:103A40007701602B916000F0358140F28181B3F500
:103A5000805F00F0B480B3F5005FA0D0702B88D1F8
:103A6000754B9A421FD0B2F1804F1CD0A3F57C4316
:103A70009A4218D003F580639A4214D003F580630C
:103A80009A4210D003F578439A420CD003F5705354
:103A90009A4208D0A3F594339A4204D0674841F281
:103AA000D641FDF7DDF8AB6833F4405304D06348EA
:103AB00041F2D941FDF7D4F86B68B3F5004F09D056
:103AC00033F0020206D00A2B04D05C4841F2DA41FE
:103AD000FDF7C6F8E8680F2800F29F812268D5E953
:103AE000015391682B4321F47F410B4343EA0023A8
:103AF0009360936843F077039360D0E00268916825
:103B000021F47F4121F07701402B916000F0238167
:103B1000502B7FF42EAF484B9A421FD0B2F1804F0A
:103B20001CD0A3F57C439A4218D003F580639A42D7
:103B300014D003F580639A4210D003F578439A427B
:103B40000CD003F570539A4208D0A3F594339A42EF
:103B500004D03A4841F20251FDF782F86B68B3F5A0
:103B6000004F09D033F0020206D00A2B04D03348AC
:103B700041F20551FDF774F8E8680F2800F25B8107
:103B8000236869681A6A22F00A0211431A6A22F04D
:103B900001021A629A6922F0F00242EA00129A6166
:103BA00019629A6822F0700242F057029A6076E039
:103BB0000268936823F47F4323F0770393601E4BDE
:103BC0009A426CD0B2F1804F69D0A3F57C439A42FF
:103BD00065D003F580639A4261D003F580639A4211
:103BE0005DD003F580639A4259D003F580639A4211
:103BF00055D003F570439A4251D003F570539A4261
:103C00004DD003F580639A4249D003F580639A4210
:103C100045D0A3F598339A4241D003F580639A4288
:103C20003DD003F580639A4239D0044841F2CF4138
:103C3000FDF716F833E000BF00000140A8EE0308CE
:103C4000302B7FF496AE7F498A4221D0B2F1804F6B
:103C50001ED0A1F57C418A421AD001F580618A42CA
:103C600016D001F580618A4212D001F578418A426E
:103C70000ED001F570518A420AD0A1F594318A42E2
:103C800006D0714841F23551FCF7EAFF22682B68F3
:103C9000916821F070010B4343F00703936000200B
:103CA00068E6022038BD0268936823F47F4323F05E
:103CB00077039360634B9A421FD0B2F1804F1CD0C0
:103CC000A3F57C439A4218D003F580639A4214D03E
:103CD00003F580639A4210D003F578439A420CD0E2
:103CE00003F570539A4208D0A3F594339A4204D056
:103CF000554841F21251FCF7B3FF6B68B3F5004F22
:103D000009D033F0020206D00A2B04D04E4841F20B
:103D10001551FCF7A5FFE8680F2800F2858023689D
:103D200069681A6A22F0A00242EA0112196A21F0B7
:103D300010011962996921F4704141EA00319961D9
:103D40001A629A6822F0700242F067029A60A6E74F
:103D5000402B7FF402AE3B4B9A421FD0B2F1804F12
:103D60001CD0A3F57C439A4218D003F580639A4295
:103D700014D003F580639A4210D003F578439A4239
:103D80000CD003F570539A4208D0A3F594339A42AD
:103D900004D02D4841F22251FCF762FF6B68B3F565
:103DA000004F09D033F0020206D00A2B04D0264877
:103DB00041F22551FCF754FFE8680F281FD823680B
:103DC00069681A6A22F00A0211431A6A22F0010293
:103DD0001A629A6922F0F00242EA00129A611962AC
:103DE0009A6822F0700242F047029A6057E7026830
:103DF000936823F47F4323F07703936030E61248FF
:103E000041F22651FCF72CFFE868D8E70E4841F252
:103E1000F341FCF725FFE868F7E50B4841F2DB4189
:103E2000FCF71EFFE86859E6074841F21651FCF717
:103E300017FFE86873E7044841F20651FCF710FFEA
:103E4000E8689DE600000140A8EE0308704700BF47
:103E5000704700BF704700BF704700BF704700BF8A
:103E6000036870B5DE681D69A907044601D5B2076D
:103E700051D4690701D572073AD42B0701D5300711
:103E800024D4EA0601D5F30610D4E80701D5F107DA
:103E900057D42A0601D533065BD4680601D57106CE
:103EA0005FD4AA0601D5B30642D470BD23686FF073
:103EB00010021A6108222277DB6913F4407F204642
:103EC00063D0FFF7C7FF00232377DEE723686FF097
:103ED00008021A6104222277DB699907204651D132
:103EE000FFF7B6FF2046FFF7B7FF00232377C8E7A9
:103EF00023686FF004021A61022222779B6913F48F
:103F0000407F20463BD1FFF7A3FF2046FFF7A4FFE9
:103F100000232377B1E76FF002021A6101220277D2
:103F20009B699B0725D0FFF795FF00232377A0E728
:103F300023686FF0200220461A61BDE8704000F04F
:103F4000EBBA23686FF001021A612046FFF77EFF8B
:103F50009FE723686FF080021A61204600F0DEFAC6
:103F60009BE723686FF040021A612046FFF776FF57
:103F700097E7FFF76DFF2046FFF76EFFD5E7FFF7E6
:103F800069FFC5E7FFF766FFAFE7FFF761FF204670
:103F9000FFF762FF97E700BF38B50E4A0E4B127865
:103FA000054618684FF47A73B3FBF2F3B0FBF3F0F5
:103FB00000F098FB08B90F2D01D9012038BD044647
:103FC000024629464FF0FF3000F032FB034B2046FB
:103FD0001D6038BD1C0000200000002020000020D3
:103FE00008B50B4B1A6842F400721A601A6842F462
:103FF00080621A601A6842F480721A60032000F02E
:10400000F9FA0F20FFF7C8FFFCF722FA002008BDDD
:10401000003C0240034A044B11681B780B441360B8
:10402000704700BFA80500201C000020014B186845
:10403000704700BFA8050020B0F1204F70B50546BD
:104040000C4603D06A48F721FCF70AFE236843B107
:10405000062B00F2C080542222FA03F3DB0740F162
:10406000BA80636833F0020303D06148F921FCF79A
:10407000F7FDA36833F0040202D0082B40F0A180C2
:10408000E36833F0100202D0202B40F09F802369B8
:1040900033F4807303D05648FC21FCF7E1FD6369DB
:1040A00033F4007303D05248FD21FCF7D9FDA36916
:1040B00033F4806303D04E48FF21FCF7D1FDE36960
:1040C00033F4006304D04A4840F20111FCF7C8FD04
:1040D000236A33F4805304D045484FF48171FCF7D0
:1040E000BFFD636A33F4005304D0414840F203112A
:1040F000FCF7B6FDA36A33F4804304D03C484FF488
:104100008271FCF7ADFDE36A33F4004304D0384814
:1041100040F20511FCF7A4FD236B33F4002304D017
:1041200033484FF48371FCF79BFD636B33F48013CA
:1041300004D02F484FF48471FCF792FDE16B31F409
:10414000403302D0B1F5802F4AD12268E66855F895
:10415000223023F0010345F82230D4E90130034333
:1041600033432669334366693343E6693343266A3A
:104170003343666A3343A66A3343E66A3343266BA6
:104180003343A669646BA0F108003343B0FA80F0B2
:104190004009234355F8226043EA80131548304014
:1041A00003430B43B4F5801F45F8223001D00020B3
:1041B00070BD002AFBD02B6843F480132B600020D5
:1041C00070BD0B48FA21FCF74BFD59E70848FB216D
:1041D000FCF746FD5BE70648F821FCF741FD40E7A8
:1041E00040F20D110248FCF73BFDE16BADE700BF6B
:1041F000E0EE03088000E0FFB0F1204F70B5054607
:104200000C46164604D045484FF4CB71FCF728FD08
:1042100023680F2B4AD86368013B0E2B4FD8A36845
:10422000013BFE2B54D8E3680F2B59D82369023B7E
:104230000E2B5ED86369023B0F2B63D8A36933F062
:10424000405304D0354840F29D11FCF709FD062E7D
:104250005ED85523F340DA075AD5A069236821694F
:104260000343606843EA0013A06843EA0023E06860
:1042700005EB860643EA004360697268013943EA48
:104280000153023802F0404243EA00631343736073
:104290002B68DB024FEA015106D56B686A6813434D
:1042A00023F470030B436B60002070BD1B4840F289
:1042B0009711FCF7D5FC6368013B0E2BAFD917486B
:1042C0004FF4CC71FCF7CCFCA368013BFE2BAAD9C0
:1042D000124840F29911FCF7C3FCE3680F2BA5D9F3
:1042E0000E484FF4CD71FCF7BBFC2369023B0E2B4B
:1042F000A0D90A4840F29B11FCF7B2FC6369023B6B
:104300000F2B9BD905484FF4CE71FCF7A9FC95E71C
:1043100002484FF4CF71FCF7A3FC9EE7E0EE0308E0
:1043200070B506461546002B3DD0B3F5804F35D10C
:10433000324B98420C4604D0314840F2CD11FCF784
:104340008FFC23680F2B46D86368013B0E2B3CD8AB
:10435000A368013BFE2B32D8E3680F2B29D8A36951
:1043600033F0405343D1062D3BD85523EB40DB07B8
:1043700037D5A269236856F825101343626843EACB
:104380000213A26843EA0223E26843EA02431D4A99
:104390000A40134346F82530002070BD184840F20B
:1043A000C711FCF75DFC6FF0704346F82530002024
:1043B00070BD134840F2D111FCF752FCCFE7104812
:1043C0004FF4E871FCF74CFCC6E70D4840F2CF1102
:1043D000FCF746FCBCE70A484FF4E771FCF740FCE9
:1043E000B2E7074840F2D311FCF73AFCC1E70448B2
:1043F0004FF4E971FCF734FCB5E700BF040100A0FD
:10440000E0EE03080000F0CF38B5414A036893425C
:1044100004460D461FD0B3F1804F1CD0A2F57C425C
:10442000934218D002F58062934214D002F5806264
:10443000934210D002F5806293420CD002F5806264
:10444000934208D002F57042934204D0314840F2C2
:10445000A971FCF705FC2B6833F040020CD0402B0F
:104460004CD8202B08D023F02003102B04D029484F
:1044700040F2AA71FCF7F4FB6B6833F0800304D0C0
:10448000244840F2AB71FCF7EBFB94F83C30012B75
:104490003BD02368022284F83D205A682868996836
:1044A00022F0700202435A60194A93421AD0B3F1C3
:1044B000804F17D0A2F57C42934213D002F5806260
:1044C00093420FD002F5806293420BD002F57842FE
:1044D000934207D002F57052934203D0A2F5943272
:1044E000934204D16A6821F0800111439960002051
:1044F000012384F83D3084F83C0038BD602BBBD0EC
:1045000023F02003502BB2D1B6E7022038BD00BF04
:104510000000014014EF0308704700BF704700BF60
:1045200048B370B590F8493015460E46044603F07E
:10453000FF02DBB1214651F8080BFFF77DFDA268B1
:1045400020683146FFF758FED4E90102236B294663
:10455000FFF7E6FE2268A16852F8213001252B43BF
:1045600042F8213084F84950002070BD80F848207E
:10457000FCF726FADEE70120704700BF30B583B0B4
:10458000194B1A491A4D002201921A6C42F08052BE
:104590001A641B6C03F0805301930122019B0A648F
:1045A000FFF744FD044605E0FFF740FD001BB0F5B2
:1045B0007A7F16D86B68DA03F6D50C4B0C4D0122C6
:1045C0005A64FFF733FD044605E0FFF72FFD001B9B
:1045D000B0F57A7F05D86B689B03F6D5002003B051
:1045E00030BD032003B030BD0038024000000E4251
:1045F00000700040C31E042B10B504460ED80A49B3
:10460000CA6823024FF6FF0003F4E063024013433D
:1046100043F0BF6343F40033CB6010BD03489021E7
:10462000FCF71EFBEBE700BF00ED00E04CEF0308DA
:104630000F2A70B5164605460C4634D80F2C2DD8D7
:104640001B4BDB68C3F30223C3F10702042A03F107
:10465000040128BF0422062917D9D91E4FF0FF33C1
:104660008B4026EA03064FF0FF33934024EA03030E
:104670008B4033431B01002DDBB209DB05F16045A4
:1046800005F5614585F8003370BD00263146EAE73F
:10469000084A05F00F052A44137670BD0648A92183
:1046A000FCF7DEFACCE70448A821FCF7D9FAC5E705
:1046B00000ED00E0FCEC00E04CEF0308002808DB14
:1046C000064A4109012300F01F00834042F82130CF
:1046D00070470348BC21FCF7C3BA00BF00E100E00B
:1046E0004CEF03080138B0F1807F01D301207047FF
:1046F00010B44FF0E023074C58614FF0F00C84F8F1
:1047000023C00022072110469A615DF8044B19610D
:10471000704700BF00ED00E0002800F0108138B5C0
:10472000974A03689342044618D0A2F57842934210
:1047300014D002F58062934210D002F57842934281
:104740000CD002F5E052934208D002F58062934209
:1047500004D08C484FF4A071FCF782FA63683BB137
:10476000B3F5827F04D0874840F24111FCF778FA14
:10477000A36833F4806240F0A180E36833F40063FF
:1047800004D0804840F24311FCF76AFAA36933F47D
:10479000007203D0B3F5802F40F0B880E3695BB1BD
:1047A000182B00F29E80072B40F2A580764A22FA51
:1047B00003F3DD0740F19F80236A33F0800304D0C8
:1047C00070484FF4A371FCF74BFA636A002B5CD17D
:1047D000236933F0020304D06A484FF4A571FCF753
:1047E0003FFA6369012B04D9664840F24B11FCF78C
:1047F00037FA6368B3F5827F00F0A3800023E3619A
:1048000094F851300021A16203F0FF02002B5FD029
:10481000D4E90130E268256800F4044003F48273AF
:10482000034302F4006003432069A26900F0020020
:104830000343022084F85100606900F00100034343
:10484000E06902F4007E00F0380C206A43EA0E03AF
:1048500000F0800043EA0C0303430B43616A120C2F
:1048600001F0100102F004020A43296821F040011E
:1048700029602B606A60EB6923F40063EB61002020
:104880000123606584F8513038BD102B07D03D48B6
:1048900040F24711FCF7E4F9636A002B98D0E36912
:1048A00043B1182B3CD8072B43D9374A22FA03F3DC
:1048B000DB073ED50023C4E90433A1E7B3F5004F7D
:1048C0003FF45BAF2F484FF4A171FCF7C9F954E7EF
:1048D00084F850202046FBF77FFDA16A01F40051C7
:1048E00096E7203B182B06D84FF0013222FA03F34B
:1048F000DB073FF561AF234840F24511FCF7B0F903
:10490000236A33F080033FF460AF59E71D484FF44A
:10491000A271FCF7A5F9E369002B3FF44DAF3FE727
:10492000203B182B05D84FF0013222FA03F3DA07A7
:10493000C0D4144840F25911FCF792F9BAE70120AB
:104940007047E369002B3FF45BAF182B0DD8072BA2
:1049500005D90D4A22FA03F3D9073FF551AF0948AB
:1049600040F24F11FCF77CF94AE7203B182BF6D8B0
:104970004FF0013222FA03F3D8073FF541AFEEE7DB
:104980000030014084EF0308000101012DE9F04FE0
:10499000734B984283B006460F462BD003F58063D5
:1049A000984227D003F58063984223D003F58063B3
:1049B00098421FD003F5806398421BD003F58063B3
:1049C000984217D003F58063984213D003F58063B3
:1049D00098420FD003F5806398420BD003F58063B3
:1049E000984207D003F58063984203D05D48AC211C
:1049F000FCF736F93B689AB2002A00F0AB80B3F5B9
:104A0000803F80F0A7807B68B3F5041F0CD000F2D4
:104A1000AB81B3F5881F07D000F2FB81032B03D9CC
:104A2000113B012B00F2AA814D4BDFF860B19E4291
:104A30004FF0000504D129E10135102D00F032813D
:104A40003B680124AC4004EA030834EA0303F3D1D1
:104A50007A6802F003034FEA450A4FF00309591E32
:104A600009FA0AF901296FEA090940F21E81032BAC
:104A700022D0B968022900F22B81F06801FA0AF10C
:104A800000EA09000143022BF16015D1386910B129
:104A90000D2800F24581EC0806EB840405F00701BF
:104AA000D4F820C089004FF00F0E88400EFA01F1B3
:104AB0002CEA010101432162316803FA0AF301EA99
:104AC00009010B4312F4403F3360B5D0002301933A
:104AD000DBF8443043F48043CBF84430DBF8443017
:104AE00003F48043019325F0030303F1804303F5AE
:104AF0009C3305F0030401999868A4000F21A1409C
:104B000020EA01011848864200F046811748864293
:104B100000F073811648864200F073811548864282
:104B200000F07C811448864200F07C811348864264
:104B300000F06B811248864200F07881114886426D
:104B400000F07881104886420CBF09200A20A0405E
:104B5000014324E10348AD21FCF782F853E700BF8D
:104B600000000240BCEF03080004024000080240BD
:104B7000000C0240001002400014024000180240E5
:104B8000001C024000200240002402400038024085
:104B9000796801F003034FEA450A4FF003085A1EF3
:104BA00008FA0AF8012A6FEA080840F29A80032BF3
:104BB00024D0BA68022A00F21781F06802FA0AF2D9
:104BC00008EA00000243022BF26017D13C69002C76
:104BD00040F0B280EA08920002F1804202F5003211
:104BE00005F00700D2F820C080004FF00F0E84407F
:104BF0000EFA00F02CEA000020431062326803FA3B
:104C00000AF302EA0802134311F4403F33603AD03A
:104C100000230193DBF8443043F48043CBF8443065
:104C2000DBF8443003F480430193019B25F0030338
:104C300003F1804303F59C3305F003049A68A40054
:104C40000F20A04022EA00029A607C4BC8029B68B9
:104C50006FEA090261D4134078488C028360C3680C
:104C600000F1978013407548C3604368880300F1E2
:104C70008D8013407148CC034360036800F183804A
:104C800013406E4A13600135102D0BD03B68012490
:104C9000AC4004EA030934EA03033FF479AF013579
:104CA000102DF3D103B0BDE8F08FF96803292BD89C
:104CB000B06801FA0AF100EA09000143B1607068C6
:104CC000C2F3001120EA0400A94001437160CEE65E
:104CD000D1215B48FBF7C4FFD7E9012102F00303B0
:104CE000CBE6FA68032A36D8B06802FA0AF208EA74
:104CF00000000243B2607068C1F3001220EA0400B1
:104D0000AA400243726052E7C0214D48FBF7A8FF5A
:104D10007A68F96802F00303CAE743EA09039BE7EC
:104D20000F283FF4B8AE4648DE21FBF799FF7A68BA
:104D3000386902F00303AEE60D2C7FF64BAF0F2C63
:104D40003FF448AFDE213E48FBF78AFF79683C69B3
:104D500001F003033EE7C0213948FBF781FF796882
:104D6000FA6801F00303BFE7B3F5441F3FF45CAEFC
:104D700023F48013B3F5081F3FF456AE3048AE213C
:104D8000FBF76EFF50E649EA03037AE743EA0903BB
:104D900070E743EA090366E70120A04001439960F8
:104DA000264B9B68D0026FEA0801244854BF0B4091
:104DB00048EA03038360C3682048940254BF0B4051
:104DC00048EA0303C360436890031C4854BF0B4088
:104DD00048EA030343600368D203184A54BF0B40F8
:104DE00048EA0303136027E6D1211548FBF738FF93
:104DF000D7E9011201F00303DFE60220A0400143DE
:104E0000CDE70320A0400143C9E70620A0400143AD
:104E1000C5E7B3F5901F3FF407AEAFE70420A0400D
:104E20000143BCE70520A0400143B8E70720A040AC
:104E30000143B4E70820A0400143B0E7003C014033
:104E4000BCEF030838B505460C4629B10369194281
:104E500014BF0120002038BD03484FF4BE71FBF79A
:104E6000FFFE2B69204638BDBCEF030870B506462F
:104E700015460C4661B1012D03D805B92404B4616F
:104E800070BD06484FF4CF71FBF7EAFEB46170BD08
:104E9000024840F29D11FBF7E3FEECE7BCEF03088C
:104EA00038B505460C4641B16B6904EA030224EAB1
:104EB000030444EA0244AC6138BD03484FF4DB719B
:104EC000FBF7CEFEF0E700BFBCEF0308704700BF62
:104ED000044A5169014200D1704708B55061FFF79B
:104EE000F5FF08BD003C0140F0B583B0674A876D0F
:104EF000166800230193C36D3D6808229A402A4238
:104F0000044603D001680868400778D401229A401B
:104F10002A4203D02168496908066AD404229A40CB
:104F20002A4203D02168096889075CD410229A407C
:104F30002A4203D021680868000741D420229A4001
:104F40002A4214D021680868C00610D5BA6094F8C7
:104F50003520052A63D00B6813F4802F0B687ED0B0
:104F6000190340F18980E36B0BB120469847636DCC
:104F700023B3636DDA071AD522684549052384F8FF
:104F800035301368A1FB061623F00103B60A13603F
:104F900002E01368DB0704D5019B0133B3420193A0
:104FA000F7D90122002384F8352084F83430E36CEB
:104FB00023B1204603B0BDE8F040184703B0F0BD70
:104FC000BA600A6812F4802F0A6822D1D20503D48D
:104FD0000A6822F008020A60226C002AAED020463D
:104FE0009047E36DAAE7BA60626D42F00402626521
:104FF0009CE7BA60626D42F0020262658EE7086863
:1050000020F004000860BA60626D42F0010262653F
:105010007CE71103E0D5A26C002AE0D18EE70A6894
:1050200022F016020A604A6922F080024A61226C6C
:105030003AB30A6822F008020A603F2202FA03F338
:10504000216DBB600122002384F8352084F83430C0
:105050000029B3D0204603B0BDE8F040084713F460
:10506000807380D10A6822F010020A60012284F85D
:10507000352084F8343076E7636C002B7FF475AF0D
:1050800075E7A26C002AD4D1D7E700BF000000204A
:10509000B5814E1B38B51B4A0368934204460D4642
:1050A0000BD002F58062934207D002F580629342F2
:1050B00003D015485B21FBF7D3FD35F0100303D077
:1050C00011485C21FBF7CCFD94F83D30202BD9B280
:1050D00001D0022038BD2368242284F83D201A68BC
:1050E00022F001021A605A6A22F010025A625A6AC9
:1050F0002A435A621A6842F001021A6084F83D108D
:10510000002038BD00540040F4EF030838B51B4AB6
:105110000368934204460D460BD002F58062934229
:1051200007D002F58062934203D015488321FBF734
:1051300097FD0F2D1DD894F83D30202BD9B201D00A
:10514000022038BD2268242384F83D30136823F000
:1051500001031360506A4FF6F07303402B439BB278
:105160005362136843F00103136084F83D1000207C
:1051700038BD03488421FBF773FDDCE70054004091
:10518000F4EF030838B54268454B9A4204467AD892
:10519000E36833F4005304D0424840F68861FBF7DB
:1051A0005FFD236933F4806202D0B3F5C06F70D124
:1051B00060694FF6F373184243D1002841D022684A
:1051C000E1681369256923F440530B431361A36815
:1051D000D1682B43E56921F4164121F00C012B43E2
:1051E0000B430343D3605369A0692F4923F44073F1
:1051F00003438A42536105D02C4B9A4202D0FEF7FA
:1052000087F801E0FEF794F8E2691921B2F5004F42
:10521000D4E90053A0FB01011AD09A009B0FFBF7C1
:105220002FF8234AA2FB00135B09642101FB130042
:1052300000013230A2FB00201B0103EB5013AB60D6
:1052400038BD184840F68A61FBF70AFD6069B6E789
:10525000DA184FF000035B41FBF712F8144AA2FB87
:1052600000314909642303FB1103DB003233A2FB45
:105270000323C3F342121B0902EB011203F4F87378
:105280001344AB6038BD074840F68761FBF7E8FC84
:105290007EE7044840F68961FBF7E2FC88E700BF3F
:1052A000A037A0002CF003080010014000140140BA
:1052B0001F85EB51002800F091808269036810B5CA
:1052C0000446002A51D046498B4273D0A1F54C4187
:1052D0008B426FD001F580618B426BD001F54C4160
:1052E0008B4267D03F4840F27311FBF7B9FCA269CB
:1052F000002A5FD1A36833F4805304D039484FF4B7
:10530000BD71FBF7ADFCE36933F4004304D03548CD
:1053100040F27B11FBF7A4FC94F8413003F0FF024C
:10532000002B55D02268242384F84130D36823F41D
:1053300000532046D360FFF725FF2368196921F445
:1053400090411961596921F02A015961D9680022F7
:105350004FF0200C41F40051D960626484F841C0E0
:1053600084F842C01046626310BD1D4A9342C1D00A
:10537000A2F54C429342BDD002F580629342B9D06F
:1053800002F580629342B5D002F580629342B1D0BB
:1053900002F544429342ADD0A2F51C429342A9D0FB
:1053A00002F580629342A5D00E484FF4BC71FBF722
:1053B00057FC9FE722F40073B3F5807F9AD0B2F5D3
:1053C000007F97D007484FF4BA71FBF749FC91E78B
:1053D00084F840202046FBF773F8A3E701207047CC
:1053E000001001402CF003082DE9F843044690F822
:1053F0004100202855D10D4609B1164612B90120A9
:10540000BDE8F8831F464FF000082123C4F844800C
:1054100084F84130FEF70AFEA368A684B3F5805FE6
:105420008146E68440D0E38C22689BB2002B47D0B3
:105430007B1C24D113681F06FCD5002D2CD015F839
:10544000013B5360E38C013B9BB2E384E38C9BB252
:10545000002BEFD113685906FCD5202384F8413086
:105460000020BDE8F883002D3DD015F8013B5360C6
:10547000E38C013B9BB2E384E38C9BB213B31368D0
:105480001E06F0D4FEF7D2FDA0EB09039F4211D314
:1054900087B12268D368F2E738F8023BC3F3080308
:1054A000CFE70220BDE8F8832369002BBBD1A846D3
:1054B0001D46B8E7202384F841300320BDE8F88377
:1054C000781CC7D013685B06C7D4FEF7AFFDA0EB0E
:1054D00009039F42EED3002FECD02268D3681368F3
:1054E0005B06F2D5B9E738F8023BC3F30803BEE721
:1054F00010B50C462046102129F02AFD20464FF415
:105500008061BDE8104029F0D7BC00BF10B501464E
:10551000034834F06FF8044634F0F0F8204610BD2C
:10552000F81804082DE9F04F8BB00B46054606A984
:1055300000932BF0E3F828462BF058F9064628464E
:105540002BF05AF9122200210446284632F0BCFE04
:105550001322002107B2284632F0B6FE10220FFABD
:1055600080FB0021284632F0AFFE11220FFA80F8AE
:105570000021284632F0A8FE14220FFA80F90021FB
:10558000284632F0A1FE152282460021284632F03C
:105590009BFE5B460D2BA8BF0D230393B8F10D0FA7
:1055A0004B46A8BF4FF00D080D2BA8BF0D230AF0E6
:1055B00001090493CAF3C03303FA8AFA09F1010915
:1055C00009EB6A09C0F3C03300F0010A0AF1010ACD
:1055D00003FA80F00FFA89F90AEB600AB9F10D0FAE
:1055E0000FFA8AFA2B8EA8BF4FF00D09BAF10D0FF2
:1055F000A8BF4FF00D0A002B7AD0039BF61A049B2C
:105600000D2FA4EB0304A4F102033A46A6F102060F
:105610004FF00004A8BF0D22019305922346029685
:1056200036E0059EA3EB060E96440FFA8EF2E04597
:10563000ADF82020BDF81AE01FFA8CF246DBAEEB85
:10564000080C94440FFA8CF2029EADF82220B0426E
:1056500082B2AABF039853441B181344019A914283
:10566000A8BF049A1BB2ACBF9644CE44ADF8243018
:105670008BB273441BB20099ADF82630002208A803
:1056800028F0ACFA38BB2A8E0134A3B29A4229D949
:10569000A96A31F934E001EBC4027745B2F902C0DE
:1056A000B2F90400B2F906109B461FFA8EF2BDF85B
:1056B0001830B6DAA3EB0A0E724412B2E045ADF828
:1056C0002020BDF81AE01FFA8CF2B8DAAEEB090C14
:1056D000624412B2B8E72A8E934509D058460BB0FF
:1056E000BDE8F08F0BF1010B1FFA8BFB9345F5D151
:1056F0004FF6FF7B58460BB0BDE8F08F2DE9F04F19
:10570000D5B0044634F08CF9038E13B955B0BDE81A
:10571000F08F8346204634F009FA9BF8223005903A
:1057200043F0040314A905468BF8223058462AF0AA
:10573000E5FFDBF82020AE4BBBF820400794134078
:1057400043F48023CBF8203034A811F063FD1EA869
:1057500013F016FB34AA4FF4A02158462DF0DAF8C6
:105760001EAA4FF4A02158462DF036FA9BF822309D
:10577000ABF8204023F004038BF8223010220021E4
:10578000584632F0A1FD112203B200215846089379
:1057900032F09AFD122203B200215846099332F0EA
:1057A00093FD132203B2002158460A9332F08CFD78
:1057B000294603B242A80B932DF0D2FB8D4BBBF8C8
:1057C0003020439326A94FF4A0234F934691002302
:1057D00016A944934791002A00F00181984604F0ED
:1057E00020030C9304F002030D9304F004030E93C2
:1057F00004F008030F9344464546DBF8240050F8B4
:1058000024100B780A3B08BF4B784FEA8408013418
:10581000A4B2002BF3D0DBF82C3033F8153069003C
:105820000691D90600F1D6805F06C3F3002640F149
:10583000608146F08006DBF82820BDF8501032F871
:1058400035C002EBC5038C449A885F88DB8811441D
:10585000BDF8522017441A440023184661F30F0084
:105860006CF30F0367F31F4362F31F40CDE912305F
:10587000002E40F01A81382234A926A823F084FE95
:1058800020221EA916A823F07FFEDBF82C306A0028
:105890001A219A5A9DF87530509510054CBF43F067
:1058A000010303F0FE038DF8753042AA12AB58468F
:1058B000459334F07BF89DF8BB30C3F344020F2AC4
:1058C00000F29A80BDF94A30BDF94E7001379AB2A4
:1058D00016F020060692BFB209D06900DBF82C3022
:1058E0005B5A590544BFC7EB4203ADF84A300598EF
:1058F00012AA26A911F0B6FCDBF82420BDF854301A
:1059000052F80880BDF8502001339B1A1BB2019356
:105910009DF875300293BDF96A30169A009341469E
:10592000BDF96C3011A826F039FCBDF84C20BDF84B
:105930004E30BDF848A0BDF84A90BDF944C0BDF94D
:10594000460001320133A2EB0A02A3EB090312B2B3
:105950001BB2A2EB0C021B1A02EBD27203EBD37345
:105960000AEB620209EB6303002192B29BB28E46FE
:105970001844944462F30F016CF30F0E80B263F38A
:105980001F4160F31F4E1291CDF84CE09EB1DBF841
:105990002C206900525A52050DD5069ABF1AC7F33A
:1059A000C03202FA87F7C7F34F029B1A801AADF88C
:1059B0004A30ADF84E00002205980092434612AAE4
:1059C00016A913F0F5F942AA1B21584633F0EEFF51
:1059D000BBF830200135ABB29A423FF60EAF9BF8D0
:1059E000223023F004038BF8223055B0BDE8F08F4D
:1059F0000000FBFF34190408BBF914200A990A447B
:105A0000BDF94810914214BF0F220B2262F34503E7
:105A10008DF8BB300B9ABBF91830BDF94C10A3EBD5
:105A2000020319BF0C270E220A22082715BF0D20DA
:105A300009204FF0060A4FF0020A15BF4FF0040983
:105A40004FF000094FF0050E4FF0010E14BF4FF05C
:105A5000070C4FF0030C994208D19DF8BB306CF352
:105A6000450352464F4670468DF8BB30089BBBF944
:105A700016101944BDF94A308B4206D19DF8BB106F
:105A800060F345013A468DF8BB10BBF91A1009982E
:105A9000BDF94E70091A8F427FF418AF9DF8BB1004
:105AA00062F345018DF8BB1010E79BF82230ABF88C
:105AB000206043F004038BF8223026A811F0AAFBE3
:105AC00016A813F05DF926AA4FF4A02158462CF031
:105AD00021FF16AA4FF4A02158462DF07DF8079B10
