:020000040800F2
:100000000000022025030008051500080915000856
:100010000D15000811150008151500080000000056
:10002000000000000000000000000000191500089A
:100030001D15000800000000211500082515000806
:1000400079030008790300087903000879030008A0
:100050007903000879030008790300087903000890
:100060007903000879030008790300087903000880
:100070007903000879030008790300087903000870
:100080007903000879030008790300087903000860
:100090007903000879030008790300087903000850
:1000A0007903000879030008790300087903000840
:1000B0007903000879030008790300087903000830
:1000C0007903000879030008790300087903000820
:1000D0007903000879030008790300087903000810
:1000E0007903000879030008000000007903000884
:1000F00079030008790300087903000879030008F0
:1001000079030008790300087903000879030008DF
:1001100079030008790300087903000879030008CF
:1001200079030008790300087903000879030008BF
:1001300079030008790300087903000879030008AF
:1001400000000000000000000000000000000000AF
:10015000790300087903000879030008790300088F
:10016000790300087903000879030008790300087F
:10017000790300087903000879030008790300086F
:10018000790300087903000879030008790300085F
:10019000790300087903000879030008790300084F
:1001A000790300087903000879030008790300083F
:1001B000790300087903000879030008790300082F
:1001C000790300087903000879030008790300081F
:1001D000790300087903000879030008790300080F
:1001E00079030008790300087903000879030008FF
:1001F00079030008790300087903000879030008EF
:1002000079030008790300087903000879030008DE
:1002100079030008790300087903000879030008CE
:100220007903000879030008790300080000000042
:100230007903000879030008000000007903000832
:10024000790300087903000879030008790300089E
:10025000790300087903000879030008790300088E
:10026000790300087903000879030008790300087E
:1002700079030008790300087903000800000000F2
:1002800079030008790300087903000800000000E2
:080290000000000079030008E2
:100298000348044B834202D0034B03B1184770470D
:1002A8001000002010000020000000000548064B48
:1002B8001B1AD90F01EBA301491002D0034B03B15C
:1002C80018477047100000201000002000000000B0
:1002D80010B5064C237843B9FFF7DAFF044B13B186
:1002E8000448AFF300800123237010BD10000020E4
:1002F80000000000F816000808B5054B1BB10549B9
:100308000548AFF30080BDE80840FFF7CFBF00BF46
:100318000000000014000020F8160008DFF838D0AC
:1003280001F0AAF801F032F80C480D490D4A0023F3
:1003380002E0D458C4500433C4188C42F9D30A4A92
:100348000A4C002301E013600432A242FBD301F0FF
:10035800A3F901F053F970470000022000000020C3
:10036800100000202817000810000020300000208E
:10037800FEE7000038B5104CE36813F0040FE3689B
:1003880005D103F00703181A18BF012038BD23F060
:1003980007030343E36000F073F8054605E000F047
:1003A8006FF8401BB0F57A7F04D863689B04F6D5D4
:1003B800002038BD012038BD004802580F4B1B787B
:1003C8000BB90120704710B504464FF47A700C4AF7
:1003D800B0FBF3F31068B0FBF3F000F0CDFA0F2C8C
:1003E80000D808B1012010BD002221464FF0FF308F
:1003F80000F086FA034B00201C6010BD00000020AE
:100408000C0000200400002010B50320124C00F05E
:1004180065FA00F003FE114B11499A699B69C2F312
:10042800032203F00F038A5CCB5C02F01F020D4924
:1004380003F01F03D04020FA03F308600F20236065
:10044800FFF7BCFF10B10124204610BD044601F09F
:1004580067F8204610BD00BF08000020004402587D
:10046800101700080C000020034A044B11681B7881
:100478000B441360704700BF2C00002000000020D0
:10048800014B1868704700BF2C00002038B504469F
:10049800FFF7F6FF0546631C02D0044B1B781C448B
:1004A800FFF7EEFF401BA042FAD338BD0000002042
:1004B800014B1868000C70470010005C0B68002B9B
:1004C80000F0DC81B44A90424FF000022DE9F04F71
:1004D8004FF0010B85B000F005814FF0B04E00934E
:1004E8000BFA02FC009B1CEA030A00F04B814D68E2
:1004F8005400032305F0030703FA04F607F1FF3855
:10050800F643B8F1010F40F25D81032F40F0CF812F
:1005180007FA04F4076815F4403F06EA070644EAB8
:100528000604046000F02E819C4E02F003070F239E
:10053800D6F8F440BF0044F0020403FA07FC984BD5
:10054800C6F8F440D6F8F44022F00306984206F1C3
:10055800B04604F0020406F580660394039CB46870
:1005680024EA0C0400F078818E4B984200F0DE807B
:10057800DFF834C2604500F07B81DFF830C26045A7
:1005880000F07D81DFF828C2604500F06B81DFF85C
:1005980024C2604500F07981DFF81CC2604500F094
:1005A8007A81DFF818C2604500F07B81DFF810C25D
:1005B80060450CBF4FF0090C4FF00A0C0CFA07F716
:1005C8003C43B8E0D0F80890022CCE680AEA090942
:1005D80006FA07F848EA0908C0F80880C5F30018C1
:1005E800D0F8049008FA02F829EA0E0E48EA0E0E2E
:1005F800C0F804E0D0F80C808E680AEA080806FA09
:1006080007FE4EEA080EC0F80CE017D102F0070EFC
:100618000E694FEAD2084FEA8E0E00EB880806FAF8
:100628000EF6D8F8209000960F2606FA0EFE009EC9
:1006380029EA0E0946EA090EC8F820E0BC40076816
:1006480015F4403F07EA0A0744EA0704046045D066
:10065800524F0F26D7F8F44044F00204C7F8F4408C
:10066800D7F8F44022F0030704F0020407F1B0477A
:10067800039407F58067039C02F00304D7F808E0A9
:10068800A40006FA04F4EE022EEA0404BC604FF05B
:10069800B0446FEA0C07246800F1D2803C404FF068
:1006A800B04634607468AE0200F1D3803C404FF02D
:1006B800B0467460D6F88440AE0300F1C7803C4071
:1006C8004FF0B046ED03C6F88440D6F8804000F1FC
:1006D800BA803C404FF0B045C5F88040013233FA4B
:1006E80002F455D00BFA02FE13EA0E0CF6D04D6850
:1006F8005700032605F0030406FA07F86FEA080A0C
:1007080004F1FF38B8F1010F7FF65CAF032C95D0E8
:10071800DFF884808E68D8F80C9006FA07FE0AEA9B
:1007280009094EEA090EC8F80CE087E74FF0020CF9
:100738000CFA07F73C43B460EF02DEF800406FEABA
:100748000A064CBF4AEA04043440AB02CEF8004023
:10075800DEF8044054BF34404AEA0404AF03CEF83C
:100768000440DEF8844054BF34404AEA0404EB03F2
:10077800CEF88440DEF8804054BF34404AEA04048E
:10078800CEF880400132009B33FA02F47FF4A8AE21
:1007980005B0BDE8F08F00BF0000025800440258C1
:1007A8000004025800080258000C025800100258B1
:1007B8000014025800180258001C02580020025861
:1007C80000240258D0F80890022FCB6809EA0609DD
:1007D80003FA04F88B6848EA0908C0F80880C5F3EA
:1007E8000018D0F8049008FA02F829EA0C0C48EA34
:1007F8000C0CC0F804C003FA04FCD0F80C8008EA1A
:1008080006084CEA080CC0F80CC07FF481AE02F070
:10081800070C0B694FEAD2084FEA8C0C00EB8808EA
:1008280003FA0CF3D8F8209001930F2303FA0CFC79
:10083800019B29EA0C0943EA090CC8F820C067E6BD
:1008480044EA0C042BE744EA0C0443E74CEA0404AA
:1008580036E744EA0C042AE74FF0010C0CFA07F7D4
:100868003C4368E74FF0050C0CFA07F73C4362E796
:100878004FF0030C0CFA07F73C435CE770474FF066
:10088800040C0CFA07F73C4355E74FF0060C0CFA3A
:1008980007F73C434FE74FF0070C0CFA07F73C43C8
:1008A80049E74FF0080C0CFA07F73C4343E7D0F848
:1008B8000C808B6808EA060803FA04FC4CEA080C6A
:1008C800C0F80CC024E600BF436901EA030221EA2C
:1008D800030141EA02418161704700BF06494FF6B2
:1008E800FF0C0002054BCA6800F4E06002EA0C0243
:1008F80010430343CB60704700ED00E00000FA05A9
:100908001A4BDB68C3F3022300B5C3F1070E03F1EA
:10091800040CBEF1040F28BF4FF0040EBCF1060F03
:100928001AD9A3F1030C4FF0FF3303FA0CF322EAB0
:1009380003024FF0FF33002803FA0EF321EA030302
:1009480003FA0CF343EA02034FEA0313DBB206DBB4
:10095800074A13545DF804FB00229446E9E700F0C7
:100968000F00044A13545DF804FB00BF00ED00E0DB
:1009780000E400E014ED00E0431EB3F1807F01D3F2
:10098800012070474FF0E022002005494FF0F00C9D
:100998005361072381F823C090611361704700BF3A
:1009A80000ED00E0BFF35F8F044B00215A6A22F488
:1009B80080325A62C3F89410704700BF00ED00E01F
:1009C800064B40F00100C3F894005A6A42F48032A2
:1009D8005A62BFF34F8FBFF36F8F704700ED00E08F
:1009E800164A4378C2F89830D2F8A03023F00103B1
:1009F800C2F8A0304368C2F89C30C37A90F80CC0A3
:100A08001B06017843EA0C7390F80AC00B43417B3C
:100A180043EACC4390F80EC043EA8143C17B43EAE2
:100A28004C4390F809C043EA0143017A43EA0C2396
:100A380043EA4103C2F8A030704700BF00ED00E070
:100A4800002800F0E782F8B503680446D9072ED5D8
:100A580097490A69896A02F03802102A00F0EE8084
:100A6800182A00F0E6806368B3F5803F00F0118132
:100A7800002B00F06781B3F5A02F8D4B1A6800F0AA
:100A8800888222F480321A601A6822F480221A605E
:100A9800FFF7F6FC864E054605E0FFF7F1FC401B24
:100AA800642800F24D8133689B03F6D523689D07BF
:100AB80070D4D90633D57E4A1369926A03F0380395
:100AC800082B00F0CB80182B00F0C380E369784D29
:100AD800002B00F06F812B6843F080032B60FFF739
:100AE800CFFC064605E0FFF7CBFC801B022800F28E
:100AF80027812B68DB05F6D5FFF7DAFC41F2030303
:100B0800984200F26782226A6B68202A23F0F84331
:100B18000CBF43F0804343EA82636B6023681D0780
:100B280016D56369624D002B00F022816B6F43F08C
:100B380001036B67FFF7A4FC064605E0FFF7A0FC7E
:100B4800801B022800F2FC806B6F9807F6D523689B
:100B58009A0616D5A369564D002B00F01A812B680A
:100B680043F480532B60FFF78BFC064605E0FFF744
:100B780087FC801B022800F2E3802B689F04F6D5CF
:100B88002368590700F18B80636A002B40F0BF800F
:100B98000020F8BD464A1369926A13F038032DD134
:100BA800434BE2681B68590701D5002A4FD0404DD6
:100BB8002B6823F0190313432B60FFF761FC0646EB
:100BC80005E0FFF75DFC801B022800F2B9802B6866
:100BD8005B07F6D5FFF76CFC41F20303984200F27D
:100BE800108122696B68402A23F47C330CBF43F4DC
:100BF800003343EA02336B6023685AE7182B00F08E
:100C0800FC802B4DE2682B68002A00F0E58023F079
:100C1800190313432B60FFF733FC064605E0FFF783
:100C28002FFC801B022800F28B802B685F07F6D50B
:100C3800D0E701F0030102297FF415AF1C4A1268BE
:100C480092037FF534AF6268002A7FF430AF012049
:100C5800F8BD02F00302012A7FF438AF144B1B6879
:100C6800DA0502D5E369802BF1D1FFF721FC41F2C7
:100C78000303984200F2CE80226A202A00F0B9814C
:100C88000B494B6823F0F84343EA82634B602368BF
:100C980045E7074A136843F480331360F8E6054DC7
:100CA8002B6843F480732B60FFF7EAFB064608E0E5
:100CB8000044025800480258FFF7E2FB801B6428F2
:100CC8003ED82B68DA05F7D5A368012B00F08B8195
:100CD800002B00F06681052B854B1A6F00F092817E
:100CE80022F001021A671A6F22F004021A67FFF74E
:100CF800C7FB7F4E41F28837054604E0FFF7C0FB8B
:100D0800401BB8421CD8336F9B07F7D53CE7784D9A
:100D18002A6902F03802182A00F0EE80022B2B68AC
:100D280023F080732B607FD0FFF7AAFB04462B6863
:100D38009B017FF52DAFFFF7A3FB001B0228F6D917
:100D48000320F8BD6A4D2B6823F480332B602B6891
:100D580023F480232B60FFF793FB064604E0FFF79C
:100D68008FFB801B6428EBD82B689F03F7D49DE684
:100D78006B6F23F001036B67FFF782FB064604E005
:100D8800FFF77EFB801B0228DAD86B6F9907F7D430
:100D9800DDE62B6823F480532B60FFF771FB0646D2
:100DA80004E0FFF76DFB801B0228C9D82B68980464
:100DB800F7D4E5E62B6823F080032B60FFF760FB90
:100DC800064604E0FFF75CFB801B0228B8D82B68B6
:100DD800DF05F7D42368A2E623F001032B60FFF7B1
:100DE8004FFB064604E0FFF74BFB801B0228A7D801
:100DF8002B685807F7D423685BE690077FF401AFA8
:100E0800CEE66B68226923F0FE4343EA02636B6017
:100E180023684EE6364A216AD36823F07C5343EAB6
:100E28000163D36023687AE6FFF72AFB064604E0ED
:100E3800FFF726FB801B022882D82B689901F7D47C
:100E4800A96A2C4BA26A0B401343E26A43EA0213D5
:100E5800AB62216BD4E90D320139013B013AC1F390
:100E680008015B0212049BB202F4FE021343E26B18
:100E7800013A0B43120602F0FE4213432B63EB6A5E
:100E880023F00103EB626B6BA26C6FF3CF0343EAB1
:100E9800C2036B63EB6A226C23F00C031343EB620F
:100EA800EB6A626C23F002031343EB62EB6A43F4D0
:100EB8008033EB62EB6A43F40033EB62EB6A43F492
:100EC8008023EB62EB6A43F00103EB622B6843F08B
:100ED80080732B60FFF7D4FA054D04462B689A01FE
:100EE8003FF556AEFFF7CCFA001B0228F6D927E7E4
:100EF800004402580CFCFFFF012BAA6A286B3FF440
:100F0800A6AE02F00303A16A8B427FF4A0AEC2F33F
:100F18000512E36A9A427FF49AAE236BC0F3080283
:100F2800013B9A427FF493AE636BC0F34622013BC8
:100F38009A427FF48CAEA36BC0F30642013B9A42FF
:100F48007FF485AEE36BC0F30660013B98427FF403
:100F58007EAE6B6BA26CC3F3CC039A423FF418AE1F
:100F68002D4AD36A23F00103D362FFF789FA0546B5
:100F7800FFF786FAA842FBD0274AA16C536B6FF3A0
:100F8800CF0343EAC1035363D36A43F00103D36237
:100F9800FEE542F480221A601A6842F480321A6030
:100FA80076E51D4D41F288372B6F23F001032B673F
:100FB8002B6F23F004032B67FFF762FA064605E060
:100FC800FFF75EFA801BB8423FF6BAAE2B6F980760
:100FD800F6D4D9E5EB68226A23F07C5343EA02632E
:100FE800EB6023689BE50C4A136F43F0010313671A
:100FF8007DE6094A536823F0F84343F08043536081
:1010080023688CE542F004021A671A6F42F0010265
:101018001A676CE601207047004402583F4A13697A
:1010280003F03803102B4FD0182B0AD0002B4DD1CA
:10103800136899064CD513683948C3F3C103D840DF
:101048007047916A30B4946AD56A14F47C7F536B04
:10105800C4F3051036D0C3F3CC0305F0010501F045
:10106800030107EE900A05FB03F30129F8EEE77A7E
:1010780006EE903AFAEEE96A02D0022948D049B35E
:101088009FED287A87EE276A136BC3F3080307EEF0
:10109800103AF7EE005AB8EEC77A37EE267A37EEEE
:1010A800257A27EE067A1D4B1B6BC3F346230133C3
:1010B80007EE903AF8EEE76AC7EE267AFCEEE77A92
:1010C80017EE900A30BC70471748704717487047AA
:1010D8001348704713689B061DD51068F7EE005A31
:1010E800136B0F49C0F3C102C3F30803D14007EEE5
:1010F800103A06EE101AB8EEC77AB8EEC66A77EE5E
:10110800266A86EE277A76EEA57A27EE277ACAE748
:101118009FED077AB6E79FED077AB3E700440258D8
:101128000090D0030024744A40787D0100093D00F6
:1011380020BCBE4B0024744C002800F00E818D4A60
:10114800136803F00F038B422DE9F04104460D4666
:101158000CD2136823F00F030B431360136803F0DA
:101168000F038B4202D00120BDE8F08123685807A5
:101178000BD5814920698A6902F07002904204D92E
:101188008A6922F0700202438A6119070BD57A49ED
:101198006069CA6902F07002904204D9CA6922F0F3
:1011A80070020243CA61DA060BD57349A069CA699D
:1011B80002F4E062904204D9CA6922F4E062024370
:1011C800CA619F060BD56C49E0690A6A02F0700291
:1011D800904204D90A6A22F0700202430A629E070A
:1011E80003F0010240F1AB80634EE068B16901F0A1
:1011F8000F01884204D9B16921F00F010143B1619F
:10120800002A30D05C4AA168936923F470630B43C9
:10121800936161681368022900F0A180032900F036
:101228009880012900F0A1805F079CD5524E41F2B9
:101238008838336923F007030B433361FFF720F93C
:10124800074605E0FFF71CF9C01B404500F28B80FC
:101258003369626803F03803B3EBC20FF2D1236835
:101268009E0706D5E06844498A6902F00F02904259
:1012780069D340490A6802F00F02AA420AD90A68EB
:1012880022F00F022A430A600A6802F00F02AA42FB
:101298007FF469AF58070BD5374920698A6902F08E
:1012A8007002904204D28A6922F0700202438A6175
:1012B80019070BD530496069CA6902F0700290427B
:1012C80004D2CA6922F070020243CA61DA060BD559
:1012D8002949A069CA6902F4E062904204D2CA6945
:1012E80022F4E0620243CA619B060BD5224AE169F7
:1012F800136A03F07003994204D2136A23F070034F
:101308000B431362FFF78AFE1B4A03461B48916989
:101318009269C1F303211A4D02F00F02194C415C86
:10132800825C01F01F01184802F01F02CB400068E0
:101338002B60D3402360BDE8F041FFF73FB8002A97
:101348007FF460AF95E78A6922F00F0202438A6151
:101358008FE79A013FF56AAF05E7012070479803C8
:101368003FF564AFFFE60320FEE6DB053FF55EAF21
:10137800F9E600BF00200052004402581017000888
:101388000C00002008000020040000203049314AE9
:10139800D1F8883043F4700310B4C1F8883013686A
:1013A80003F00F03062B05D8136823F00F0343F04F
:1013B80007031360284B0024284A1968254841F080
:1013C800010119601C6119680A401A60036819074D
:1013D80005D5036823F00F0343F0070303601E4B92
:1013E80000221F491F48204C9A61DA611A629C62E8
:1013F800D86219635A639963DA6319645A6419687D
:101408001A4821F4802119601A6603686FF30F03E4
:10141800B3F1005F03D2164B0122C3F808210E4B2B
:10142800D3F8D420D2040FD4D3F8D42043F2D20076
:10143800104942F48052C3F8D4200860D3F8D4206D
:1014480022F48052C3F8D4205DF8044B704700BFE3
:1014580000ED00E000200052004402587FEDF6EA5B
:10146800800201010000FF01000202020010005C7E
:101478000080005100400052044AD36843F0020340
:10148800D36053689B04FCD5704700BF00480258DE
:10149800194B84B0D3F8E02042F00102C3F8E020F1
:1014A800D3F8E02002F001020092009AD3F8E0207D
:1014B80042F00402C3F8E020D3F8E02002F004026E
:1014C8000192019AD3F8E02042F08002C3F8E020AC
:1014D800D3F8E02002F080020292029AD3F8E020CA
:1014E80042F48072C3F8E020D3F8E03003F480734C
:1014F8000393039B04B0704700440258FEE700BF03
:10150800FEE700BFFEE700BFFEE700BFFEE700BF43
:10151800704700BF704700BF704700BFFEF7A4BF09
:10152800074B82B0D3F8F42042F00202C3F8F4204B
:10153800D3F8F43003F002030193019B02B0704723
:101548000044025810B59EB04C2200210AA800F0B1
:10155800C7F82022002102A800F0C2F80220FEF7F6
:1015680009FF244A0021244B0191916941F440412B
:101578009161916901F440410191D96A41F00101F9
:10158800D962DB6A03F001030193019B93699B0411
:10159800FCD501204FF4803102230022082419933E
:1015A8001A94CDE90A0105210AA81591C021CDE9AF
:1015B8001333CDE917331691CDE91B22FFF740FA13
:1015C800034608B172B6FEE73F21402204934FF468
:1015D80080630291032102A8079203910421CDE9B7
:1015E8000542CDE90832FFF7A7FD08B172B6FEE75C
:1015F8001EB010BD004802580004005800B5002471
:1016080087B00125CDE90144CDE90344FFF7CAF9C4
:1016180048F21F7240F2011301A8ADF80450049378
:10162800CDE90242FFF7DCF90420FFF7C9F9FEF71C
:10163800EBFEFFF787FFFFF72BFF4FF4807301A93D
:1016480013480193CDE90254CDE90444FEF736FF6F
:101658004FF4004301A90F48CDE90135CDE9034412
:101668000B4DFEF72BFF0B4C4FF480712846FFF70C
:101678002BF94FF4FA70FEF709FF20464FF40041AA
:10168800FFF722F94FF4FA70FEF700FFECE700BF0E
:10169800002002580008025870B50D4D0D4C641B0F
:1016A800A4100026A64209D10B4D0C4C00F020F8DE
:1016B800641BA4100026A64205D170BD55F8043B52
:1016C80098470136EEE755F8043B98470136F2E7AC
:1016D8002017000820170008201700082417000802
:1016E80002440346934200D1704703F8011BF9E70F
:1016F800F8B500BFF8BC08BC9E467047F8B500BFF7
:08170800F8BC08BC9E467047C6
:101710000000000001020304010203040607080997
:0417200001030008B9
:04172400D9020008DE
:1017280001000000100000000090D0030090D003DA
:0400000508000325C7
:00000001FF
