:020000040800F2
:1000000000500020790F0008054F0008094F000834
:100010000D4F0008114F0008154F000800000000A8
:10002000000000000000000000000000194F000860
:100030001D4F000800000000214F0008254F000858
:10004000C10F0008C10F0008C10F0008C10F000850
:10005000C10F0008C10F0008C10F0008C10F000840
:10006000C10F0008C10F0008C10F0008C10F000830
:10007000C10F0008C10F0008C10F0008C10F000820
:10008000C10F0008C10F0008C10F0008C10F000810
:10009000C10F0008C10F0008C10F0008C10F000800
:1000A000C10F0008C10F0008C10F0008C10F0008F0
:1000B000294F0008C10F0008C10F0008C10F000838
:1000C000C10F0008C10F0008C10F0008C10F0008D0
:1000D000C10F0008414F0008C10F0008C10F000800
:1000E000C10F0008C10F0008C10F00080000000088
:1000F0000000000000000000000000000000000000
:0C01000000000000000000005FF808F1A3
:10010C0081F0004102E000BF83F0004330B54FEABC
:10011C0041044FEA430594EA050F08BF90EA020F29
:10012C001FBF54EA000C55EA020C7FEA645C7FEABC
:10013C00655C00F0E2804FEA5454D4EB5555B8BFDF
:10014C006D420CDD2C4480EA020281EA030382EA50
:10015C00000083EA010180EA020281EA0303362DE2
:10016C0088BF30BD11F0004F4FEA01314FF4801CB5
:10017C004CEA113102D0404261EB410113F0004FC7
:10018C004FEA03334CEA133302D0524263EB43037E
:10019C0094EA050F00F0A780A4F10104D5F1200E1C
:1001AC000DDB02FA0EFC22FA05F2801841F1000177
:1001BC0003FA0EF2801843FA05F359410EE0A5F14B
:1001CC0020050EF1200E012A03FA0EFC28BF4CF07C
:1001DC00020C43FA05F3C01851EBE37101F0004532
:1001EC0007D54FF0000EDCF1000C7EEB00006EEB3F
:1001FC000101B1F5801F1BD3B1F5001F0CD34908C9
:10020C005FEA30004FEA3C0C04F101044FEA44521F
:10021C0012F5800F80F09A80BCF1004F08BF5FEAA6
:10022C00500C50F1000041EB045141EA050130BD86
:10023C005FEA4C0C404141EB0101013C28BFB1F598
:10024C00801FE9D291F0000F04BF01460020B1FAE3
:10025C0081F308BF2033A3F10B03B3F120020CDAB6
:10026C000C3208DD02F1140CC2F10C0201FA0CF094
:10027C0021FA02F10CE002F11402D8BFC2F1200CF9
:10028C0001FA02F120FA0CFCDCBF41EA0C019040AF
:10029C00E41AA2BF01EB0451294330BD6FEA0404F8
:1002AC001F3C1CDA0C340EDC04F11404C4F12002E3
:1002BC0020FA04F001FA02F340EA030021FA04F3F5
:1002CC0045EA030130BDC4F10C04C4F1200220FA4C
:1002DC0002F001FA04F340EA0300294630BD21FA8A
:1002EC0004F0294630BD94F0000F83F4801306BF50
:1002FC0081F480110134013D4EE77FEA645C18BF44
:10030C007FEA655C29D094EA050F08BF90EA020FDA
:10031C0005D054EA000C04BF1946104630BD91EAD2
:10032C00030F1EBF0021002030BD5FEA545C05D1D5
:10033C004000494128BF41F0004130BD14F5800414
:10034C003CBF01F5801130BD01F0004545F0FE4188
:10035C0041F470014FF0000030BD7FEA645C1ABFBD
:10036C00194610467FEA655C1CBF0B46024650EAF4
:10037C00013406BF52EA033591EA030F41F4002120
:10038C0030BD00BF90F0000F04BF0021704730B5A6
:10039C004FF4806404F132044FF000054FF000017B
:1003AC0050E700BF90F0000F04BF0021704730B53C
:1003BC004FF4806404F1320410F0004548BF404211
:1003CC004FF000013EE700BF42004FEAE2014FEA66
:1003DC0031014FEA02701FBF12F07F4393F07F4F41
:1003EC0081F06051704732F07F4208BF704793F044
:1003FC007F4F04BF41F40021704730B54FF4607457
:10040C0001F0004521F000411CE700BF50EA010259
:10041C0008BF704730B54FF000050AE050EA010202
:10042C0008BF704730B511F0004502D5404261EB72
:10043C0041014FF4806404F132045FEA915C3FF4B3
:10044C00D8AE4FF003025FEADC0C18BF03325FEA50
:10045C00DC0C18BF033202EBDC02C2F1200300FA01
:10046C0003FC20FA02F001FA03FE40EA0E0021FA26
:10047C0002F11444BDE600BF70B54FF0FF0C4CF414
:10048C00E06C1CEA11541DBF1CEA135594EA0C0FC6
:10049C0095EA0C0F00F0DEF82C4481EA030621EA01
:1004AC004C5123EA4C5350EA013518BF52EA03353C
:1004BC0041F4801143F4801338D0A0FB02CE4FF0EE
:1004CC000005E1FB02E506F00042E0FB03E54FF01E
:1004DC000006E1FB03569CF0000F18BF4EF0010E16
:1004EC00A4F1FF04B6F5007F64F5407404D25FEA12
:1004FC004E0E6D4146EB060642EAC62141EA5551C5
:10050C004FEAC52040EA5E504FEACE2EB4F1FD0C06
:10051C0088BFBCF5E06F1ED8BEF1004F08BF5FEA84
:10052C00500E50F1000041EB045170BD06F0004636
:10053C0046EA010140EA020081EA0301B4EB5C04E3
:10054C00C2BFD4EB0C0541EA045170BD41F48011DB
:10055C004FF0000E013C00F3AB8014F1360FDEBF00
:10056C00002001F0004170BDC4F10004203C35DADC
:10057C000C341BDC04F11404C4F1200500FA05F35F
:10058C0020FA04F001FA05F240EA020001F0004200
:10059C0021F0004110EBD37021FA04F642EB060176
:1005AC005EEA430E08BF20EAD37070BDC4F10C04A0
:1005BC00C4F1200500FA04F320FA05F001FA04F264
:1005CC0040EA020001F0004110EBD37041F1000150
:1005DC005EEA430E08BF20EAD37070BDC4F120055B
:1005EC0000FA05F24EEA020E20FA04F301FA05F2C3
:1005FC0043EA020321FA04F001F0004121FA04F26B
:10060C0020EA020000EBD3705EEA430E08BF20EA3A
:10061C00D37070BD94F0000F0FD101F00046400074
:10062C0041EB010111F4801F08BF013CF7D041EAF6
:10063C00060195F0000F18BF704703F000465200FA
:10064C0043EB030313F4801F08BF013DF7D043EACB
:10065C000603704794EA0C0F0CEA135518BF95EA81
:10066C000C0F0CD050EA410618BF52EA4306D1D108
:10067C0081EA030101F000414FF0000070BD50EA27
:10068C00410606BF1046194652EA430619D094EAB1
:10069C000C0F02D150EA013613D195EA0C0F05D19B
:1006AC0052EA03361CBF104619460AD181EA0301EF
:1006BC0001F0004141F0FE4141F470014FF00000A7
:1006CC0070BD41F0FE4141F4780170BD70B54FF042
:1006DC00FF0C4CF4E06C1CEA11541DBF1CEA1355C2
:1006EC0094EA0C0F95EA0C0F00F0A7F8A4EB0504A4
:1006FC0081EA030E52EA03354FEA013100F088809B
:10070C004FEA03334FF0805545EA131343EA126363
:10071C004FEA022245EA111545EA10654FEA002618
:10072C000EF000419D4208BF964244F1FD0404F5D1
:10073C00407402D25B084FEA3202B61A65EB03052D
:10074C005B084FEA32024FF480104FF4002CB6EBEA
:10075C00020E75EB030E22BFB61A754640EA0C006A
:10076C005B084FEA3202B6EB020E75EB030E22BFAA
:10077C00B61A754640EA5C005B084FEA3202B6EBEB
:10078C00020E75EB030E22BFB61A754640EA9C00AA
:10079C005B084FEA3202B6EB020E75EB030E22BF7A
:1007AC00B61A754640EADC0055EA060E18D04FEA38
:1007BC00051545EA16754FEA06164FEAC30343EAD8
:1007CC0052734FEAC2025FEA1C1CC0D111F4801FA5
:1007DC000BD141EA00014FF000004FF0004CB6E79E
:1007EC0011F4801F04BF01430020B4F1FD0C88BF3D
:1007FC00BCF5E06F3FF6AFAEB5EB030C04BFB6EB48
:10080C00020C5FEA500C50F1000041EB045170BD3A
:10081C000EF0004E4EEA113114EB5C04C2BFD4EB67
:10082C000C0541EA045170BD41F480114FF0000EEB
:10083C00013C90E645EA060E8DE60CEA135594EA67
:10084C000C0F08BF95EA0C0F3FF43BAF94EA0C0F6A
:10085C000AD150EA01347FF434AF95EA0C0F7FF4DF
:10086C0025AF104619462CE795EA0C0F06D152EA33
:10087C0003353FF4FDAE1046194622E750EA410617
:10088C0018BF52EA43067FF4C5AE50EA41047FF428
:10089C000DAF52EA43057FF4EBAE12E74FEA41028B
:1008AC0012F5001215D211D56FF47873B3EB6252B6
:1008BC0012D94FEAC12343F0004343EA505311F0DD
:1008CC00004F23FA02F018BF404270474FF000006F
:1008DC00704750EA013005D111F0004008BF6FF0AD
:1008EC00004070474FF00000704700BF80F00040A0
:1008FC0002E000BF81F0004142001FBF5FEA4103EC
:10090C0092EA030F7FEA226C7FEA236C6AD04FEAEB
:10091C001262D2EB1363C1BFD21841404840414030
:10092C00B8BF5B42192B88BF704710F0004F40F4E2
:10093C00000020F07F4018BF404211F0004F41F4FE
:10094C00000121F07F4118BF494292EA030F3FD0CA
:10095C00A2F1010241FA03FC10EB0C00C3F12003DD
:10096C0001FA03F100F0004302D5494260EB40006C
:10097C00B0F5000F13D3B0F1807F06D340084FEAD7
:10098C00310102F10102FE2A51D2B1F1004F40EBCC
:10099C00C25008BF20F0010040EA03007047490034
:1009AC0040EB0000013A28BFB0F5000FEDD2B0FAD1
:1009BC0080FCACF1080CB2EB0C0200FA0CF0AABFF4
:1009CC0000EBC25052421843BCBFD0401843704792
:1009DC0092F0000F81F4000106BF80F40000013298
:1009EC00013BB5E74FEA41037FEA226C18BF7FEA6F
:1009FC00236C21D092EA030F04D092F0000F08BFB1
:100A0C000846704790EA010F1CBF0020704712F097
:100A1C007F4F04D1400028BF40F00040704712F1D6
:100A2C0000723CBF00F50000704700F0004343F03B
:100A3C00FE4040F4000070477FEA226216BF084671
:100A4C007FEA23630146420206BF5FEA412390EA34
:100A5C00010F40F4800070474FF0000304E000BF2A
:100A6C0010F0004348BF40425FEA000C08BF7047DB
:100A7C0043F0964301464FF000001CE050EA01029F
:100A8C0008BF70474FF000030AE000BF50EA0102B4
:100A9C0008BF704711F0004302D5404261EB4101A1
:100AAC005FEA010C02BF84460146002043F0B643C6
:100ABC0008BFA3F18053A3F50003BCFA8CF2083AEB
:100ACC00A3EBC25310DB01FA02FC634400FA02FCF4
:100ADC00C2F12002BCF1004F20FA02F243EB0200FB
:100AEC0008BF20F00100704702F1200201FA02FC5D
:100AFC00C2F1200250EA4C0021FA02F243EB020050
:100B0C0008BF20EADC7070474FF0FF0C1CEAD05293
:100B1C001EBF1CEAD15392EA0C0F93EA0C0F6FD054
:100B2C001A4480EA010C400218BF5FEA41211ED032
:100B3C004FF0006343EA501043EA5111A0FB01311E
:100B4C000CF00040B1F5000F3EBF490041EAD371F3
:100B5C005B0040EA010062F17F02FD2A1DD8B3F16F
:100B6C00004F40EBC25008BF20F00100704790F0DE
:100B7C00000F0CF0004C08BF49024CEA502040EA30
:100B8C0051207F3AC2BFD2F1FF0340EAC2507047F6
:100B9C0040F400004FF00003013A5DDC12F1190F34
:100BAC00DCBF00F000407047C2F10002410021FAA6
:100BBC0002F1C2F1200200FA02FC5FEA310040F1BE
:100BCC00000053EA4C0308BF20EADC70704792F037
:100BDC00000F00F0004C02BF400010F4000F013A6F
:100BEC00F9D040EA0C0093F0000F01F0004C02BF6A
:100BFC00490011F4000F013BF9D041EA0C018FE7D9
:100C0C000CEAD15392EA0C0F18BF93EA0C0F0AD0DE
:100C1C0030F0004C18BF31F0004CD8D180EA010004
:100C2C0000F00040704790F0000F17BF90F0004F9D
:100C3C00084691F0000F91F0004F14D092EA0C0F7F
:100C4C0001D142020FD193EA0C0F03D14B0218BF12
:100C5C00084608D180EA010000F0004040F0FE4058
:100C6C0040F40000704740F0FE4040F440007047F4
:100C7C004FF0FF0C1CEAD0521EBF1CEAD15392EA73
:100C8C000C0F93EA0C0F69D0A2EB030280EA010C63
:100C9C0049024FEA402037D04FF0805343EA1111FC
:100CAC0043EA10130CF000408B4238BF5B0042F15A
:100CBC007D024FF4000C8B4224BF5B1A40EA0C00FF
:100CCC00B3EB510F24BFA3EB510340EA5C00B3EB31
:100CDC00910F24BFA3EB910340EA9C00B3EBD10F1F
:100CEC0024BFA3EBD10340EADC001B0118BF5FEA71
:100CFC001C1CE0D1FD2A3FF650AF8B4240EBC2509A
:100D0C0008BF20F0010070470CF0004C4CEA50205A
:100D1C007F32C2BFD2F1FF0340EAC250704740F4A9
:100D2C0000004FF00003013A37E792F0000F00F09B
:100D3C00004C02BF400010F4000F013AF9D040EA19
:100D4C000C0093F0000F01F0004C02BF490011F4AD
:100D5C00000F013BF9D041EA0C0195E70CEAD153A5
:100D6C0092EA0C0F08D142027FF47DAF93EA0C0F8C
:100D7C007FF470AF084676E793EA0C0F04D14B0270
:100D8C003FF44CAF08466EE730F0004C18BF31F022
:100D9C00004CCAD130F000427FF45CAF31F000431C
:100DAC007FF43CAF5FE700BF4FF0FF3C06E000BFB5
:100DBC004FF0010C02E000BF4FF0010C4DF804CDD8
:100DCC004FEA40024FEA41037FEA226C18BF7FEAE8
:100DDC00236C11D001B052EA530C18BF90EA010FEA
:100DEC0058BFB2EB030088BFC81738BF6FEAE17079
:100DFC0018BF40F0010070477FEA226C02D15FEA15
:100E0C00402C05D17FEA236CE4D15FEA412CE1D080
:100E1C005DF8040B704700BF844608466146FFE747
:100E2C000FB5FFF7C9FF002848BF10F1000F0FBD29
:100E3C004DF808EDFFF7F4FF0CBF012000205DF822
:100E4C0008FB00BF4DF808EDFFF7EAFF34BF0120A7
:100E5C0000205DF808FB00BF4DF808EDFFF7E0FF40
:100E6C0094BF012000205DF808FB00BF4DF808ED91
:100E7C00FFF7D2FF94BF012000205DF808FB00BFF4
:100E8C004DF808EDFFF7C8FF34BF012000205DF8D6
:100E9C0008FB00BF4FEA4002B2F1FE4F0FD34FF0F8
:100EAC009E03B3EB12620DD94FEA002343F00043CB
:100EBC0010F0004F23FA02F018BF404270474FF079
:100ECC000000704712F1610F01D1420205D110F000
:100EDC00004008BF6FF0004070474FF000007047B3
:100EEC000348044B834202D0034B03B118477047AD
:100EFC008400002084000020000000000548064B00
:100F0C001B1AD90F01EBA301491002D0034B03B1FB
:100F1C001847704784000020840000200000000067
:100F2C0010B5064C237843B9FFF7DAFF044B13B125
:100F3C000448AFF300800123237010BDA0000020F3
:100F4C0000000000C873000808B5054B1BB105492B
:100F5C000548AFF30080BDE80840FFF7CFBF00BFE6
:100F6C0000000000A4000020C873000803F03CFF40
:100F7C000B480C490C4A002302E0D458C4500433EB
:100F8C00C4188C42F9D3094A094C002301E01360C0
:100F9C000432A242FBD304F03FF904F00BF8704783
:100FAC00000000208400002010CB0008A0000020CE
:100FBC00E0180020FEE7000000207047002070477A
:100FCC00704700BF10B501234FF0FF34844686B044
:100FDC000DF11701009100227821CDE9013403486D
:100FEC008DF817C002F0A0FC06B010BDE81600206A
:100FFC0070B50C4606464FF0FF3584B0A4B2012301
:10100C0040227821CDE900640295024802F08CFC64
:10101C0004B070BDE816002004F03AB804F082B8B1
:10102C0070B50024002000F00BFB25460022214661
:10103C00284600F015FC2E4624B900F0F5FA0138CC
:10104C00A8422DDC00F0F0FA0138B0421CD000F0C0
:10105C00F1FA0138A0421FD0013CE4B20122214632
:10106C00284600F0FDFB00F0F9FA002DDED194B318
:10107C0000222146104600F0F3FB00F0D5FA0026C2
:10108C000138B0423546E2D100F0D4FA0138A04222
:10109C00DDDD0134E4B2E1E79DB1013DEDB2DDE708
:1010AC000135EDB201220021284600F0D9FB00F0F9
:1010BC00D5FA85B100222846114600F0D1FB2E4608
:1010CC00BBE7013CE4B201222146284600F0C8FBF4
:1010DC0000F0C4FACBE74FF47A70BDE8704003F02F
:1010EC00D7BF00BF10B5012482B0002000F0A8FAD1
:1010FC000021022000F002FD144B00940ECB14488A
:10110C0000F0DEFC1A21022000F0F8FC114B0094D8
:10111C000ECB114800F0D4FC2C21022000F0EEFC88
:10112C000E4B00940ECB0E4800F0CAFC3621022068
:10113C0000F0E4FC0B4B00940ECB0B4800F0C0FC11
:10114C0002B0BDE8104000F089BA00BF0874000876
:10115C0090BF000814740008A0BF00082074000899
:10116C00ACBF00082C740008B8BF000830B50020D4
:10117C0083B000F065FA04210125114C084600F0FB
:10118C00BDFC94E80E0000950E4800F099FC182167
:10119C00042000F0B3FC94E80E0000950A4800F01F
:1011AC008FFC2C21042000F0A9FC94E80E00009583
:1011BC00064800F085FC03B0BDE8304000F04EBAA4
:1011CC00F0730008DCBF0008ECBF0008FCBF00088F
:1011DC002DE9F043012097B000F032FA03F0B0FE95
:1011EC000026384B384D03AF804693E8070087E85C
:1011FC0007000021022000F081FC95E80E00334826
:10120C00009600F05DFC2421022000F077FC95E8AC
:10121C000E002F48009600F053FCB146122102201C
:10122C0000F06CFC95E80E003846CDF8009000F00C
:10123C0047FC00F013FA9DF80C400A220DF10D0149
:10124C00384604F05FF98DF8164003F079FE41F250
:10125C008733A0EB08049C4206F10106DED941F26B
:10126C00883003F015FF3046FFF7FAFBFFF7ACF8B8
:10127C00064620460F46FFF785F80022154BFFF770
:10128C0025FA02460B4630463946FFF71FFAFFF7A0
:10129C0005FB114A0346402106A804F04FFC01202F
:1012AC0000F0CEF90221084600F028FC95E80E006B
:1012BC0006A8CDF8009000F003FC00F0CFF917B0B1
:1012CC00BDE8F0832CC00008147400080CC00008A2
:1012DC0018C0000800408F4024C000082DE9F041E0
:1012EC000125294C294E82B00021022000F006FC79
:1012FC0094E80E00264F3046009500F0E1FB1421D7
:10130C00022000F0FBFB94E80E00DFF888803846E2
:10131C00009500F0D5FB2821022000F0EFFB94E8AB
:10132C000E004046009500F0CBFB0021422000F05F
:10133C00E5FB94E80E004046009500F0C1FB14213B
:10134C00422000F0DBFB94E80E003846009500F0DC
:10135C00B7FB2821422000F0D1FB94E80E00304668
:10136C00009500F0ADFB3F2300211A46084601F022
:10137C00F5FA3C237D223A21022001F0EFFA02B06B
:10138C00BDE8F04100F06AB91474000838C00008D8
:10139C0040C0000844C00008F0B5002440250127D7
:1013AC0083B0012000F04CF921468023164A2046D8
:1013BC00CDE9005401F03CFB144E00F04FF940F61F
:1013CC00B83003F065FE204600F03AF932462B4661
:1013DC0021462020CDE9005701F02AFB00F03EF910
:1013EC0040F6B83003F054FE384600F029F92020BE
:1013FC002B46324621460194009501F019FB03B0AF
:10140C00BDE8F04000F02AB9D8C20008D8C00008E6
:10141C00F0B5012687B000224021802000F0CCF9E5
:10142C00FFF7D6FE40F6B83003F032FEFFF7F8FDBA
:10143C00FFF758FE40F6B83003F02AFE764C002039
:10144C0000F0FEF80421002000F058FB94E80E0098
:10145C007248009600F034FB2421002000F04EFB73
:10146C0094E80E006E48009600F02AFB3E23702292
:10147C003C216020009601F0B1F900F0EFF840F645
:10148C00B83003F005FEFFF771FE40F6B83003F0FC
:10149C00FFFD002000F0D4F8002400F0C5F8451E34
:1014AC0000F0C8F8671C2D1B431EFFB21B1BEDB2CE
:1014BC0005342A46394638460096DBB2E4B201F0D0
:1014CC006BF9192CE9D100F0C9F800F0ADF804461D
:1014DC0000F0B0F80121621E431EDBB20846D2B206
:1014EC00009600F011FB00F09FF8044600F0A2F803
:1014FC000122013C431E1146DBB2E0B2009600F023
:10150C0003FB00F0ABF840F6B83003F0C1FD00204F
:10151C0000F096F82323412201211F20009601F0B0
:10152C005DF93C2346222D210A20009601F056F944
:10153C002D2364220A214B20009601F04FF900253F
:10154C003723502218461E21009501F047F900F070
:10155C0085F840F6B83003F09BFD284600F070F893
:10156C00FFF7BCFE40F6B83003F092FD284600F0C1
:10157C0067F82C4B02AC0FCB07C40122072102A841
:10158C00238000F0CFFB00F069F840F6B83003F090
:10159C007FFD284600F054F84FF487741E22142364
:1015AC0011461046CDE9004600F0D6FB1E230A2258
:1015BC0037215020CDE9004600F09EFC00F04EF89B
:1015CC0040F6B83003F064FD284600F039F81E24CC
:1015DC002046143401230A220F21E4B200F0ACFDA2
:1015EC00822CF5D10F242046173401230A222821FE
:1015FC00E4B200F0D7FF822CF5D100F02FF840F6C2
:10160C00B83003F045FDFFF7C7FE40F6B83007B021
:10161C00BDE8F04003F03CBDFC730008C4BF0008FB
:10162C00D0BF0008E0730008014B1888704700BF5A
:10163C00BC000020014B5888704700BFBC00002044
:10164C000146003918BF0121034B4942C9B2D3E905
:10165C00020201F03DBB00BFBC00002038B50E4CAF
:10166C006388DB0817D00025A5F15000A36AC0B22F
:10167C0098470020A36A98471020A36A98472188AE
:10168C00A068236B05FB0100984701356388EDB218
:10169C00B5EBD30FE8D338BDBC00002010B5454CDA
:1016AC00E36A9847236A64209847A37D23B10022FC
:1016BC00AE20A36AA27598472020A36A9847002001
:1016CC00A36A9847B020A36A9847C020A36A98479A
:1016DC000020A36A98471020A36A98474020A36A69
:1016EC0098478120A36A9847FF20A36A9847A020B7
:1016FC00A36A98470122A720A36A2275984763889A
:10170C00802B0CBFFF20A820A36A98476388202B4E
:10171C0047D0402B01D0802B41D13F20A36A984762
:10172C00A420A36A9847D320A36A98470020A36AF1
:10173C009847D520A36A9847F020A36A9847D920E8
:10174C00A36A98472220A36A9847A36ADA2098478D
:10175C006388202B29D0402B01D0802B1FD1122045
:10176C00A36A9847DB20A36A98472020A36A98476E
:10177C008D20A36A9847A36A14209847A37D012B58
:10178C0004D00122AF20A36AA2759847D4E90202C3
:10179C00002101F09DFAFFF761FF002010BD02202F
:1017AC0010BD1F20A36A9847BAE70220A36A984786
:1017BC00D8E700BFBC00002038B500241F4B204DDB
:1017CC0023F8040C01FB00F05D611E4DC3E90344DA
:1017DC009D611D4D1C605C60C0101C1F9D621A70C9
:1017EC0061801A4A1A491B4BE0601B48C4E9082364
:1017FC00A0622163FFF7E0FB054608B1284638BD1F
:10180C0001F030FA2846E16801F0AAFA98B1A0601C
:10181C00FFF744FF054648B901232061FF21A0686A
:10182C00E268637501F054FA284638BD0B4804F0A1
:10183C00CBF8284638BD0925E0E700BFC0000020E2
:10184C00C50F0008C90F0008CD0F000825100008AF
:10185C00FD0F000829100008D10F00084CC000082B
:10186C0030B4144C2388984212D2B4F802C08C4580
:10187C000ED9257D75B17AB1CA0803FB020001228D
:10188C00A46801F00701235C8A4023EA0203235475
:10189C0030BC7047012AEFD1CA0803FB02000123B8
:1018AC00A26801F00701145C8B402343135430BC35
:1018BC00704700BFBC0000202DE9F04F87B006AC8C
:1018CC0004E90E00A0F12003DAB25E2A9DF84080F4
:1018DC0000F28880794A9DF80C50148A16880146CB
:1018EC00601986427EDB9DF80DB0508A56885844AC
:1018FC00864277DB059EBBF1000F69D00BFB03F32F
:10190C00B8F1010F03F10043049F03F1FF336DD0D5
:10191C004FF0000E4FF001090846CDE901B607EB78
:10192C00430A3AF802CF002D4BD000215FFA8EFB10
:10193C00CDF800E01AE0B64515D957889F4212D968
:10194C00147D1CB1B8F1000F00F0AB80DC080EFB6D
:10195C000464976803F007033E5D09FA03F326EA73
:10196C0003063E55148A01318D4228D0538A0CFA55
:10197C0001F75B4466183F04B2F800E0DBB2F6B244
:10198C00D9D4B645EFD957889F42ECD9147D002C99
:10199C007CD1B8FA88F46409DF080EFB07669768F7
:1019AC0003F0070317F806E009FA03F3002C72D1D1
:1019BC002EEA03030131BB558D42148AD6D1DDF8D2
:1019CC0000E0019B0EF1010E9E45AAD10146029E3C
:1019DC0016B10E4416F8205C08462B19138207B07A
:1019EC00BDE8F08F002007B0BDE8F08F4FF0000984
:1019FC008C46CDE900B607EB430737F802EF002D14
:101A0C003CD000215FFA89FA15E0584510D256886F
:101A1C009E420DD9147D0CBBDC080BFB04009468B2
:101A2C0003F00703265C08FA03F333432354148AA8
:101A3C000131A94222D0538A0EFA01F653446018A0
:101A4C003604B2F800B0DBB2C0B2DED45845EFD2E7
:101A5C0056889E42ECD9147D002CDDD1DC080BFBA2
:101A6C000400966803F00703345C08FA03F324EAD5
:101A7C00030401313454A942148ADCD1009B09F1CE
:101A8C0001099945B9D16146019EA1E7B8F100045D
:101A9C0018BF012480E74EEA030E07F806E0148A0B
:101AAC0061E7DC080EFB0464966803F00703375DFE
:101ABC0009FA03F33B433355148A54E7BC00002066
:101ACC0070B5054686B0007803AC84E80E009DF82E
:101ADC00286018B90DE015F8010F50B1009694E884
:101AEC000E00FFF7E9FE2B789842F4D0184606B0AA
:101AFC0070BD0023184606B070BD00BF014B1882A4
:101B0C0059827047BC0000202DE9F04FA2EB000E6B
:101B1C005E1ABEF1000F86EAE67AB8BFCEF1000E6F
:101B2C00AAEBE67A824294BF4FF0FF3601267C4C3A
:101B3C0083B0B4F800908B4294BF4FF0FF3B4FF052
:101B4C00010B4A459DF830500096AEEB0A0C17D2AB
:101B5C0066889E4214D9267D002E51D0002D51D07E
:101B6C000127DE0809FB0626D4F8089003F00708C5
:101B7C0007FA08F819F8067027EA080709F806703A
:101B8C00012D00F08F80002D4FD0CAF1000501957A
:101B9C0082424FEA4C0601EB0B0901D18B422CD04F
:101BAC002788CD08B84212D2B4F8028088450ED9E5
:101BBC0007FB0505012701F0070807FA08F8A768D5
:101BCC007F5D27EA0807D4F8088008F80570019DA6
:101BDC00B5EB4C0F04DA009DACEB0A0C2844C0B2F8
:101BEC00B645D5DDF4445FFA89F182424FEA4C06E2
:101BFC0001EB0B09D4D18B42D2D103B0BDE8F08FED
:101C0C00012DADD14FF00108DF0809FB0727D4F8EF
:101C1C00089003F0070608FA06F619F80780012D5C
:101C2C0046EA080609F807603CD0CAF1000882426F
:101C3C0001D18B42E1D02588A84213D266888E420E
:101C4C0010D9267D06B34FF00109CE0805FB060618
:101C5C00A76801F0070509FA05F517F8069045EA9B
:101C6C000905BD55B8EB4C0F4FEA4C0504DA009E44
:101C7C00ACEB0A0C3044C0B2AE45D8DD59448242BC
:101C8C00F444C9B2D5D0D6E7CE0805FB060501262B
:101C9C00A76801F0070906FA09F97E5D26EA09062C
:101CAC007E55DFE7CAF10008904201D19942A4D0D9
:101CBC002588A84213D266888E4210D9267D06BB91
:101CCC004FF00109CE0805FB0606A76801F00705D1
:101CDC0009FA05F517F8069045EA0905BD55B8EB64
:101CEC004C0F4FEA4C0504DA009EACEB0A0C304466
:101CFC00C0B2AE45D8DD59449042F444C9B2D5D0F7
:101D0C00D6E7CE0805FB06050126A76801F00709F2
:101D1C0006FA09F97E5D26EA09067E55DFE700BF63
:101D2C00BC000020B0B1012914D9F0B50446174607
:101D3C008D1EADB283B000EB45052646E378A27844
:101D4C00617814F8020B0097FFF7DEFEB542F4D170
:101D5C0003B0F0BD704700BF2DE9F04F89B0BDF85E
:101D6C0048409DF84C50B4F5B47F049582468946A2
:101D7C0015460CD94FF4B4725C48E108A0FB010184
:101D8C00890802FB11418CB2002C00F0AA8022467B
:101D9C00B3F5B47F0CD94FF4B4765448D908A0FBF2
:101DAC000101890806FB11339BB2002B00F09B80CC
:101DBC004F4902EBC202A1FB03164C4BC2F35C026F
:101DCC00A3FB0232204694080594FEF745FE074615
:101DDC0007902046FEF740FE01463846FEF748FFC6
:101DEC00F608A642074606907DD23046FEF734FE32
:101DFC003946FEF789FE3F49FEF786FE044604F09D
:101E0C0085FB07462846FEF72BFE8046204604F04D
:101E1C005FFE834629E03046FEF71EFE0699FEF76C
:101E2C0073FE3449FEF770FE834604F06FFB0746E1
:101E3C00584604F04DFE41468346FEF765FEFFF71B
:101E4C0029F809EB0003DBB2414638460393FEF751
:101E5C005BFEFFF71FF80AEB00022046049C2946A4
:101E6C00039B0094D2B2FFF74FFE41463846FEF773
:101E7C004BFEFFF70FF859460AEB00044046FEF7FD
:101E8C0043FEFFF707F8059B013609EB0002B3424E
:101E9C00E4B2D5B2BFD117490798FEF735FE074615
:101EAC0004F034FB0646384604F012FE4146FEF7B9
:101EBC002BFEFEF7EFFF414681443046FEF724FE31
:101ECC00FEF7E8FF5FFA89F90AEB00024B46204661
:101EDC002946049CD2B2129409B0BDE8F04FFFF72A
:101EEC0013BE144654E709B0BDE8F08F176CC11649
:101EFC00CDCCCCCCA7E78E3C2DE9F04F8BB0BDF808
:101F0C0050609DF85440B6F5B47F059482468B46DC
:101F1C0015461C4600F2E2803046FEF79DFD814AD4
:101F2C0006EBC6035B08A2FB03239B08064607903F
:101F3C0018460393FEF790FD01463046FEF798FED7
:101F4C000690B4F5B47F00F2B380764B04EBC40674
:101F5C007608A3FB0636B6083046FEF77DFD014633
:101F6C000698FEF7D1FD7049FEF7CEFD044604F04D
:101F7C00CDFA80462846FEF773FD81464046494619
:101F8C00FEF7C2FDFEF786FF03465344DBB2204644
:101F9C00089304F09DFD074648463946FEF7B4FD0C
:101FAC00FEF778FF5844C3B20993039BB34240F247
:101FBC00B3803C4637462EE03846FEF74DFD069979
:101FCC00FEF7A2FD5849FEF79FFD064604F09EFA67
:101FDC00804648464146FEF797FDFEF75BFF0246FA
:101FEC0030460AEB020604F073FD044648462146CF
:101FFC00FEF78AFDFEF74EFFF6B20BEB0003294607
:10200C00DDE904053246DBB20095FFF77DFD039A4E
:10201C00974280F0848041464846FEF775FDFEF7F6
:10202C0039FF0AEB0005EBB2214648460493FEF754
:10203C006BFDFEF72FFF039A013758449742C5B248
:10204C00BAD139490798FEF75FFD064604F05EFAEF
:10205C0001464846FEF758FDFEF71CFF2C46054688
:10206C00304604F035FD01464846FEF74DFDFEF7BF
:10207C0011FF554421460BEB0004EDB2E4B2DDE94F
:10208C0004032A4600932346FFF73EFDDDE90823AF
:10209C00059E594650460096FFF736FD23462A46C4
:1020AC005946504614960BB0BDE8F04FFFF72CBDC7
:1020BC004FF4B4711B4AE308A2FB03039B0801FB1A
:1020CC001344A4B2F4B104EBC4046608A2FB0626C4
:1020DC00B6083046FEF7C0FC014641E74FF4B47237
:1020EC00104FF308A7FB03139B0802FB1366B6B251
:1020FC005EB1304606EBC606FEF7AEFC7308A7FBD6
:10210C00037312E7242609492AE724230393084B77
:10211C000693084B079314E700242546B6E735468B
:10212C001C46B3E7176CC116A7E78E3C00001042A3
:10213C00000020410000B4432DE9F04FCC4CB4F822
:10214C0000C0604580F0AF809B4663888B4240F2B4
:10215C00AA80C2F101035542BBF1010F4FF00009F7
:10216C004FEA4303EFB200F0C280A0EB070E5FFA18
:10217C008EFE5FFA89F25618F445F6B240F264818D
:10218C00B4F80280B0451ED994F81480B8F1000F51
:10219C0003D0BBF1000F00F093814FEAD6080CFB83
:1021AC0008EC4FF0010806F0070A08FA0AFAD4F80E
:1021BC00088018F80C8028EA0A08D4F808A00AF855
:1021CC000C80B4F800C000EB07085FFA88F88A1A94
:1021DC00E045D2B240D2B4F802A0564521D294F8D0
:1021EC0014A0BAF1000F03D0BBF1000F00F09481E2
:1021FC004FEAD60A0CFB0A8C4FF0010A06F00706D0
:10220C000AFA06F6D4F808A01AF80CA02AEA060A6C
:10221C00A66806F80CA0B4F800C0C4451CD9B4F8E4
:10222C0002A0924534D9267D1EB1BBF1000F00F0FF
:10223C003381D6080CFB06864FF0010CD4F80880CD
:10224C0002F0070A0CFA0AFA18F806C02CEA0A0C73
:10225C0008F806C0B4F800C0F44519D9668896424F
:10226C0016D9267D1EB1BBF1000F00F00381D608F4
:10227C000CFB06E64FF0010CD4F808E002F0070264
:10228C000CFA02FC1EF8062022EA0C020EF80620BC
:10229C00994580F2C8801A46AB4200F3BB801346C6
:1022AC00B4F800C061E7BDE8F08FD6080CFB06E679
:1022BC00D4F808E002F007021EF806C00BFA02F28E
:1022CC002CEA02020EF806209945C0F2968009F11C
:1022DC00010903EB490219EB050F02F1010200F0B1
:1022EC0054819D42C0F28D801346B4F800C0A0EB1F
:1022FC00070E5FFA8EFE5FFA89F25618E645F6B2C3
:10230C0080F0AC80B4F80280B04519D994F81480F0
:10231C00B8F1000F40F0EB804FEAD6080CFB08E850
:10232C00D4F808A006F0070C1AF808A00BFA0CFC5D
:10233C004CEA0A0CD4F808A00AF808C0B4F800C09B
:10234C0007EB00085FFA88F88A1AE045D2B238D257
:10235C00B4F802A056451DD294F814A0BAF1000F9F
:10236C0040F0EF804FEAD60A0CFB0A8CD4F808A098
:10237C0006F007061AF80CA00BFA06F646EA0A064F
:10238C00D4F808A00AF80C60B4F800C0C44518D9F9
:10239C00B4F802A0524597D2267D002E40F0E3807F
:1023AC00D6080CFB068CD4F8088002F0070618F847
:1023BC000CA00BFA06F646EA0A0608F80C60B4F80C
:1023CC0000C0E64580D2668896427FF67DAF267DBA
:1023DC00002E7FF46AAFD6080CFB06E6D4F808C0D2
:1023EC0002F007021CF806E00BFA02F242EA0E02B7
:1023FC0099450CF80620BFF66AAF9D421A46BFF607
:10240C0073AF0135012D3FF44EAF02EB4502531C67
:10241C00EFB26AE70135012D3FF445AF02EB4502FF
:10242C00531CEFB23CE709F1010903EB490219EB2C
:10243C00050F02F101027FF42FAFAB42EADC002D55
:10244C003FF42DAF0135E9E700EB07085FFA88F898
:10245C00C4457FF61DAF8A1AD2B2BCE607EB000862
:10246C005FFA88F8C4457FF62FAF8A1AD2B26FE7AD
:10247C00BC000020D6080CFB06E64FF0010C02F065
:10248C0007020CFA02F2D4F808C01CF806E042EA83
:10249C000E020CF80620FBE64FF0010AD6080CFBE6
:1024AC00068CD4F8088002F007060AFA06F618F82B
:1024BC000CA046EA0A0608F80C60B4F800C0CBE69B
:1024CC004FF0010A4FEAD6080CFB08E806F0070C9F
:1024DC000AFA0CFCD4F808A01AF808A04CEA0A0C6A
:1024EC00D4F808A00AF808C0B4F800C06BE64FEAAC
:1024FC00D6080CFB08ECD4F8088006F0070A18F88C
:10250C000C800BFA0AFA28EA0A08D4F808A00AF890
:10251C000C80B4F800C013E74FEAD60A0CFB0A8C07
:10252C004FF0010A06F007060AFA06F6D4F808A0DE
:10253C001AF80CA046EA0A06D4F808A00AF80C60AF
:10254C0069E64FEAD60A0CFB0A8CD4F808A006F010
:10255C0007061AF80CA00BFA06F62AEA060AA66871
:10256C0006F80CA010E7D6080CFB0686D4F80880F9
:10257C0002F0070A18F806C00BFA0AFA2CEA0A0C41
:10258C0008F806C0B4F800C01BE79D42FFF639AF4F
:10259C00002D3FF4A9AE013502EB4502531CEFB2FE
:1025AC00A3E600BF2DE9F04FDFF8E8C187B0BCF817
:1025BC0000400590844264D99846BCF802300E461F
:1025CC008B425ED9C2F1010351424FEA430BB8F181
:1025DC00000F72D000204FF0010A024633469818C3
:1025EC00C0B2A3EB020981453EDC059CA4EB010EB5
:1025FC005FFA8EFE0C44744536DCCDF810B09B4669
:10260C00CDE9022100F007050AFA05F5EE43EDB21B
:10261C0073467146CDF804E0AE46C708F6B2BCF876
:10262C0000209A4210D9BCF8025085420CD99CF873
:10263C00145015B9B8F1010F2ED007FB0211DCF8BC
:10264C0008506A5C32406A54013BDBB2A342194623
:10265C00E5DA0138C0B28145DDF804E0D2DDDDE910
:10266C0002215B46DDF810B05A451EDB01320BEB44
:10267C004200CA4200F1010019D0594504DB8346DF
:10268C00ADE707B0BDE8F08F01310129F9D000EBBF
:10269C00410000F1010BA2E707FB0211DCF8085026
:1026AC006A5C4EEA02026A54CEE75846E5E75945A1
:1026BC00EADB0029E3D00131E9E7034642464FF05B
:1026CC00010A30468418E4B2A0EB0209A14544DCAF
:1026DC00A3EB01085FFA88F85D18A8453DDBCDF83F
:1026EC000CB09B46CDE90121049004F007060AFAD0
:1026FC0006F6F743F6B24346414630464FEAD40E4F
:10270C00FFB209E0DCF80860725C02437254013BD2
:10271C00DBB2AB42194617DBBCF800209342F6D271
:10272C00BCF80260A642F2D99CF814600EFB0211B0
:10273C00002EE7D1DCF80860013B725CDBB23A405A
:10274C00AB4272541946E7DA013CE4B24C45CCDAA0
:10275C00DDE901215B46DDE903B05A450CDA5C4644
:10276C00594501DBA346ADE70131012989D004EBC2
:10277C00410404F1010BA5E701320BEB4204CA4200
:10278C0004F10104ECD15945EEDB0029EAD001310A
:10279C00EDE700BFBC0000202DE9F0411C460D46C2
:1027AC00804682B09DF820600B460096FFF7ACF98E
:1027BC002346294610460096FFF7A6F910462146F7
:1027CC0042460096FFF7A0F92B4621464046089654
:1027DC0002B0BDE8F041FFF797B900BF99428C46B3
:1027EC0028BF9C4699422DE9F0470C4638BF1C4641
:1027FC009042864628BF9646904238BF1046A44564
:10280C009DF8208031D8544AB8F1000F66D0B8F149
:10281C00010F32D04FF001085388634525D9864506
:10282C001DD80CF0070608FA06F6F64373464FEA75
:10283C00DC07F6B20FE0B2F80290E14508D907FBCD
:10284C000133D2F8089019F80310314009F803103D
:10285C00EBB2984203D311885D1C8B42EBD30CF185
:10286C00010C5FFA8CFC6445D6D2BDE8F0870CF104
:10287C00010C5FFA8CFC6445F7D353886345F4D99B
:10288C008645F4D80CF0070508FA05F5EE437346B7
:10289C004FEADC07EDB2F6B209E01AF8019045EA0E
:1028AC0009090AF801900133DBB29842DFD3118891
:1028BC008B42DCD2B2F80290E145F4D992F8149034
:1028CC0007FB0131D2F808A0B9F1000FE5D01AF8D6
:1028DC00019006EA09090AF80190E4E74FF00108B3
:1028EC0053886345C1D986452ED80CF0070508FAE4
:1028FC0005F5EE4373464FEADC07EDB2F6B209E09C
:10290C001AF8019045EA09090AF801900133DBB283
:10291C00984219D311888B4216D2B2F80290E14535
:10292C00F4D992F8149007FB0131D2F808A0B9F150
:10293C00000FE5D11AF801900133DBB206EA090960
:10294C0098420AF80190E5D20CF1010C5FFA8CFC6C
:10295C006445C5D2BDE8F087BC0000202DE9F041EC
:10296C00324CB4F800C062453ED265889D423BD9DA
:10297C00824239D38B4237D3DD08B5EBD10F4FEA06
:10298C00D10634D0904286464DD8DB43FF2001F06F
:10299C00070103F0070300FA01F71841FFB25FFAD1
:1029AC0080F806FB0CE3A068C15C7940C154218817
:1029BC000B4405FB01E18B4209D2A068C15CC94301
:1029CC00C154218805FB01E00B449842F5D8A0685E
:1029DC009645C15C0EF1010C88EA0101C15422D06C
:1029EC00E646B4F800C0DCE70120BDE8F0810CFB42
:1029FC0006FCDD430CEB0003FF2001F0070705F09C
:102A0C00070140FA01F19444B84001406345C9B252
:102A1C0009D8A568E85C4840E8542088013306FBD7
:102A2C0000209842F5D20020BDE8F081BC000020C7
:102A3C002DE9F04F8A4C85B0B4F800C09DF8387081
:102A4C0084459DF83C6055D9924662888A4251D99A
:102A5C00002F4FD0DA1D4FEAE209002B4AD0012E8D
:102A6C0005460F4400F0A0805FFA87FB002E44D08F
:102A7C004FF0000CCE466046012201F0070702FA27
:102A8C0007F7FF434FEAD109FFB20022CDE90297C5
:102A9C000AEB0C0801E0934227D012F0070FD6B2D4
:102AAC004FEA400006BFF00818F80000C0B2070655
:102ABC0002F10102EFD527882E44F6B2BE42EAD2CB
:102ACC00B4F802908945E6D9DDF80890934209FBE9
:102ADC000766D4F80890019619F80670039E07EA69
:102AEC000607019E09F80670D7D10131C9B25945C4
:102AFC00F444C1D105B0BDE8F08FB44600220AEB16
:102B0C000C0707E07600F6B216F0800F0BD10132FD
:102B1C0093422ED012F0070FD0B2F3D1C608BE5D8F
:102B2C0016F0800FF3D0B4F800E02844C0B286450C
:102B3C00EDD9B4F802808845E9D994F81480B8F13D
:102B4C00000F1CD04FEAD1080EFB08004FF0010813
:102B5C0001F0070E08FA0EFED4F80880013218F8BE
:102B6C00008093424EEA080ED4F8088008F800E082
:102B7C00D0D10131C9B25945CC44BFD1BAE74FEAE3
:102B8C00D1080EFB08004FF0010E01F007080EFAF9
:102B9C0008F8D4F808E01EF800E02EEA080ED4F885
:102BAC00088008F800E0B2E701960026B4465FFA08
:102BBC0087FBCDF8089000220AEB060802E00132F0
:102BCC00934233D012F0070FD7B24FEA4C0C06BF2A
:102BDC004FEAD70C18F80CC05FFA8CFC1CF0800F75
:102BEC00EDD0B4F800E02F44FFB27745E7D2B4F84B
:102BFC0002908945E3D9C8080390019801F00709B0
:102C0C0000FA09F094F81490B9F1000F17D14FEABB
:102C1C00D1090EFB0977D4F80890013219F807E0B6
:102C2C00934240EA0E0E09F807E0CBD10131029A2B
:102C3C00C9B259451644BED105B0BDE8F08F4FEA74
:102C4C00D1090EFB0977019801F0070900FA09F97F
:102C5C00A06810F807E02EEA090E00F807E0AEE7CE
:102C6C00BC00002070B50B4C861C04EB86034FF4A3
:102C7C00A07200210546586802F05EFC54F826004C
:102C8C004FF4A052002102F057FC01232C44237472
:102C9C0070BD00BF0000002000210B4B03EB800334
:102CAC00D868831E00F59F7033F8022F02B10131F2
:102CBC009842F9D1642202FB01F1044BA3FB0130D1
:102CCC00C0F3C710704700BF00000020CDCCCCCCA7
:102CDC000AB102F031BC7047F8B5204E07463318E4
:102CEC001B7C0D460BB93368984795B306EB8706EA
:102CFC00EA064FEA5514F5684FF000034FF09F02B7
:102D0C0018BF013405F5A07101E0013A21D331F867
:102D1C00020D013300B100239C42F6D1BCB1012C51
:102D2C00A1B219D0002005EB4203660861F30F0035
:102D3C0003EB860661F31F4043F8040B9E42FBD164
:102D4C00E30704D524F00104144425F814105001B1
:102D5C00F8BD4FF0FF30F8BD0024F5E7000000206F
:102D6C0010B50446FFF7B8FF431C05D0034B0234E3
:102D7C0053F82430184410BD002010BD0000002072
:102D8C002DE9F04F0C6885B0002C00F0AD80B34BF2
:102D9C00984200F0D7800022031D019301250F27D4
:102DAC00924613468346DFF8B88206E0013334FAC4
:102DBC0003F002F1040200F0978005FA03F030EA08
:102DCC00040C00EA0406F1D14C68122C00F2A0802D
:102DDC00122C16D8DFE814F0AF0013009800950100
:102DEC00150015001500150015001500150015002F
:102DFC001500150015001500150094009000D1F871
:102E0C000CA0FF2E99BF5C469446019CA2F1200CAD
:102E1C00206807FA0CFE20EA0E000AFA0CFC40EAC5
:102E2C000C0020604C68E00064D5D8F8180023F042
:102E3C00030C40F00100C8F81800D8F818000CF189
:102E4C00804C00F0010003900CF5803C03F003096A
:102E5C0003984FEA8909DCF8080007FA09FE20EA12
:102E6C000E0E8048834500F02C817F48834500F08E
:102E7C0039817E4883450CBF0320042000FA09F0F9
:102E8C0040EA0E00CCF80800DFF8E4C114F4801F0F
:102E9C00DCF8080014BF3043B043CCF80800DFF86E
:102EAC00D0C114F4001FDCF80C0014BF3043B04345
:102EBC00CCF80C00DFF8B8C114F4003FDCF80400C7
:102ECC0014BF3043B04314F4803F694CCCF8040079
:102EDC0020680CD0304320600C68013334FA03F0C6
:102EEC0002F104027FF469AF05B0BDE8F08F20EA6F
:102EFC00060020600C6859E7C86800F10C0A80E7EE
:102F0C00C86800F1040A7CE7C86800F1080A78E791
:102F1C00DFF860C164450ED000F2D980ACF5801C9E
:102F2C00644508D00CF5702C644504D0ACF5801CBD
:102F3C0064457FF466AF8C68002C40F0D9804FF06C
:102F4C00040A5EE74FF000096FF01F0501274FF0F0
:102F5C000F0E4B46DFF808C1DFF81C8105E001338A
:102F6C0034FA03F205F10405BED007FA03F232EA93
:102F7C00040A04EA0206F2D14C68122C00F2C48056
:102F8C00122C16D8DFE814F0D2001300DF00F40086
:102F9C00150015001500150015001500150015007D
:102FAC0015001500150015001500E300DB00D1F825
:102FBC000C90FF2E62D9AA46444622680EFA0AFBF0
:102FCC0022EA0B0209FA0AFA42EA0A0222604A6869
:102FDC00D40057D5DCF8184003F0030A44F0010480
:102FEC00CCF81840DCF818404FEA8A0A04F00104C7
:102FFC000394039C23F0030404F1804404F580340F
:10300C00D4F808B00EFA0AFA2BEA0A0AC4F808A097
:10301C00D40239D5DFF858A0DAF808403443CAF89E
:10302C00084094023AD5DFF848A0DAF80C40344353
:10303C00CAF80C4094033BD5DFF834A0DAF804400E
:10304C003443CAF804400A4C12F4803F22680CBF87
:10305C00B243324322600C6881E700BF0008014094
:10306C0000100240000C014000100140001401400F
:10307C0000040140000022100408014004464FEAFD
:10308C00830A9AE70C686AE7DFF8F0A0DAF80840E0
:10309C0024EA0604CAF808409402C4D4DFF8DCA081
:1030AC00DAF80C4024EA0604CAF80C409403C3D4A2
:1030BC00DFF8C8A0DAF8044024EA0604CAF8044091
:1030CC00C1E7012000FA09F040EA0E00DAE6DFF869
:1030DC00B0C064453FF42FAF0CF5803C64457FF4E1
:1030EC0090AE28E7022000FA09F040EA0E00C9E68B
:1030FC00012C4FF0080A0CBFCBF81000CBF81400D1
:10310C007FE64FF0000A7CE6DFF878A054450DD03E
:10311C0021D8AAF5801A544508D00AF5702A5445CE
:10312C0004D0AAF5801A54457FF443AF8C68E4B1FF
:10313C00012C154C1FD062614FF0080939E7CA68A1
:10314C0002F10C0935E7CA6802F1080931E7CA68CF
:10315C0002F104092DE7DFF828A05445E6D00AF562
:10316C00803A54457FF425AFE0E74FF0040920E79F
:10317C004FF000091DE72261DEE700BF00040140AB
:10318C0000003110000022100008014002B90904AF
:10319C0001617047C36801EA030221EA030141EAB5
:1031AC0002410161704700BF002868D010B590F84B
:1031BC003D30044603F0FF02002B48D00222216868
:1031CC00304B84F83D2099420A6845D0B1F1804FCC
:1031DC0010D0A3F5943399420CD003F58063994237
:1031EC0008D0E368A069CB62636822F080020243D6
:1031FC008B620FE0A36822F0700220691A4322F45C
:10320C004072A369024322F08002E0681A436368AB
:10321C00C8628B620123086840F0040008604B61AF
:10322C000A6084F8463084F83E3084F83F3084F8E5
:10323C00403084F8413084F8423084F8433084F8CC
:10324C00443084F8453084F83D30002010BD80F8BF
:10325C003C2001F033FEB1E722F07002D4E9020306
:10326C000243206922F440720243A069CB62636876
:10327C0022F080028B62636902430B63CAE7012070
:10328C00704700BF002C014090F83D30012B1FD13E
:10329C000222036880F83D20DA680E4942F00102F0
:1032AC008B42DA6009D0B3F1804F06D00A4A9342C0
:1032BC0003D002F58062934204D19A6802F00702AF
:1032CC00062A03D01A6842F001021A6000207047E7
:1032DC0001207047002C01400004004090F83C2075
:1032EC00012A6ED0034630B4012002241A6883F8F8
:1032FC003C0083F83D40946824F47F4424F0770428
:10330C0094600C68602C76D011D8402C5BD02ED8F1
:10331C00202C04D000F2888034F010011FD1916869
:10332C0021F07001214341F00701916016E0B4F5E2
:10333C00805F13D0B4F5005F33D0702C0FD1D1E97E
:10334C00015094682843CD6824F47F4140EA05205D
:10335C0008439060916841F0770191600020012151
:10336C00002283F83D1083F83C2030BC7047502C71
:10337C00F5D14868CC68116A21F00A010843116A3A
:10338C0021F001011162916921F0F00141EA04116F
:10339C0091611062916821F0700141F057019160C8
:1033AC00DCE7D1E9015094682843CD6824F47F41CF
:1033BC0040EA052008439060916841F48041916097
:1033CC00CCE7022070474868CC68116A21F00A01EA
:1033DC000843116A21F001011162916921F0F00199
:1033EC0041EA041191611062916821F0700141F081
:1033FC0047019160B2E74868CC68116A21F0A001DE
:10340C0041EA0011106A20F010001062906920F45B
:10341C00704040EA043090611162916821F07001B3
:10342C0041F06701916099E7302C3FF478AF96E753
:10343C00704700BF704700BF704700BF704700BFA8
:10344C00704700BF036870B5DE681D690446A907A4
:10345C0001D5B20751D4690701D572073AD42B07AD
:10346C0001D5300724D4EA0601D5F30610D4E807B9
:10347C0001D5F10757D42A0601D533065BD468066B
:10348C0001D571065FD4AA0601D5B30642D470BD2E
:10349C006FF0100108222368204619612277DB693E
:1034AC0013F4407F63D0FFF7C7FF00232377DEE7D9
:1034BC006FF0080104222368204619612277DB692A
:1034CC00990751D1FFF7B6FF2046FFF7B7FF00234E
:1034DC002377C8E76FF004010222236820461961A4
:1034EC0022779B6913F4407F3BD1FFF7A3FF204663
:1034FC00FFF7A4FF00232377B1E76FF002021A61F4
:10350C00012202779B699B0725D0FFF795FF0023CB
:10351C002377A0E76FF0200223682046BDE87040B7
:10352C001A6101F0C5BA6FF00102236820461A61D6
:10353C00FFF77EFF9FE76FF08002236820461A6139
:10354C0001F0B8FA9BE76FF04002236820461A613D
:10355C00FFF776FF97E7FFF76DFF2046FFF76EFF4B
:10356C00D5E7FFF769FFC5E7FFF766FFAFE7FFF7A2
:10357C0061FF2046FFF762FF97E700BF30B50446B6
:10358C00481C83B021D1236802E05A69550505D443
:10359C005A699207F9D5002003B030BD00216FF4B1
:1035AC00806520201A6842F400721A605D61216304
:1035BC0084F83D0084F83E10236C43F0040323642C
:1035CC000023012084F83C30E6E720684569034677
:1035DC00AD07E0D440694005E0D4CDE9001201F01C
:1035EC002FFA019A0099831A9942206801D3002975
:1035FC00ECD143699B07E9D400232022236384F890
:10360C003D2084F83E30236C13432364D8E700BF7D
:10361C002DE9F041056884B006460A9C2868984656
:10362C0040F48070631C1746286037D16C69E4073E
:10363C00FCD501F0FE01296130464FF0FF310B9AA9
:10364C00FFF79CFF18B1012004B0BDE8F08133688E
:10365C0003905A6903929A690392039A5A69100665
:10366C0042D45A695105F9D500226FF480602021AB
:10367C005861326386F83D1086F83E20326C42F079
:10368C00040232640021326C86F83C10042ADAD130
:10369C001A6842F400721A60D5E75CB16B69DB07FB
:1036AC0034D4019101F0CCF90B9B3568C31A9C42C0
:1036BC000199F2D26B69D807F0D40022202332632F
:1036CC0086F83D3086F83E20336C86F83C2043F07B
:1036DC00200333642B68DA0502D54FF4007333648E
:1036EC00032004B0BDE8F081B8F1010F08D03A0A0C
:1036FC001A615A69140603D45A695005F9D5B3E70F
:10370C000020FFB21F6104B0BDE8F08101F0FE01A2
:10371C002961304621460B9AFFF730FF002892D1E1
:10372C00336803905A6903929A690392039A5A690F
:10373C00150619D45A69520596D401F081F90B9BE0
:10374C00C31A9C42336801D3002CF0D15A6912F091
:10375C008002ECD12021326386F83D1086F83E20A1
:10376C00326C0A4332648DE7B8F1010FC8D03A0AC3
:10377C001A615A691206C3D45A6951053FF574AFE0
:10378C0001F05EF90B9BC31A9C42336801D3002CE9
:10379C00EFD15A6912F08002EBD1DBE7002800F080
:1037AC00B68038B590F83D30044603F0FF02002B8C
:1037BC0000F096802422236884F83D201A6822F0B9
:1037CC0001021A601A6842F400421A601A6822F464
:1037DC0000421A6000F092FF4E4A636893424DD843
:1037EC004D4A90427AD94D4D5A00A5FB0035431EE7
:1037FC00B3FBF2F340F6FC7C2268A80C5168013054
:10380C0021F03F0141EA95415160116A013321F0E9
:10381C003F0101431162D16913EA0C0F21F44F41AE
:10382C0021F0FF0161D104230B43D3611168D4E96A
:10383C00073021F0C00103430B4313609168D4E9B6
:10384C00030321F40341034321F0FF010B43936075
:10385C00D068D4E9053120F0FF000B430343D3605B
:10386C001368002143F0010313602023216484F8C2
:10387C003D30216384F83E10084638BD284A9042FA
:10388C002CD9264A274DA2FB002C4FF496724FEAF6
:10389C009C4102FB01F12268A5FB01515568890985
:1038AC0025F03F0545EA9C455560156A013125F028
:1038BC003F0529431162D169A56821F44F410138B4
:1038CC0021F0FF01A5B903EB4303B0FBF3F3013384
:1038DC00C3F30B03CBB143F40043A5E7012038BD80
:1038EC0080F83C2001F0E4F964E7C3F30B039BE799
:1038FC0003EB830303EB8303B0FBF3F30133C3F359
:10390C000B0313B143F440438EE701238CE70120F2
:10391C00704700BFA08601007F841E0083DE1B431E
:10392C00FF083D00D34D62102DE9F043044683B0EF
:10393C0098460E461746BDF82C9001F081F894F885
:10394C003D30202B04D00226304603B0BDE8F08376
:10395C000546206883699B0716D501F071F8401B5A
:10396C0019282068F6D98369DB4313F00203F1D1DF
:10397C002022236384F83D2084F83E3084F83C30C8
:10398C00236C13432364DEE794F83C30012BDAD02C
:10399C00012384F83C300368D90772D53A464FF0BE
:1039AC00210E4FF0400C002731460668434626F4A2
:1039BC00006606600A9860620C980195009084F885
:1039CC003DE084F83EC02764A4F82A90608D2085E1
:1039DC006348E0622046FFF71BFE064628BB228D9B
:1039EC002368002A00F0B6800C9A013261D15A6922
:1039FC0012061CD45A695705F9D500226FF4806061
:103A0C0020215861226384F83D1084F83E20226CFA
:103A1C0042F0040222640021226C84F83C10042A37
:103A2C0003D11A6842F400721A6001268CE7D4F8AC
:103A3C0024C0208D654615F8017B411E1F61628DE7
:103A4C0089B2013A92B262855F6965627D07218510
:103A5C0014D531B95A69550746D45A695005F9D568
:103A6C00CBE79CF8012002381A61628D81B2501E9E
:103A7C0080B20CF102026262218560850029B6D108
:103A8C00E8E7036843F00103036087E7606A278D6A
:103A9C00024612F801CB791EC3F810C06262628D27
:103AAC0089B2013A92B262855A692185520728D4AB
:103ABC0041B35A691106E9D45A6950059DD400F0F6
:103ACC00BFFF0C9A431B9A422CD223685A6912F0FE
:103ADC008002EED12021226384F83D1084F83E2030
:103AEC00226C0A43226496E7002120201A6842F4D3
:103AFC0000721A6084F83D0084F83C1084F83E1083
:103B0C0022E799B95A695207EED45A6951053FF523
:103B1C0074AF00F095FF0C9A431B9A4214D39AB1E0
:103B2C002368EFE7002AD0D02368C2E74278023F2F
:103B3C001A61628DB9B2013A023092B2606221858B
:103B4C0062850029B5D1DDE723685A6912F00402B9
:103B5C00D8D1BFE70C9A01323FF47CAFD2E700BF5B
:103B6C000000FFFF002865D070B590F84130044686
:103B7C0003F0FF02002B55D0D4E902262421236840
:103B8C0084F84110D968206921F40051A5690243D9
:103B9C006069D9601969024321F4405131431961BC
:103BAC00D968254821F4B05121F00C010A43DA60A0
:103BBC005A69834222F4407242EA05025A6136D0B5
:103BCC0000F09CFD626800EB8003920003EB830322
:103BDC00B3FBF2F34FF0640E00254FF0200C1748A6
:103BEC002168A0FB036252090EFB12331B01323316
:103BFC00A0FB0303120102EB53128A600B692846E7
:103C0C0023F490430B614B6923F02A034B61CB687F
:103C1C0043F40053CB60656484F841C084F842C01F
:103C2C00656370BD80F8402000F0E0FFA4E700F071
:103C3C0075FDC7E701207047003801401F85EB5127
:103C4C002DE9F843164690F84120202A55D10D460F
:103C5C0001B116B90120BDE8F8831F464FF00008EA
:103C6C0021230446C0F8448080F8413000F0E8FE7F
:103C7C00A3688146B3F5805FA684E68440D0E38CCC
:103C8C0022689BB2002B47D07B1C24D113681F06E3
:103C9C00FCD5002D2CD015F8013B5360E38C013B77
:103CAC009BB2E384E38C9BB2002BEFD113685906D3
:103CBC00FCD5202384F841300020BDE8F883002D8A
:103CCC003DD015F8013B5360E38C013B9BB2E38480
:103CDC00E38C9BB213B313681E06F0D400F0B0FE55
:103CEC00A0EB09039F4211D387B12268D368F2E796
:103CFC0038F8023BC3F30803CFE70220BDE8F88392
:103D0C002369002BBBD1A8461D46B8E7202384F8B5
:103D1C0041300320BDE8F883781CC7D013685B06DC
:103D2C00C7D400F08DFEA0EB09039F42EED3002F09
:103D3C00ECD02268D36813685B06F2D5B9E738F883
:103D4C00023BC3F30803BEE7704700BF704700BFD8
:103D5C00704700BF08B50023406AC385FFF7F8FF22
:103D6C0008BD00BF704700BF83680168B3F5805F72
:103D7C00826A42D0002B39D04B6803F07F0313705A
:103D8C00826A0132C38D8262013B9BB2C385002BD8
:103D9C0032D14FF0200C00B5026883B0D16821F00D
:103DAC002001D160D16821F48071D160516921F07A
:103DBC000101516180F842C04363016B012925D197
:103DCC00036302F10C0353E8003F23F0100302F1EC
:103DDC000C0C4CE800310029F3D11368DB061AD423
:103DEC00818DFFF7BFFF03B05DF804FB0369002B67
:103DFC00C2D14B68DBB2C2E770470369002BF8D124
:103E0C004B68C3F3080322F8023BBBE7FFF79EFFA6
:103E1C0003B05DF804FB002301931368019353680E
:103E2C000193019BDCE700BF30B5036804461A68B8
:103E3C0083B012F00F0FDD68596971D1910602D56C
:103E4C00A90600F1A480216B01290BD0100602D524
:103E5C00290600F1A680520602D5680600F1C08042
:103E6C0003B030BDD006F1D5E906EFD500210191A4
:103E7C001968A28D019159680191019959694D06F2
:103E8C0040F13C81E06B0168496889B2002900F07F
:103E9C006F81914280F06C81E1858169202936D057
:103EAC0003F10C0252E8002F22F4807203F10C058E
:103EBC0045E800210029F3D103F1140252E8002F48
:103ECC0022F0010203F1140545E800210029F3D189
:103EDC0003F1140252E8002F22F0400203F1140502
:103EEC0045E800210029F3D1202284F842202163E7
:103EFC0003F10C0252E8002F22F0100203F10C0522
:103F0C0045E800210029F3D100F08CFCA28D02239E
:103F1C006363E18D2046511A89B2FFF723FF9FE7B7
:103F2C0011F0010140F0CF8015F4907F8BD0D007B9
:103F3C000BD5E80540F1DE80606C40F00100606458
:103F4C0050075CD5002940F0C280900766D5100759
:103F5C0000F1CD80616C002982D0910609D5AA06AA
:103F6C0007D594F84220222A03D12046FFF7FCFE05
:103F7C0023685A69616C02F0400201F0080152EAB0
:103F8C00010555D12046FFF7E3FE656468E790F81C
:103F9C004230222B7FF464AF03B0BDE83040FFF712
:103FAC00E3BE94F84120212A7FF45AAFA168226A1B
:103FBC00B1F5805F00F0E480511C216212785A60E8
:103FCC00E28C013A92B2E284002A7FF449AFDA68BB
:103FDC0022F08002DA60DA6842F04002DA603FE7F1
:103FEC002021DA68204622F04002DA6084F8411081
:103FFC00FFF7AAFE34E7E8059ED4500767D4900774
:10400C000CD50029A3D0616C41F004016164110747
:10401C00A0D5616C41F0080161649BE7100799D54C
:10402C0005F020000843F4D1626C002AA1D117E7F7
:10403C0003F10C0252E8002F22F4907203F10C00F1
:10404C0040E800210029F3D103F1140252E8002FBB
:10405C0022F0010203F1140040E800210029F3D101
:10406C00226B012A22D00022202184F842102263E4
:10407C005A69550634D503F1140252E8002F22F088
:10408C00400203F1140040E800210029F3D1E06B59
:10409C0030B3414B436300F0E9FB00283FF4E0AE42
:1040AC00E06B436B03B0BDE83040184703F10C02E2
:1040BC0052E8002F22F0100203F10C0040E800211E
:1040CC000029F3D1CFE7D00795D450070CD5616CFC
:1040DC0041F002016164910795D4110799D439E735
:1040EC002046FFF735FEBBE691078CD4F5E7A90611
:1040FC008FD499E750073FF528AF80E7E08DE18D2D
:10410C0080B289B200293FF4ABAE121A91B20029E9
:10411C003FF4A6AE03F10C0252E8002F22F4907289
:10412C0003F10C0545E800200028F3D103F114023B
:10413C0052E8002F22F0010203F1140545E800209B
:10414C000028F3D1202284F84220206303F10C02D2
:10415C0052E8002F22F0100203F10C0545E8002074
:10416C000028F3D1022320466363FFF7FBFD77E6BB
:10417C0091427FF475AE8369202B7FF471AEF1E729
:10418C00216900297FF418AF32F8021BC1F3080132
:10419C005960226214E700BF613D0008002800F05E
:1041AC00E4812DE9F04103680446DD0782B035D582
:1041BC0099494A6802F00C02042A00F0ED804A6822
:1041CC0002F00C02082A00F0E3806368B3F5803F2C
:1041DC0010D0002B00F00A81B3F5A02F00F08081E5
:1041EC008D4B1A6822F480321A601A6822F48022ED
:1041FC001A6004E0884A136843F48033136000F0BB
:10420C001FFC854E054605E000F01AFC401B642897
:10421C0000F2E88033689A03F6D523689F0728D507
:10422C007D4A516811F00C0F00F09680516801F036
:10423C000C01082900F08C802369002B00F01681FA
:10424C000122764B744E1A6000F0FAFB054605E02D
:10425C0000F0F6FB401B022800F2C480336898077C
:10426C00F6D53368626923F0F80343EAC20333607E
:10427C0023681A0729D45D074BD5674BDA69D00040
:10428C0000F184800125DA6942F08052DA61DB6941
:10429C0003F080530093009B614E3368D90540F1C5
:1042AC009180E368012B00F0F280002B00F0BE80BF
:1042BC00052B594B1A6A00F0208122F001021A6278
:1042CC001A6A22F004021A62E6E0A369002B4CD0B1
:1042DC000122524B504EC3F8802400F0B1FB05462E
:1042EC0004E000F0ADFB401B02287BD8736A9B07EF
:1042FC00F7D54C4B4C4A1B68A2FB03235B0A01937A
:10430C0000BF019B5A1E0192002BF9D123685D0757
:10431C00B3D4E369C3B1404D6A6802F00C02082AB9
:10432C0000F0CD800022022B3C4B1A6600F0ED8091
:10433C0000F086FB044604E000F082FB001B022820
:10434C0050D82B689B01F7D4002002B0BDE8F08157
:10435C005268D6033FF570AF2F4A1268950725D5E2
:10436C002269012A22D00120EFE72C4A2A4EC2F8FA
:10437C00803400F065FB054604E000F061FB401B57
:10438C0002282FD8736A9F07F7D4BFE7002583E76D
:10439C004A68D0037FF519AF1F4A126891037FF565
:1043AC003DAF6268002A7FF439AFDCE71A496069D7
:1043BC000A6822F0F80242EAC0020A601A077FF586
:1043CC005AAF82E7336843F48073336000F038FBF4
:1043DC0007463368DA053FF564AF00F031FBC01BCC
:1043EC006428F6D9032002B0BDE8F0810A4D2B6891
:1043FC0023F480332B602B6823F480232B6000F094
:10440C001FFB064604E000F01BFB801B6428E9D868
:10441C002B689B03F7D400E70010024000004242D7
:10442C00007000401C000020D34D6210504E41F231
:10443C008838336A23F001033362336A23F00403B0
:10444C00336200F0FDFA074604E000F0F9FAC01BF5
:10445C004045C7D8336A9807F7D4002D3FF459AFBD
:10446C00434AD36923F08053D36152E7414A404E0B
:10447C00136000F0E5FA054604E000F0E1FA401B99
:10448C000228AFD833689907F7D42368F1E6384A85
:10449C00136A43F00103136200F0D2FA41F2883838
:1044AC000646334F04E000F0CBFA801B404599D808
:1044BC003B6A9B07F7D5002D3FF42BAFD0E7012BC0
:1044CC003FF451AF6B68226A03F4803191427FF460
:1044DC004AAF606A03F47013181A18BF012034E74E
:1044EC0003F18043A3F53C331A6842F480221A602E
:1044FC001A6842F480321A6081E642F004021A62B1
:10450C001A6A42F001021A62C6E700F099FA0646EE
:10451C0005E000F095FA801B02283FF663AF2B688C
:10452C009901F6D4236AB3F5803F05D16A68A16876
:10453C0022F400320A436A6001200D4D616A6A68F8
:10454C000B4322F474120B4913436B60086600F0A2
:10455C0077FA044605E000F073FA001B02283FF6D8
:10456C0041AF2B689A01F6D5EEE60120704700BFEB
:10457C000010024000004242002800F0A180564A80
:10458C002DE9F0411368044603F007038B420D46F6
:10459C000CD2136823F007030B431360136803F06A
:1045AC0007038B4202D00120BDE8F08123689E07EF
:1045BC0014D5580704D549494A6842F4E0624A6068
:1045CC00190704D545494A6842F460524A60434988
:1045DC00A0684A6822F0F00202434A60DA0720D54C
:1045EC0062683E4B012A1B686CD0022A65D09E077C
:1045FC00D9D53A4E41F28838736823F0030313433C
:10460C00736000F01DFA074604E000F019FAC01BB5
:10461C0040455AD87368626803F00C03B3EB820F01
:10462C00F3D12D4A136803F00703AB4209D9136881
:10463C0023F007032B431360136803F00703AB420B
:10464C00B1D12368580706D52449E0684A6822F49A
:10465C00E06202434A60190707D5204A2169536872
:10466C0023F4605343EAC10353601C494A6802F0C7
:10467C000C03082B10D01A4B184A1A4852681A49C6
:10468C00C2F30312805C194AC3400868136000F03F
:10469C0095F90020BDE8F0811548C2F38343D2039D
:1046AC00C35C14D50E484A6800FB03F31149C2F3EE
:1046BC0040428A5CB3FBF2F3DEE79F0199D472E7C8
:1046CC00012070479B0394D46DE703206CE70A4AE2
:1046DC0002FB03F3D0E700BF0020024000100240B1
:1046EC0000127A00F4C60008180000201C000020FC
:1046FC00DCC60008D8C6000800093D00044B054A7A
:10470C005B680549C3F30223CB5C1068D840704743
:10471C00001002401C000020ECC60008044B054AA7
:10472C005B680549C3F3C223CB5C1068D840704763
:10473C00001002401C000020ECC600084FF6FF0CD5
:10474C0006490302CA6803F4E06302EA0C0213434D
:10475C0043F0BF6343F40033CB60704700ED00E0DF
:10476C001B4B00B5DB68C3F30223C3F1070EBEF18C
:10477C00040F03F1040C28BF4FF0040EBCF1060F1C
:10478C001CD9A3F1030C4FF0FF3303FA0CF322EA0C
:10479C0003024FF0FF3303FA0EF321EA030303FA8B
:1047AC000CF313431B010028DBB20ADB00F1604061
:1047BC0000F5614080F800335DF804FB002294465C
:1047CC00E7E7044A00F00F00024413765DF804FB9F
:1047DC0000ED00E0FCEC00E0002807DB012300F01A
:1047EC001F01034A40098B4042F82030704700BF3C
:1047FC0000E100E00138B0F1807F01D30120704767
:10480C004FF0E0234FF0F00C0022072110B4044CC1
:10481C00586184F823C010469A6110BC1961704726
:10482C0000ED00E090F821200346022A06D0042275
:10483C009A630022012083F8202070474FF0010C6E
:10484C001A680020116821F00E011160116821F026
:10485C0001011160D3E90F120CFA02F24A60002236
:10486C0083F821C083F82020704700BF90F82120E6
:10487C000346022A03D0042201209A63704702687F
:10488C0010B511681B4821F00E01116011688242AD
:10489C0021F00101116022D017498A421DD0143138
:1048AC008A421ED014318A421ED014318A421ED044
:1048BC0014318A4214BF4FF080724FF480120120E1
:1048CC0000210E4C62605A6B83F8210083F8201093
:1048DC000AB118469047002010BD1022EFE70122C4
:1048EC00EDE74FF48072EAE74FF48052E7E74FF4BC
:1048FC008032E4E7080002401C0002400000024045
:10490C00002858D0F8B5436A0446002B44D0002345
:10491C00C0E90433002094F85130A06203F0FF0288
:10492C00002B3FD0D4E9013202264FF0010C0025B8
:10493C0002F4044203F482731343E26884F8516076
:10494C00266902F40062134306F0020633436669DB
:10495C00A169276A06EA0C063343E66907F0800E64
:10496C0001F4007706F038063B432268334343EAF0
:10497C000E0303431068090C01F0040120F0400001
:10498C00106013605160D369284623F40063D3612F
:10499C00656584F851C0F8BD4268B2F5827FB9D024
:1049AC00C361B7E7204684F8502000F0C9F8A06A2C
:1049BC0000F40050B6E70120704700BF38B54FF443
:1049CC007A730D4A054611780C4AB3FBF1F3126861
:1049DC00B2FBF3F0FFF70EFF08B90F2D01D9012040
:1049EC0038BD0446024629464FF0FF30FFF7B8FEAB
:1049FC00034B20461D6038BD140000201C00002015
:104A0C0018000020074A08B51368032043F0100370
:104A1C001360FFF793FE0F20FFF7D0FF00F04CF868
:104A2C00002008BD00200240034A044B11681B788B
:104A3C000B441360704700BF401600201400002088
:104A4C00014B1868704700BF4016002090F83C20BE
:104A5C00012A27D0034602201A6830B483F83D009F
:104A6C0050680C68104D20F070002043AA429468E6
:104A7C00506009D0B2F1804F06D00C48824203D06E
:104A8C0000F58060824204D1496824F080040C4314
:104A9C0094600022012183F83C2083F83D101046DD
:104AAC0030BC704702207047002C014000040040CD
:104ABC00704700BF704700BF0E4B82B09A690E4919
:104ACC0042F001029A619A6902F001020092009A86
:104ADC00DA6942F08052DA61DB6903F080530193AA
:104AEC00019B4B6823F0E06343F000734B6002B012
:104AFC00704700BF001002400000014038B5102183
:104B0C0000234FF482754FF480240A220A48C0E92E
:104B1C000153C0E90333C0E90534C0E90713C0E908
:104B2C000933064BC2620360FFF7EAFE00B938BDD9
:104B3C00BDE8384000F050BA481600200030014063
:104B4C00D0B50024194B026886B09A42CDE90244D4
:104B5C00CDE9044401D006B0D0BD03F560439A6999
:104B6C00B02642F480529A619A69022702F480526C
:104B7C000092009A9A6902A942F004029A619B6918
:104B8C000B4803F0040301930323019A0593CDE929
:104B9C000267FEF7F5F840220023054802A9CDE98B
:104BAC0002230494FEF7ECF806B0D0BD00300140AF
:104BBC000008014000234FF4E1310C2210B50948E4
:104BCC00094CC0E90113C0E90333C0E905230460B3
:104BDC00C361FEF7C7FF00B910BDBDE8104000F07F
:104BEC00FBB900BFA016002000380140D0B500244E
:104BFC001E4B026886B09A42CDE90244CDE90444CA
:104C0C0001D006B0D0BD03F558439A694FF4007635
:104C1C0042F480429A619A69022702F4804200921F
:104C2C00009A9A6902A942F004029A619B691048A1
:104C3C0003F0040301930323019A0593CDE9026762
:104C4C00FEF79EF800234FF4806202A90848CDE9D4
:104C5C0002230494FEF794F8224621462520FFF700
:104C6C007FFD2520FFF7B8FD06B0D0BD0038014010
:104C7C000008014000234FF4804210B509480A4C4B
:104C8C000A49C0E90233C0E90041C0E90423C0E984
:104C9C0006330362FEF782FD00B910BDBDE810407B
:104CAC0000F09AB9E816002000540040A0860100DC
:104CBC000023D0B5144A016886B09142CDE9023385
:104CCC00CDE9043301D006B0D0BD0322C026122793
:104CDC000E4C0F48A36902A943F00803A361A36912
:104CEC00CDE9026703F008030093009B0592FEF7E1
:104CFC0047F8E36943F40013E361E36903F4001339
:104D0C000193019B06B0D0BD00540040001002403E
:104D1C00000C0140002230B589B0CDE90422CDE968
:104D2C0006221D4B1D4D9C69284644F010049C61C5
:104D3C009C694FF4005104F010040094009C9C6991
:104D4C0044F020049C619C6904F020040194019CB3
:104D5C009C6944F004049C619C6904F00404029472
:104D6C00029C9C6944F008049C619B6903F0080355
:104D7C000393039BFEF70AFA002002214FF4005222
:104D8C000123CDE90601284604A9CDE90423FDF74A
:104D9C00F7FF09B030BD00BF001002400010014009
:104DAC000D49034610B50D4A0D4C0868121B20B175
:104DBC000344934207D80B6010BD0A4C20460344B1
:104DCC0093420C60F7D900F021FA0C2203464FF005
:104DDC00FF301A6010BD00BF3C17002000500020AF
:104DEC0000040000E0180020704700BF70B5161ECC
:104DFC0007DD0C468D19AFF3008004F8010BA542BA
:104E0C00F9D1304670BD00BF70B5161E07DD0C46DB
:104E1C008D1914F8010B00F0FFF8A542F9D13046BA
:104E2C0070BD00BF4FF0FF30704700BF4FF4005310
:104E3C0000204B60704700BF012070470020704776
:104E4C0010B500234FF08044462140F2E7321A4857
:104E5C0086B0CDE90333C0E90113C0E90323046034
:104E6C0002930093836105930193FEF79DF9B0B90A
:104E7C004FF48053104802A90293FEF72FFAC0B9E1
:104E8C000022002369460C48CDE90023FFF7DEFD24
:104E9C0060B90948FEF7F8F920B906B010BD00F06A
:104EAC009BF8E5E700F098F806B010BD00F094F818
:104EBC00EFE700F091F8E3E7401700200368B3F147
:104ECC00804F00D07047002200B503F50433D96938
:104EDC0083B041F00101D961DB691C2003F00103AF
:104EEC0001931146019BFFF73BFC1C2003B05DF8BE
:104EFC0004EBFFF771BC00BFFEE700BFFEE700BF8D
:104F0C00FEE700BFFEE700BFFEE700BF704700BF33
:104F1C00704700BF704700BFFFF786BD034A0448C7
:104F2C00136801331360FEF78DBA00BF8817002099
:104F3C00401700200148FEF777BF00BFA0160020E5
:104F4C00014B1868704700BF88170020002301220E
:104F5C0030B5012091B04FF480310224CDE90B33F0
:104F6C00CDE90233CDE90433089301930A920993F6
:104F7C004FF480324FF4E013CDE9060106A8CDE9D9
:104F8C000E230D94FFF70AF908B172B6FEE703463B
:104F9C000F254FF48062214601A8029403930593D8
:104FAC0001950492FFF7E8FA08B172B6FEE711B06A
:104FBC0030BD00BF08B5FFF725FDFFF7C7FFFFF7B2
:104FCC00A9FEFFF757FEFFF799FDFFF7F3FDFFF77B
:104FDC0037FF00F0EDF8FEE772B6FEE710B580B9CA
:104FEC000A4B5A785AB901221C785A700CB103201A
:104FFC0010BDFFF7DFFD2146054800F031F9002018
:10500C0010BD044800F0E0FC022010BD2000002080
:10501C0098C0000870C0000800B583B001904FF034
:10502C00FF33012201A90348FEF70AFE019803B0E1
:10503C005DF804FBA0160020114A1378012B1DD03B
:10504C0070B44FF0E0234FF0010C00266FF07F405E
:10505C0082F800C01E611A690A4D22F004021A611E
:10506C002A680949094CA1FB0212520D22601A69E7
:10507C0070BC42EA0C021A6158617047704700BF5D
:10508C008C1700201C00002083DE1B43901700208F
:10509C00F0B5204B1A78012A38D04FF0E0220126C7
:1050AC004FF0000E6FF07F441E70C2F810E01369D1
:1050BC00194F23F0040313613B681849184DA1FBE9
:1050CC0003135B0D2B6011693143116154614FF473
:1050DC007A724FF0E0214FF0000C03FB00FE4D699B
:1050EC0002FB0EFE8A698B699342FCD0A5EB030090
:1050FC0002EB0C04104405D2A4EB030CE64504D9D6
:10510C001A46F0E78444E645FAD8F0BD044B1B6818
:10511C00DDE700BF8C1700201C00002083DE1B4342
:10512C0090170020F0B51E4B1A78012A34D04FF09E
:10513C00E02201264FF0000E6FF07F441E70C2F883
:10514C0010E01369174F23F0040313613B681649F1
:10515C00164DA1FB03135B0D2B60116931431161DB
:10516C0054614FF0E0214FF0000C03FB00F04D694F
:10517C008A698B699A42FCD0A5EB030E0CEB0204F6
:10518C00F44405D9A4EB030C604504D91A46F0E7A6
:10519C0094446045FAD8F0BD044B1B68E1E700BFAE
:1051AC008C1700201C00002083DE1B43901700206E
:1051BC0008B5144800F008FCFFF73EFF0020FFF78D
:1051CC000DFFFCF725F9104C4FF400512046FDF76C
:1051DC00E1FF0020FCF734FAFCF740FA4FF4FA70C8
:1051EC00FFF756FF4FF400512046FDF7D3FF012087
:1051FC00FCF726FAFCF732FA4FF4FA70FFF748FF87
:10520C00E2E700BFBCC0000800100140014B186869
:10521C00704700BF2800002070B500260C4D0D4CC7
:10522C00641BA410A64209D102F0C8F800260A4D4E
:10523C000A4C641BA410A64205D170BD55F8043B62
:10524C0098470136EEE755F8043B98470136F2E7EC
:10525C0008CB000808CB000808CB00080CCB0008D2
:10526C000FB407B5064904AB086853F8042B8168E2
:10527C00019300F02FF803B05DF804EB04B0704715
:10528C0028000020936810B4013B002B936007DAD0
:10529C009469A34201DB0A2902D110BC00F00ABDBB
:1052AC001368581C10601970084610BC7047F8B58C
:1052BC0006460F461446D518AC4201D1002007E033
:1052CC003A46304614F8011BFFF7DCFF431CF3D1C0
:1052DC00F8BD00002DE9F04F0D46144698460646E1
:1052EC009DB018B1036A0BB900F010FC6B6ED907B6
:1052FC0005D4AB899A0502D4A86D00F07CF9AB8972
:10530C001B0701D52B699BB92946304600F01CF9C7
:10531C0070B16B6EDC0704D54FF0FF301DB0BDE8EB
:10532C00F08FAB899805F7D4A86D00F065F9F3E719
:10533C000023099320238DF8293030234FF00109E5
:10534C00CDF80C80DFF8A8818DF82A3023469A46D8
:10535C0013F8012B0AB1252AF9D1BAEB040B0BD0A7
:10536C005B46224629463046FFF7A1FF013000F08C
:10537C00A780099A5A4409929AF80030002B00F041
:10538C009F8000234FF0FF32CDE905230AF1010A7B
:10539C00049307938DF853301A935446052214F84E
:1053AC00011B534800F018FB049AD8B9D10644BF2E
:1053BC0020238DF85330130744BF2B238DF8533023
:1053CC009AF800302A2B15D0544600204FF00A0CC6
:1053DC00079A214611F8013B303B092B4BD9B0B150
:1053EC00079214E0A0EB080309FA03F31343A24657
:1053FC000493D2E7039B191D1B680391002BBBBFC1
:10540C005B4242F0020207930793B8BF04922378E1
:10541C002E2B0AD163782A2B32D1039B02341A1D0E
:10542C001B68039243EAE3730593DFF8C8A00322D9
:10543C005046217800F0D0FA38B14022049BA0EB02
:10544C000A00824013430134049314F8011B062212
:10545C0029488DF8281000F0BFFA00283FD0274BC0
:10546C001BBB039B073323F0070308330393099BF0
:10547C003B4409936AE70C4601200CFB0232A8E777
:10548C0000234FF00A0C194601340593204610F8FE
:10549C00012B303A092A03D9002BC6D00591C4E759
:1054AC00044601230CFB0121F0E703AB00932A46D1
:1054BC003046134B04A9AFF300800746781CD6D1B5
:1054CC006B6ED90705D4AB899A0502D4A86D00F090
:1054DC0093F8AB895B063FF51FAF09981EE703AB4A
:1054EC0000932A463046064B04A900F0F9F8E4E78D
:1054FC0004C700080AC700080EC700080000000017
:10550C00BB520008884210B501EB020402D9844258
:10551C00234607D8431EA14208D011F8012B03F8EB
:10552C00012FF8E7014602448A4200D110BD13F85E
:10553C00014D02F8014DF7E703460244934200D1B6
:10554C00704703F8011BF9E738B5294B0546186875
:10555C000C4618B1036A0BB900F0D8FAB4F90C3048
:10556C00190722D4DA0607D409222A6043F0400333
:10557C004FF0FF30A38133E0580712D5616B41B176
:10558C0004F14403994202D0284600F0FFFB0023AB
:10559C006363A38923F02403A3810023636023693D
:1055AC002360A38943F00803A38123694BB9A38922
:1055BC0003F42073B3F5007F03D02146284600F096
:1055CC0064FCB4F90C3013F001020AD00022A26082
:1055DC0062695242A261226942B913F08000C5D1BE
:1055EC0038BD990758BF6269A260F4E70020F7E75D
:1055FC00280000207047704770472DE9F047164689
:10560C0098468A680B6907469342B8BF13463360C5
:10561C0091F843200C46DDF820900AB10133336039
:10562C002368990642BF336802333360256815F04E
:10563C00060506D104F1190AE36832689B1AAB42DD
:10564C002BDC94F843302268003B18BF01239206F0
:10565C0030D44146384604F14302C847013023D0C8
:10566C002368226903F00603042B14BF002533685A
:10567C004FF0000608BFE56804F11A0408BFED1AE4
:10568C0054F8123C08BF25EAE5759342C4BF9B1A37
:10569C00ED18B5421AD1002008E0012352464146CC
:1056AC003846C847013003D14FF0FF30BDE8F087D2
:1056BC000135C1E73020E11881F843005A1C94F8F9
:1056CC0045102244023382F84310C2E701232246DC
:1056DC0041463846C8470130E6D00136D9E70000CC
:1056EC002DE9FF470F7E9146782F80460C469A464F
:1056FC000C9E01F1430207D8622F0AD8002F00F04C
:10570C00D180582F00F0B88004F1420684F8427022
:10571C003AE0A7F16303152BF6D801A151F823F059
:10572C0085570008995700081557000815570008A9
:10573C001557000815570008995700081557000809
:10574C0015570008155700081557000897580008FA
:10575C00C357000851580008155700081557000882
:10576C00B958000815570008C3570008155700080A
:10577C00155700085958000833681A1D1B68326009
:10578C0004F1420684F8423001239CE0336820681F
:10579C00191D3160060601D51D6803E04506FBD5D1
:1057AC00B3F90050002D03DA2D236D4284F84330F9
:1057BC000A23584811E021683368080653F8045B43
:1057CC0002D4490648BFADB26F2F336014BF0A2311
:1057DC0008235048002184F843106668002EA66008
:1057EC0005DB21682E4321F0040121604BD01646C5
:1057FC00B5FBF3F103FB1157C75D06F8017D2F468E
:10580C00BB420D46F4D9082B0BD12368DF0708D512
:10581C00236961689942DEBF302306F8013C06F12A
:10582C00FF36921B22614B4621464046CDF800A024
:10583C0003AAFFF7E2FE01304AD14FF0FF3004B06B
:10584C00BDE8F087236843F02003236078273248B3
:10585C0084F84570236831681F0651F8045B02D444
:10586C005F0648BFADB23160D90744BF43F0200397
:10587C0023601DB11023ADE72648E9E7236823F028
:10588C0020032360F6E71646BDE733682568181D2C
:10589C00616930602E061B6801D5196002E068064C
:1058AC00FBD51980002316462361BCE73368002121
:1058BC001A1D32601E686268304600F08DF808B11F
:1058CC00801B606063682361002384F84330AAE77F
:1058DC003246494640462369D0470130ADD0236853
:1058EC009B0713D4E068039B9842B8BF1846A6E701
:1058FC000123324649464046D04701309DD0013500
:10590C00E36803995B1AAB42F2DCEBE7002504F188
:10591C001906F5E715C7000826C70008036A70B515
:10592C0005460E4684680BB900F0F0F8636EDB0791
:10593C0005D4A389980502D4A06DFFF75CFEA3895A
:10594C00190702D52369002B35D121462846FFF7CC
:10595C00FBFD80B34FF0FF35636EDA0705D4A389E6
:10596C009B0502D4A06DFFF747FE284670BD002BA7
:10597C0004DAA2699A4217DC0A2915D023685A1C4A
:10598C0022601970A36816F8011F013BA36000295F
:10599C00EDD1002B11DA22460A21284600F08AF9B3
:1059AC000130D7D00A25D7E72246284600F082F9E5
:1059BC000130E7D1CEE7013EE4E723685A1C2260B0
:1059CC000A221A70EEE70000024B01461868FFF736
:1059DC00A5BF00BF28000020034610B5C9B2024481
:1059EC009342184601D1002003E0047801338C4225
:1059FC00F6D110BD002310B50446C0E90033C0E950
:105A0C000433836081814366C28183611946082215
:105A1C005C30FFF791FD0D4B246263620C4BA3626B
:105A2C000C4BE3620C4B23630C4B9C4206D003F1F2
:105A3C006802944202D0D0339C4205D104F1580044
:105A4C00BDE81040FFF7D6BD10BD00BFB55B000828
:105A5C00D75B00080F5C0008335C00089817002027
:105A6C00024A0349034800F007B900BF7800002040
:105A7C00BD6200082C00002041680C4B10B5994207
:105A8C00044601D000F014FCA168094B994202D0E5
:105A9C00204600F00DFCE168064B994204D02046EC
:105AAC00BDE8104000F004BC10BD00BF98170020EA
:105ABC00001800206818002010B50B4B0B4C0C4A3A
:105ACC0020461A6004210022FFF794FF04F16800BD
