:020000040800F2
:1000000000500020990100088D1D0008911D000876
:10001000951D0008991D00089D1D000800000000A6
:10002000000000000000000000000000A11D00080A
:10003000A51D000800000000A91D0008AD1D000856
:10004000E1010008E1010008E1010008E101000808
:10005000E1010008E1010008E1010008E1010008F8
:10006000E1010008E1010008E1010008E1010008E8
:10007000E1010008E1010008E1010008E1010008D8
:10008000E1010008E1010008E1010008E1010008C8
:10009000E1010008E1010008E1010008E1010008B8
:1000A000E1010008E1010008E1010008E1010008A8
:1000B000B11D0008E1010008E1010008E1010008AC
:1000C000E1010008E1010008E1010008E101000888
:1000D000E1010008C91D0008E1010008E101000874
:1000E000E1010008E1010008E10100080000000052
:1000F0000000000000000000000000000000000000
:0C01000000000000000000005FF808F1A3
:10010C000348044B834202D0034B03B1184770479A
:10011C007000002070000020000000000548064B15
:10012C001B1AD90F01EBA301491002D0034B03B1E9
:10013C00184770477000002070000020000000007D
:10014C0010B5064C237843B9FFF7DAFF044B13B113
:10015C000448AFF300800123237010BD7000002011
:10016C0000000000842E000808B5054B1BB10549A2
:10017C000548AFF30080BDE80840FFF7CFBF00BFD4
:10018C000000000074000020842E000801F070FDB7
:10019C000B480C490C4A002302E0D458C4500433D9
:1001AC00C4188C42F9D3094A094C002301E01360AE
:1001BC000432A242FBD301F0CFFE01F03FFE7047A8
:1001CC0000000020700000206C2F00087000002040
:1001DC00D0020020FEE700002DE9F04F0C6885B03E
:1001EC00002C00F0AD80B34B984200F0D780002279
:1001FC00031D019301250F27924613468346DFF812
:10020C00B88206E0013334FA03F002F1040200F084
:10021C00978005FA03F030EA040C00EA0406F1D1E9
:10022C004C68122C00F2A080122C16D8DFE814F0C7
:10023C00AF0013009800950115001500150015006E
:10024C0015001500150015001500150015001500FA
:10025C00150094009000D1F80CA0FF2E99BF5C46BD
:10026C009446019CA2F1200C206807FA0CFE20EAAF
:10027C000E000AFA0CFC40EA0C0020604C68E0000E
:10028C0064D5D8F8180023F0030C40F00100C8F82E
:10029C001800D8F818000CF1804C00F00100039005
:1002AC000CF5803C03F0030903984FEA8909DCF84C
:1002BC00080007FA09FE20EA0E0E8048834500F07C
:1002CC002C817F48834500F039817E4883450CBFE3
:1002DC000320042000FA09F040EA0E00CCF80800D4
:1002EC00DFF8E4C114F4801FDCF8080014BF3043BD
:1002FC00B043CCF80800DFF8D0C114F4001FDCF8D0
:10030C000C0014BF3043B043CCF80C00DFF8B8C17C
:10031C0014F4003FDCF8040014BF3043B04314F471
:10032C00803F694CCCF8040020680CD0304320602E
:10033C000C68013334FA03F002F104027FF469AF64
:10034C0005B0BDE8F08F20EA060020600C6859E784
:10035C00C86800F10C0A80E7C86800F1040A7CE761
:10036C00C86800F1080A78E7DFF860C164450ED070
:10037C0000F2D980ACF5801C644508D00CF5702CCB
:10038C00644504D0ACF5801C64457FF466AF8C6882
:10039C00002C40F0D9804FF0040A5EE74FF00009C2
:1003AC006FF01F0501274FF00F0E4B46DFF808C109
:1003BC00DFF81C8105E0013334FA03F205F1040582
:1003CC00BED007FA03F232EA040A04EA0206F2D1BA
:1003DC004C68122C00F2C480122C16D8DFE814F0F2
:1003EC00D2001300DF00F4001500150015001500F5
:1003FC001500150015001500150015001500150049
:10040C001500E300DB00D1F80C90FF2E62D9AA4650
:10041C00444622680EFA0AFB22EA0B0209FA0AFA8F
:10042C0042EA0A0222604A68D40057D5DCF8184028
:10043C0003F0030A44F00104CCF81840DCF818402F
:10044C004FEA8A0A04F001040394039C23F003048A
:10045C0004F1804404F58034D4F808B00EFA0AFA9A
:10046C002BEA0A0AC4F808A0D40239D5DFF858A040
:10047C00DAF808403443CAF8084094023AD5DFF859
:10048C0048A0DAF80C403443CAF80C4094033BD52E
:10049C00DFF834A0DAF804403443CAF804400A4CBC
:1004AC0012F4803F22680CBFB243324322600C68C6
:1004BC0081E700BF0008014000100240000C014021
:1004CC000010014000140140000401400000221003
:1004DC000408014004464FEA830A9AE70C686AE76D
:1004EC00DFF8F0A0DAF8084024EA0604CAF808405D
:1004FC009402C4D4DFF8DCA0DAF80C4024EA060439
:10050C00CAF80C409403C3D4DFF8C8A0DAF804404E
:10051C0024EA0604CAF80440C1E7012000FA09F0F5
:10052C0040EA0E00DAE6DFF8B0C064453FF42FAFC6
:10053C000CF5803C64457FF490AE28E7022000FA6D
:10054C0009F040EA0E00C9E6012C4FF0080A0CBF76
:10055C00CBF81000CBF814007FE64FF0000A7CE6D5
:10056C00DFF878A054450DD021D8AAF5801A54454F
:10057C0008D00AF5702A544504D0AAF5801A5445BF
:10058C007FF443AF8C68E4B1012C154C1FD0626131
:10059C004FF0080939E7CA6802F10C0935E7CA6857
:1005AC0002F1080931E7CA6802F104092DE7DFF806
:1005BC0028A05445E6D00AF5803A54457FF425AF7F
:1005CC00E0E74FF0040920E74FF000091DE7226136
:1005DC00DEE700BF000401400000311000002210D3
:1005EC000008014002B9090401617047C36801EABF
:1005FC00030221EA030141EA02410161704700BF95
:10060C00002868D010B590F83D30044603F0FF0286
:10061C00002B48D002222168304B84F83D209942AF
:10062C000A6845D0B1F1804F10D0A3F594339942AC
:10063C000CD003F58063994208D0E368A069CB62C3
:10064C00636822F0800202438B620FE0A36822F001
:10065C00700220691A4322F44072A369024322F00B
:10066C008002E0681A436368C8628B6201230868E1
:10067C0040F0040008604B610A6084F8463084F84E
:10068C003E3084F83F3084F8403084F8413084F8B0
:10069C00423084F8433084F8443084F8453084F890
:1006AC003D30002010BD80F83C2001F04BFBB1E741
:1006BC0022F07002D4E902030243206922F4407252
:1006CC000243A069CB62636822F080028B6263698B
:1006DC0002430B63CAE70120704700BF002C0140A6
:1006EC0090F83D30012B1FD10222036880F83D2089
:1006FC00DA680E4942F001028B42DA6009D0B3F19C
:10070C00804F06D00A4A934203D002F5806293428E
:10071C0004D19A6802F00702062A03D01A6842F044
:10072C0001021A600020704701207047002C014024
:10073C000004004090F83C20012A6ED0034630B4EF
:10074C00012002241A6883F83C0083F83D40946829
:10075C0024F47F4424F0770494600C68602C76D0E9
:10076C0011D8402C5BD02ED8202C04D000F28880DD
:10077C0034F010011FD1916821F07001214341F038
:10078C000701916016E0B4F5805F13D0B4F5005FFB
:10079C0033D0702C0FD1D1E9015094682843CD6827
:1007AC0024F47F4140EA052008439060916841F0B1
:1007BC007701916000200121002283F83D1083F81D
:1007CC003C2030BC7047502CF5D14868CC68116A7D
:1007DC0021F00A010843116A21F0010111629169AB
:1007EC0021F0F00141EA041191611062916821F04D
:1007FC00700141F057019160DCE7D1E90150946838
:10080C002843CD6824F47F4140EA052008439060DA
:10081C00916841F480419160CCE7022070474868B0
:10082C00CC68116A21F00A010843116A21F0010118
:10083C001162916921F0F00141EA04119161106299
:10084C00916821F0700141F047019160B2E748686E
:10085C00CC68116A21F0A00141EA0011106A20F065
:10086C0010001062906920F4704040EA04309061EE
:10087C001162916821F0700141F06701916099E774
:10088C00302C3FF478AF96E7704700BF704700BF3D
:10089C00704700BF704700BF704700BF036870B55A
:1008AC00DE681D690446A90701D5B20751D4690752
:1008BC0001D572073AD42B0701D5300724D4EA06A8
:1008CC0001D5F30610D4E80701D5F10757D42A0651
:1008DC0001D533065BD4680601D571065FD4AA0630
:1008EC0001D5B30642D470BD6FF010010822236805
:1008FC00204619612277DB6913F4407F63D0FFF740
:10090C00C7FF00232377DEE76FF00801042223687A
:10091C00204619612277DB69990751D1FFF7B6FFA1
:10092C002046FFF7B7FF00232377C8E76FF00401D9
:10093C00022223682046196122779B6913F4407FB9
:10094C003BD1FFF7A3FF2046FFF7A4FF002323773B
:10095C00B1E76FF002021A61012202779B699B07D3
:10096C0025D0FFF795FF00232377A0E76FF0200237
:10097C0023682046BDE870401A6101F039B86FF069
:10098C000102236820461A61FFF77EFF9FE76FF094
:10099C008002236820461A6101F02CF89BE76FF067
:1009AC004002236820461A61FFF776FF97E7FFF7AE
:1009BC006DFF2046FFF76EFFD5E7FFF769FFC5E730
:1009CC00FFF766FFAFE7FFF761FF2046FFF762FF17
:1009DC0097E700BF002800F0B68038B590F83D309E
:1009EC00044603F0FF02002B00F0968024222368BB
:1009FC0084F83D201A6822F001021A601A6842F449
:100A0C0000421A601A6822F400421A6000F074FE68
:100A1C004E4A636893424DD84D4A90427AD94D4D17
:100A2C005A00A5FB0035431EB3FBF2F340F6FC7CE9
:100A3C002268A80C5168013021F03F0141EA954130
:100A4C005160116A013321F03F0101431162D169F8
:100A5C0013EA0C0F21F44F4121F0FF0161D1042363
:100A6C000B43D3611168D4E9073021F0C001034373
:100A7C000B4313609168D4E9030321F4034103434E
:100A8C0021F0FF010B439360D068D4E9053120F0CD
:100A9C00FF000B430343D3601368002143F00103B1
:100AAC0013602023216484F83D30216384F83E10C8
:100ABC00084638BD284A90422CD9264A274DA2FB1D
:100ACC00002C4FF496724FEA9C4102FB01F1226814
:100ADC00A5FB01515568890925F03F0545EA9C4560
:100AEC005560156A013125F03F0529431162D16922
:100AFC00A56821F44F41013821F0FF01A5B903EBA2
:100B0C004303B0FBF3F30133C3F30B03CBB143F457
:100B1C000043A5E7012038BD80F83C2001F00CF81B
:100B2C0064E7C3F30B039BE703EB830303EB830340
:100B3C00B0FBF3F30133C3F30B0313B143F44043A2
:100B4C008EE701238CE70120704700BFA0860100CF
:100B5C007F841E0083DE1B43FF083D00D34D6210D3
:100B6C00002865D070B590F84130044603F0FF02C0
:100B7C00002B55D0D4E902262421236884F8411097
:100B8C00D968206921F40051A56902436069D960D4
:100B9C001969024321F4405131431961D968254840
:100BAC0021F4B05121F00C010A43DA605A698342F6
:100BBC0022F4407242EA05025A6136D000F09CFDE4
:100BCC00626800EB8003920003EB8303B3FBF2F348
:100BDC004FF0640E00254FF0200C17482168A0FB45
:100BEC00036252090EFB12331B013233A0FB0303C9
:100BFC00120102EB53128A600B69284623F49043CE
:100C0C000B614B6923F02A034B61CB6843F400530F
:100C1C00CB60656484F841C084F842C0656370BDE4
:100C2C0080F8402000F026FFA4E700F075FDC7E730
:100C3C0001207047003801401F85EB512DE9F84326
:100C4C00164690F84120202A55D10D4601B116B90F
:100C5C000120BDE8F8831F464FF00008212304460D
:100C6C00C0F8448080F8413000F08AFEA3688146C9
:100C7C00B3F5805FA684E68440D0E38C22689BB2F7
:100C8C00002B47D07B1C24D113681F06FCD5002DEC
:100C9C002CD015F8013B5360E38C013B9BB2E384F1
:100CAC00E38C9BB2002BEFD113685906FCD52023A3
:100CBC0084F841300020BDE8F883002D3DD015F8B4
:100CCC00013B5360E38C013B9BB2E384E38C9BB20E
:100CDC0013B313681E06F0D400F052FEA0EB090308
:100CEC009F4211D387B12268D368F2E738F8023BF0
:100CFC00C3F30803CFE70220BDE8F8832369002B78
:100D0C00BBD1A8461D46B8E7202384F84130032008
:100D1C00BDE8F883781CC7D013685B06C7D400F015
:100D2C002FFEA0EB09039F42EED3002FECD02268DC
:100D3C00D36813685B06F2D5B9E738F8023BC3F306
:100D4C000803BEE7704700BF704700BF704700BF85
:100D5C0008B50023406AC385FFF7F8FF08BD00BF44
:100D6C00704700BF83680168B3F5805F826A42D028
:100D7C00002B39D04B6803F07F031370826A013269
:100D8C00C38D8262013B9BB2C385002B32D14FF0E5
:100D9C00200C00B5026883B0D16821F02001D1602D
:100DAC00D16821F48071D160516921F00101516148
:100DBC0080F842C04363016B012925D1036302F122
:100DCC000C0353E8003F23F0100302F10C0C4CE829
:100DDC0000310029F3D11368DB061AD4818DFFF79B
:100DEC00BFFF03B05DF804FB0369002BC2D14B6855
:100DFC00DBB2C2E770470369002BF8D14B68C3F331
:100E0C00080322F8023BBBE7FFF79EFF03B05DF837
:100E1C0004FB002301931368019353680193019B16
:100E2C00DCE700BF30B5036804461A6883B012F0E3
:100E3C000F0FDD68596971D1910602D5A90600F131
:100E4C00A480216B01290BD0100602D5290600F1D4
:100E5C00A680520602D5680600F1C08003B030BDF2
:100E6C00D006F1D5E906EFD5002101911968A28DC4
:100E7C00019159680191019959694D0640F13C81E4
:100E8C00E06B0168496889B2002900F06F819142DA
:100E9C0080F06C81E1858169202936D003F10C0248
:100EAC0052E8002F22F4807203F10C0545E8002172
:100EBC000029F3D103F1140252E8002F22F00102B1
:100ECC0003F1140545E800210029F3D103F11402C4
:100EDC0052E8002F22F0400203F1140545E80021EE
:100EEC000029F3D1202284F84220216303F10C0263
:100EFC0052E8002F22F0100203F10C0545E8002106
:100F0C000029F3D100F08CFCA28D02236363E18DE8
:100F1C002046511A89B2FFF723FF9FE711F0010118
:100F2C0040F0CF8015F4907F8BD0D0070BD5E8051F
:100F3C0040F1DE80606C40F00100606450075CD5CD
:100F4C00002940F0C280900766D5100700F1CD80D3
:100F5C00616C002982D0910609D5AA0607D594F8B0
:100F6C004220222A03D12046FFF7FCFE23685A694F
:100F7C00616C02F0400201F0080152EA010555D102
:100F8C002046FFF7E3FE656468E790F84230222BB9
:100F9C007FF464AF03B0BDE83040FFF7E3BE94F8D4
:100FAC004120212A7FF45AAFA168226AB1F5805FF3
:100FBC0000F0E480511C216212785A60E28C013AF4
:100FCC0092B2E284002A7FF449AFDA6822F0800200
:100FDC00DA60DA6842F04002DA603FE72021DA6832
:100FEC00204622F04002DA6084F84110FFF7AAFE96
:100FFC0034E7E8059ED4500767D490070CD5002938
:10100C00A3D0616C41F0040161641107A0D5616C3F
:10101C0041F0080161649BE7100799D505F02000A9
:10102C000843F4D1626C002AA1D117E703F10C023A
:10103C0052E8002F22F4907203F10C0040E80021DA
:10104C000029F3D103F1140252E8002F22F001021F
:10105C0003F1140040E800210029F3D1226B012A8E
:10106C0022D00022202184F8421022635A695506AE
:10107C0034D503F1140252E8002F22F0400203F1A0
:10108C00140040E800210029F3D1E06B30B3414B50
:10109C00436300F0E9FB00283FF4E0AEE06B436BE8
:1010AC0003B0BDE83040184703F10C0252E8002FA2
:1010BC0022F0100203F10C0040E800210029F3D1CA
:1010CC00CFE7D00795D450070CD5616C41F00201E5
:1010DC006164910795D4110799D439E72046FFF73D
:1010EC0035FEBBE691078CD4F5E7A9068FD499E7BA
:1010FC0050073FF528AF80E7E08DE18D80B289B2D3
:10110C0000293FF4ABAE121A91B200293FF4A6AEFF
:10111C0003F10C0252E8002F22F4907203F10C053B
:10112C0045E800200028F3D103F1140252E8002F07
:10113C0022F0010203F1140545E800200028F3D148
:10114C00202284F84220206303F10C0252E8002F85
:10115C0022F0100203F10C0545E800200028F3D121
:10116C00022320466363FFF7FBFD77E691427FF491
:10117C0075AE8369202B7FF471AEF1E721690029EC
:10118C007FF418AF32F8021BC1F3080159602262D8
:10119C0014E700BF5D0D0008002800F0E4812DE984
:1011AC00F04103680446DD0782B035D599494A6899
:1011BC0002F00C02042A00F0ED804A6802F00C02E6
:1011CC00082A00F0E3806368B3F5803F10D0002B51
:1011DC0000F00A81B3F5A02F00F080818D4B1A68C6
:1011EC0022F480321A601A6822F480221A6004E019
:1011FC00884A136843F48033136000F0C1FB854EBA
:10120C00054605E000F0BCFB401B642800F2E880BA
:10121C0033689A03F6D523689F0728D57D4A516811
:10122C0011F00C0F00F09680516801F00C010829A8
:10123C0000F08C802369002B00F016810122764B84
:10124C00744E1A6000F09CFB054605E000F098FB1C
:10125C00401B022800F2C48033689807F6D5336827
:10126C00626923F0F80343EAC203336023681A0768
:10127C0029D45D074BD5674BDA69D00000F1848027
:10128C000125DA6942F08052DA61DB6903F08053A0
:10129C000093009B614E3368D90540F19180E3685F
:1012AC00012B00F0F280002B00F0BE80052B594B77
:1012BC001A6A00F0208122F001021A621A6A22F0E6
:1012CC0004021A62E6E0A369002B4CD00122524BB7
:1012DC00504EC3F8802400F053FB054604E000F0A8
:1012EC004FFB401B02287BD8736A9B07F7D54C4BEE
:1012FC004C4A1B68A2FB03235B0A019300BF019BB2
:10130C005A1E0192002BF9D123685D07B3D4E3690F
:10131C00C3B1404D6A6802F00C02082A00F0CD807F
:10132C000022022B3C4B1A6600F0ED8000F028FBEB
:10133C00044604E000F024FB001B022850D82B6864
:10134C009B01F7D4002002B0BDE8F0815268D603AF
:10135C003FF570AF2F4A1268950725D52269012AEF
:10136C0022D00120EFE72C4A2A4EC2F8803400F03C
:10137C0007FB054604E000F003FB401B02282FD8B6
:10138C00736A9F07F7D4BFE7002583E74A68D00349
:10139C007FF519AF1F4A126891037FF53DAF626864
:1013AC00002A7FF439AFDCE71A4960690A6822F039
:1013BC00F80242EAC0020A601A077FF55AAF82E7C8
:1013CC00336843F48073336000F0DAFA074633680D
:1013DC00DA053FF564AF00F0D3FAC01B6428F6D9E8
:1013EC00032002B0BDE8F0810A4D2B6823F4803352
:1013FC002B602B6823F480232B6000F0C1FA064687
:10140C0004E000F0BDFA801B6428E9D82B689B032C
:10141C00F7D400E700100240000042420070004088
:10142C0008000020D34D6210504E41F28838336AC8
:10143C0023F001033362336A23F00403336200F0B8
:10144C009FFA074604E000F09BFAC01B4045C7D842
:10145C00336A9807F7D4002D3FF459AF434AD36948
:10146C0023F08053D36152E7414A404E136000F0A1
:10147C0087FA054604E000F083FA401B0228AFD837
:10148C0033689907F7D42368F1E6384A136A43F0B6
:10149C000103136200F074FA41F288380646334FA8
:1014AC0004E000F06DFA801B404599D83B6A9B071D
:1014BC00F7D5002D3FF42BAFD0E7012B3FF451AF04
:1014CC006B68226A03F4803191427FF44AAF606A00
:1014DC0003F47013181A18BF012034E703F180438A
:1014EC00A3F53C331A6842F480221A601A6842F45D
:1014FC0080321A6081E642F004021A621A6A42F0E3
:10150C0001021A62C6E700F03BFA064605E000F05D
:10151C0037FA801B02283FF663AF2B689901F6D48B
:10152C00236AB3F5803F05D16A68A16822F40032C2
:10153C000A436A6001200D4D616A6A680B4322F40C
:10154C0074120B4913436B60086600F019FA0446D9
:10155C0005E000F015FA001B02283FF641AF2B689E
:10156C009A01F6D5EEE60120704700BF001002404C
:10157C0000004242002800F0A180564A2DE9F041BB
:10158C001368044603F007038B420D460CD2136814
:10159C0023F007030B431360136803F007038B421C
:1015AC0002D00120BDE8F08123689E0714D55807AE
:1015BC0004D549494A6842F4E0624A60190704D5E7
:1015CC0045494A6842F460524A604349A0684A68F7
:1015DC0022F0F00202434A60DA0720D562683E4BE3
:1015EC00012A1B686CD0022A65D09E07D9D53A4EC9
:1015FC0041F28838736823F003031343736000F0DF
:10160C00BFF9074604E000F0BBF9C01B40455AD8AF
:10161C007368626803F00C03B3EB820FF3D12D4AAD
:10162C00136803F00703AB4209D9136823F00703CF
:10163C002B431360136803F00703AB42B1D123684B
:10164C00580706D52449E0684A6822F4E062024350
:10165C004A60190707D5204A2169536823F460535F
:10166C0043EAC10353601C494A6802F00C03082B7F
:10167C0010D01A4B184A1A4852681A49C2F303126E
:10168C00805C194AC3400868136000F037F90020E9
:10169C00BDE8F0811548C2F38343D203C35C14D573
:1016AC000E484A6800FB03F31149C2F340428A5CBE
:1016BC00B3FBF2F3DEE79F0199D472E70120704788
:1016CC009B0394D46DE703206CE70A4A02FB03F3F7
:1016DC00D0E700BF002002400010024000127A0048
:1016EC00B82E00080400002008000020A02E0008DE
:1016FC009C2E000800093D00044B054A5B68054917
:10170C00C3F30223CB5C1068D84070470010024032
:10171C0008000020B02E0008044B054A5B68054900
:10172C00C3F3C223CB5C1068D84070470010024052
:10173C0008000020B02E00084FF6FF0C06490302EB
:10174C00CA6803F4E06302EA0C02134343F0BF637C
:10175C0043F40033CB60704700ED00E01B4B00B549
:10176C00DB68C3F30223C3F1070EBEF1040F03F1D0
:10177C00040C28BF4FF0040EBCF1060F1CD9A3F1CA
:10178C00030C4FF0FF3303FA0CF322EA03024FF081
:10179C00FF3303FA0EF321EA030303FA0CF31343AA
:1017AC001B010028DBB20ADB00F1604000F5614050
:1017BC0080F800335DF804FB00229446E7E7044A06
:1017CC0000F00F00024413765DF804FB00ED00E01E
:1017DC00FCEC00E0002807DB012300F01F01034AAA
:1017EC0040098B4042F82030704700BF00E100E018
:1017FC000138B0F1807F01D3012070474FF0E02316
:10180C004FF0F00C0022072110B4044C586184F8FE
:10181C0023C010469A6110BC1961704700ED00E0BE
:10182C0090F821200346022A06D004229A63002253
:10183C00012083F8202070474FF0010C1A6800201B
:10184C00116821F00E011160116821F00101116085
:10185C00D3E90F120CFA02F24A60002283F821C07D
:10186C0083F82020704700BF90F821200346022AFD
:10187C0003D0042201209A637047026810B51168E6
:10188C001B4821F00E0111601168824221F0010108
:10189C00116022D017498A421DD014318A421ED0C1
:1018AC0014318A421ED014318A421ED014318A421D
:1018BC0014BF4FF080724FF48012012000210E4CA7
:1018CC0062605A6B83F8210083F820100AB1184625
:1018DC009047002010BD1022EFE70122EDE74FF4F6
:1018EC008072EAE74FF48052E7E74FF48032E4E786
:1018FC00080002401C0002400000024038B54FF4C2
:10190C007A730D4A054611780C4AB3FBF1F3126851
:10191C00B2FBF3F0FFF76CFF08B90F2D01D90120D2
:10192C0038BD0446024629464FF0FF30FFF716FF3C
:10193C00034B20461D6038BD00000020080000202D
:10194C0004000020074A08B51368032043F0100375
:10195C001360FFF7F1FE0F20FFF7D0FF00F04CF8FB
:10196C00002008BD00200240034A044B11681B787C
:10197C000B441360704700BF8C0000200000002057
:10198C00014B1868704700BF8C00002090F83C2079
:10199C00012A27D0034602201A6830B483F83D0090
:1019AC0050680C68104D20F070002043AA429468D7
:1019BC00506009D0B2F1804F06D00C48824203D05F
:1019CC0000F58060824204D1496824F080040C4305
:1019DC0094600022012183F83C2083F83D101046CE
:1019EC0030BC704702207047002C014000040040BE
:1019FC00704700BF704700BF0E4B82B09A690E490A
:101A0C0042F001029A619A6902F001020092009A76
:101A1C00DA6942F08052DA61DB6903F0805301939A
:101A2C00019B4B6823F0E06343F000734B6002B002
:101A3C00704700BF001002400000014000234FF42B
:101A4C00E1310C2210B50948094CC0E90113C0E979
:101A5C000333C0E905230460C361FFF781F800B9C3
:101A6C0010BDBDE8104000F0F9B900BF9000002097
:101A7C0000380140D0B500241E4B026886B09A4253
:101A8C00CDE90244CDE9044401D006B0D0BD03F544
:101A9C0058439A694FF4007642F480429A619A69ED
:101AAC00022702F480420092009A9A6902A942F03D
:101ABC0004029A619B69104803F004030193032309
:101ACC00019A0593CDE90267FEF786FB00234FF4DC
:101ADC00806202A90848CDE902230494FEF77CFB3E
:101AEC00224621462520FFF739FE2520FFF772FEFE
:101AFC0006B0D0BD003801400008014000234FF46F
:101B0C00804210B509480A4C0A49C0E90233C0E9C1
:101B1C000041C0E90423C0E906330362FEF75AFF13
:101B2C0000B910BDBDE8104000F098B9D8000020F5
:101B3C0000540040A08601000023D0B5144A01686F
:101B4C0086B09142CDE90233CDE9043301D006B021
:101B5C00D0BD0322C02612270E4C0F48A36902A940
:101B6C0043F00803A361A369CDE9026703F00803FE
:101B7C000093009B0592FEF72FFBE36943F40013DF
:101B8C00E361E36903F400130193019B06B0D0BD3C
:101B9C000054004000100240000C0140002230B5FF
:101BAC0089B0CDE90422CDE906221D4B1D4D9C695F
:101BBC00284644F010049C619C694FF4005104F0D9
:101BCC0010040094009C9C6944F020049C619C6966
:101BDC0004F020040194019C9C6944F004049C6171
:101BEC009C6904F004040294029C9C6944F008046F
:101BFC009C619B6903F008030393039BFEF7F2FCC3
:101C0C00002002214FF400520123CDE906012846A1
:101C1C0004A9CDE90423FEF7DFFA09B030BD00BFFB
:101C2C0000100240001001400D49034610B50D4A4A
:101C3C000D4C0868121B20B10344934207D80B606B
:101C4C0010BD0A4C2046034493420C60F7D900F0B7
:101C5C007DF90C2203464FF0FF301A6010BD00BF17
:101C6C002C0100200050002000040000D0020020B5
:101C7C00704700BF70B5161E07DD0C468D19AFF30B
:101C8C00008004F8010BA542F9D1304670BD00BFAD
:101C9C0070B5161E07DD0C468D1914F8010B00F0FB
:101CAC00FDF8A542F9D1304670BD00BF4FF0FF30B2
:101CBC00704700BF4FF4005300204B60704700BFCB
:101CCC00012070470020704710B500234FF080446E
:101CDC00462140F2E7321A4886B0CDE90333C0E919
:101CEC000113C0E9032304600293009383610593FD
:101CFC000193FEF785FCB0B94FF48053104802A94C
:101D0C000293FEF717FDC0B90022002369460C4868
:101D1C00CDE90023FFF73AFE60B90948FEF7E0FC75
:101D2C0020B906B010BD00F099F8E5E700F096F880
:101D3C0006B010BD00F092F8EFE700F08FF8E3E783
:101D4C00300100200368B3F1804F00D070470022AF
:101D5C0000B503F50433D96983B041F00101D961B1
:101D6C00DB691C2003F0010301931146019BFFF773
:101D7C00F5FC1C2003B05DF804EBFFF72BBD00BF96
:101D8C00FEE700BFFEE700BFFEE700BFFEE700BFB7
:101D9C00FEE700BF704700BF704700BF704700BF31
:101DAC00FFF7E2BD034A0448136801331360FEF7E2
:101DBC0075BD00BF78010020300100200148FFF7FD
:101DCC0031B800BF90000020014B1868704700BF6D
:101DDC00780100200023012230B5012091B04FF48E
:101DEC0080310224CDE90B33CDE90233CDE9043344
:101DFC00089301930A9209934FF480324FF4E01345
:101E0C00CDE9060106A8CDE90E230D94FFF7C4F920
:101E1C0008B172B6FEE703460F254FF480622146E7
:101E2C0001A802940393059301950492FFF7A2FB7A
:101E3C0008B172B6FEE711B030BD00BF08B5FFF7B0
:101E4C0081FDFFF7C7FFFFF7A9FEFFF757FEFFF76E
:101E5C00F5FDFFF739FF00F05DF8FCE772B6FEE721
:101E6C0010B580B90A4B5A785AB901221C785A70AD
:101E7C000CB1032010BDFFF7E1FD2146054800F031
:101E8C008FF8002010BD044800F024FC022010BD87
:101E9C000C000020F02E0008C82E000800B583B0FE
:101EAC0001904FF0FF33012201A90348FEF7C6FE53
:101EBC00019803B05DF804FB90000020114A1378E0
:101ECC00012B1DD070B44FF0E0234FF0010C002615
:101EDC006FF07F4082F800C01E611A690A4D22F033
:101EEC0004021A612A680949094CA1FB0212520D1D
:101EFC0022601A6970BC42EA0C021A615861704780
:101F0C00704700BF7C0100200800002083DE1B43CB
:101F1C008001002008B50B4800F0DCFBFFF7CEFF7A
:101F2C000020FFF79DFF084DFFF74EFF0446FFF71B
:101F3C004BFF001B6428FAD94FF400512846FEF7DA
:101F4C0055FBF1E7142F000800100140014B1868F5
:101F5C00704700BF1400002070B500260C4D0D4CCE
:101F6C00641BA410A64209D100F086FF00260A4D7E
:101F7C000A4C641BA410A64205D170BD55F8043B55
:101F8C0098470136EEE755F8043B98470136F2E7DF
:101F9C00642F0008642F0008642F0008682F0008C5
:101FAC000FB407B5064904AB086853F8042B8168D5
:101FBC00019300F02FF803B05DF804EB04B0704708
:101FCC0014000020936810B4013B002B936007DAD7
:101FDC009469A34201DB0A2902D110BC00F0BABCFF
:101FEC001368581C10601970084610BC7047F8B57F
:101FFC0006460F461446D518AC4201D1002007E026
:10200C003A46304614F8011BFFF7DCFF431CF3D1B2
:10201C00F8BD00002DE9F04F0D46144698460646D3
:10202C009DB018B1036A0BB900F0F6FB6B6ED907C3
:10203C0005D4AB899A0502D4A86D00F062F9AB897E
:10204C001B0701D52B699BB92946304600F002F9D4
:10205C0070B16B6EDC0704D54FF0FF301DB0BDE8DE
:10206C00F08FAB899805F7D4A86D00F04BF9F3E726
:10207C000023099320238DF8293030234FF00109D8
:10208C00CDF80C80DFF8A8818DF82A3023469A46CB
:10209C0013F8012B0AB1252AF9D1BAEB040B0BD09A
:1020AC005B46224629463046FFF7A1FF013000F07F
:1020BC00A780099A5A4409929AF80030002B00F034
:1020CC009F8000234FF0FF32CDE905230AF1010A6E
:1020DC00049307938DF853301A935446052214F841
:1020EC00011B534800F0FEFA049AD8B9D10644BF3C
:1020FC0020238DF85330130744BF2B238DF8533016
:10210C009AF800302A2B15D0544600204FF00A0CB8
:10211C00079A214611F8013B303B092B4BD9B0B142
:10212C00079214E0A0EB080309FA03F31343A24649
:10213C000493D2E7039B191D1B680391002BBBBFB3
:10214C005B4242F0020207930793B8BF04922378D4
:10215C002E2B0AD163782A2B32D1039B02341A1D01
:10216C001B68039243EAE3730593DFF8C8A00322CC
:10217C005046217800F0B6FA38B14022049BA0EB0F
:10218C000A00824013430134049314F8011B062205
:10219C0029488DF8281000F0A5FA00283FD0274BCD
:1021AC001BBB039B073323F0070308330393099BE3
:1021BC003B4409936AE70C4601200CFB0232A8E76A
:1021CC0000234FF00A0C194601340593204610F8F1
:1021DC00012B303A092A03D9002BC6D00591C4E74C
:1021EC00044601230CFB0121F0E703AB00932A46C4
:1021FC003046134B04A9AFF300800746781CD6D1A8
:10220C006B6ED90705D4AB899A0502D4A86D00F082
:10221C0079F8AB895B063FF51FAF09981EE703AB56
:10222C0000932A463046064B04A900F0DFF8E4E799
:10223C002E2F0008342F0008382F00080000000053
:10224C00FB1F000803460244934200D1704703F879
:10225C00011BF9E738B5294B054618680C4618B12F
:10226C00036A0BB900F0D8FAB4F90C30190722D470
:10227C00DA0607D409222A6043F040034FF0FF30FE
:10228C00A38133E0580712D5616B41B104F14403CB
:10229C00994202D0284600F09BFB00236363A3897C
:1022AC0023F02403A3810023636023692360A389A3
:1022BC0043F00803A38123694BB9A38903F420736A
:1022CC00B3F5007F03D02146284600F000FCB4F99A
:1022DC000C3013F001020AD00022A2606269524253
:1022EC00A261226942B913F08000C5D138BD9907AB
:1022FC0058BF6269A260F4E70020F7E714000020E1
:10230C007047704770472DE9F047164698468A6823
:10231C000B6907469342B8BF1346336091F84320CC
:10232C000C46DDF820900AB101333360236899061E
:10233C0042BF336802333360256815F0060506D1B9
:10234C0004F1190AE36832689B1AAB422BDC94F84F
:10235C0043302268003B18BF0123920630D441461B
:10236C00384604F14302C847013023D02368226960
:10237C0003F00603042B14BF002533684FF000064E
:10238C0008BFE56804F11A0408BFED1A54F8123CB2
:10239C0008BF25EAE5759342C4BF9B1AED18B542F8
:1023AC001AD1002008E00123524641463846C8475E
:1023BC00013003D14FF0FF30BDE8F0870135C1E7A4
:1023CC003020E11881F843005A1C94F8451022443F
:1023DC00023382F84310C2E70123224641463846B5
:1023EC00C8470130E6D00136D9E700002DE9FF4798
:1023FC000F7E9146782F80460C469A460C9E01F132
:10240C00430207D8622F0AD8002F00F0D180582F32
:10241C0000F0B88004F1420684F842703AE0A7F16B
:10242C006303152BF6D801A151F823F09124000871
:10243C00A5240008212400082124000821240008D8
:10244C0021240008A52400082124000821240008C8
:10245C002124000821240008A3250008CF2400080B
:10246C005D2500082124000821240008C52500084A
:10247C0021240008CF24000821240008212400086E
:10248C006525000833681A1D1B68326004F142068A
:10249C0084F8423001239CE033682068191D3160B8
:1024AC00060601D51D6803E04506FBD5B3F90050BF
:1024BC00002D03DA2D236D4284F843300A2358484B
:1024CC0011E021683368080653F8045B02D449060E
:1024DC0048BFADB26F2F336014BF0A230823504896
:1024EC00002184F843106668002EA66005DB216885
:1024FC002E4321F0040121604BD01646B5FBF3F1BD
:10250C0003FB1157C75D06F8017D2F46BB420D46F4
:10251C00F4D9082B0BD12368DF0708D52369616830
:10252C009942DEBF302306F8013C06F1FF36921BC0
:10253C0022614B4621464046CDF800A003AAFFF786
:10254C00E2FE01304AD14FF0FF3004B0BDE8F08715
:10255C00236843F0200323607827324884F84570C1
:10256C00236831681F0651F8045B02D45F0648BF2C
:10257C00ADB23160D90744BF43F0200323601DB1D5
:10258C001023ADE72648E9E7236823F020032360F6
:10259C00F6E71646BDE733682568181D616930609B
:1025AC002E061B6801D5196002E06806FBD5198060
:1025BC00002316462361BCE7336800211A1D3260E4
:1025CC001E686268304600F08DF808B1801B6060B0
:1025DC0063682361002384F84330AAE732464946F6
:1025EC0040462369D0470130ADD023689B0713D4F4
:1025FC00E068039B9842B8BF1846A6E70123324611
:10260C0049464046D04701309DD00135E3680399D7
:10261C005B1AAB42F2DCEBE7002504F11906F5E797
:10262C003F2F0008502F0008036A70B505460E4670
:10263C0084680BB900F0F0F8636EDB0705D4A3894E
:10264C00980502D4A06DFFF75CFEA389190702D58B
:10265C002369002B35D121462846FFF7FBFD80B3BB
:10266C004FF0FF35636EDA0705D4A3899B0502D4BE
:10267C00A06DFFF747FE284670BD002B04DAA26957
:10268C009A4217DC0A2915D023685A1C226019704B
:10269C00A36816F8011F013BA3600029EDD1002BA4
:1026AC0011DA22460A21284600F054F90130D7D01D
:1026BC000A25D7E72246284600F04CF90130E7D12D
:1026CC00CEE7013EE4E723685A1C22600A221A7006
:1026DC00EEE70000024B01461868FFF7A5BF00BFEC
:1026EC0014000020034610B5C9B2024493421846A8
:1026FC0001D1002003E0047801338C42F6D110BDE7
:10270C00002310B50446C0E90033C0E904338360EC
:10271C0081814366C2818361194608225C30FFF7D0
:10272C0091FD0D4B246263620C4BA3620C4BE36274
:10273C000C4B23630C4B9C4206D003F16802944271
:10274C0002D0D0339C4205D104F15800BDE81040B2
:10275C00FFF7D6BD10BD00BF55280008772800082C
:10276C00AF280008D328000888010020024A03493A
:10277C00034800F0D1B800BF64000020552C0008BD
:10278C001800002041680C4B10B59942044601D04A
:10279C0000F05AFAA168094B994202D0204600F089
:1027AC0053FAE168064B994204D02046BDE810402C
:1027BC0000F04ABA10BD00BF88010020F0010020D3
:1027CC005802002010B50B4B0B4C0C4A20461A60DB
:1027DC0004210022FFF794FF04F168000122092173
:1027EC00FFF78EFF04F1D0000222BDE81040122149
:1027FC00FFF786BFC002002088010020792700085F
:10280C000148FFF77EBD00BF850100200148FFF79E
:10281C0079BD00BF8501002010B50446FFF7F0FF1D
:10282C00236A1BB1BDE81040FFF7F0BF044B2362D5
:10283C00044B1B68002BF5D1FFF7C4FFF2E700BF78
:10284C0091270008C002002010B50C46B1F90E10FB
:10285C0000F050F80028ABBF636DA3891B1823F45C
:10286C008053ACBF6365A38110BD2DE9F0411F46B9
:10287C008B890546DB050C46164605D5022300223E
:10288C00B1F90E1000F024F8A389324623F48053DA
:10289C00A38128463B46B4F90E10BDE8F04100F088
:1028AC00DFB810B50C46B1F90E1000F011F8431C4E
:1028BC00A38915BF606523F4805343F48053A3812F
:1028CC0018BFA38110BDB1F90E1000F087BA00003B
:1028DC0038B50446084611460022054D2A601A46B2
:1028EC00FFF7F0F9431C02D12B6803B1236038BD0C
:1028FC00CC02002038B50446084611460022054D8E
:10290C002A601A46FFF7B6F9431C02D12B6803B1B3
:10291C00236038BDCC0200202DE9F84307468846D9
:10292C0014460026D4E90195B9F1010905D52468AE
:10293C00002CF7D13046BDE8F883AB89012B07D9C1
:10294C00B5F90E30013303D029463846C04706434B
:10295C006835E9E7F8B50E461446054618B1036A22
:10296C000BB9FFF759FFA369A360A3891A0701D517
:10297C00236943B921462846FFF76CFC18B14FF088
:10298C00FF373846F8BD23682269F6B2981A636996
:10299C003746834205DC2146284600F055F90028CD
:1029AC00EDD1A368013BA36023685A1C22601E7002
:1029BC006269431C9A4204D0A389DB07E1D50A2E35
:1029CC00DFD12146284600F03FF90028D9D0D6E7C0
:1029DC0038B50546002940D051F8043C0C1F002B9B
:1029EC00B8BFE41800F01CFA1C4A136833B96360D2
:1029FC0014602846BDE8384000F018BAA34208D944
:102A0C00206821188B4201BF19685B680918216086
:102A1C00EDE71A465B680BB1A342FAD9116850185E
:102A2C00A0420BD120680144501883421160E0D1C0
:102A3C0018685B68084410605360DAE702D90C230D
:102A4C002B60D6E7206821188B4201BF19685B68A0
:102A5C000918216063605460CBE738BDC8020020C0
:102A6C0038B50446084611460022054D2A601A4620
:102A7C00FFF70EF9431C02D12B6803B1236038BD5C
:102A8C00CC02002070B50C46B1F90E101546002989
:102A9C001E4696B00CDAA389002113F0800F14BFE8
:102AAC0040234FF48063002031602B6016B070BD62
:102ABC006A4600F0A3F90028EDDB019901F470419E
:102ACC00A1F50053594259414FF48063EBE78B89D0
:102ADC00F7B59D0706460C4607D504F1470323605E
:102AEC0023610123636103B0F0BD6A4601ABFFF7BC
:102AFC00C9FF009F05463946304600F0EFF848B94B
:102B0C00B4F90C309A05EED423F0030343F002031E
:102B1C00A381E2E7A389C4E9040743F08003A381FE
:102B2C00019B20605BB13046B4F90E1000F084F9C3
:102B3C0028B1A38923F0030343F00103A381A389E4
:102B4C001D43A581CFE70000B1F90C20F8B516079D
:102B5C0005460C4654D44B68002B02DC0B6C002B46
:102B6C0048DDE66A002E45D0002312F480522F680F
:102B7C00216A2B6030D0626DA389590705D5636833
:102B8C00D21A636B0BB1236CD21A00232846E66A67
:102B9C00216AB047431CA38906D129681D292BD86B
:102BAC00284ACA40D60727D5002262602269D90478
:102BBC00226004D5421C01D12B6803B96065616B9E
:102BCC002F60B9B104F14403994202D02846FFF7B3
:102BDC00FFFE002363630DE001232846B047024645
:102BEC00501CC9D12B68002BC6D01D2B01D0162B25
:102BFC001DD12F60002021E043F040031BB21AE0EE
:102C0C000F69002FF6D0930718BF00230E6808BF7A
:102C1C004B69F61B0F608B60002EEBDD33463A469A
:102C2C002846216AD4F828C0E047002807DCB4F90C
:102C3C000C3043F040034FF0FF30A381F8BD074444
:102C4C00361AE9E70100402038B50B6905460C46F9
:102C5C0013B90025284638BD18B1036A0BB9FFF724
:102C6C00DBFDB4F90C30002BF3D0626ED00704D42A
:102C7C00990502D4A06DFFF744FB28462146FFF7C7
:102C8C0063FF636E0546DA07E4D4A3899B05E1D4A0
:102C9C00A06DFFF737FBDDE770B50F4E0C463168C2
:102CAC00054611B900F0D8F830602146284600F0EE
:102CBC00D3F8431C03D14FF0FF34204670BDC41C25
:102CCC0024F00304A042F8D0211A284600F0C4F8DE
:102CDC000130F2D1EFE700BFC40200202DE9F84328
:102CEC00CD1C25F0030508350C2D38BF0C25002D07
:102CFC00064601DBA94204D90C2333600020BDE851
:102D0C00F883DFF8D48000F08BF8D8F800301C463C
:102D1C0044BB29463046FFF7BFFF431C044658D13D
:102D2C00D8F800402746002F43D1002C4BD0236805
:102D3C003946304604EB030900F08EF8814542D148
:102D4C00216830466D1A2946FFF7A6FF01303AD0AC
:102D5C0023682B442360D8F800305A6862BBC8F84B
:102D6C0000700FE02268521B20D40B2A17D961196E
:102D7C00A342256018BF5960636808BFC8F80010EB
:102D8C0062514B60304600F051F804F10B00231DEA
:102D9C0020F00700C21A1CBF1B1AA350AFE76268D1
:102DAC00A3420CBFC8F800205A60EBE723466468C6
:102DBC00AEE73C467F68B6E71A465B68A342FBD198
:102DCC0000235360DEE70C233046336000F02EF80E
:102DDC0094E70560D6E700BFC802002038B5002391
:102DEC00054D044608462B60FEF760FF431C02D1DC
:102DFC002B6803B1236038BDCC02002038B500230A
:102E0C00064D0446084611462B60FEF753FF431C43
:102E1C0002D12B6803B1236038BD00BFCC02002067
:102E2C000148FFF76EBA00BF840100200148FFF78C
:102E3C0069BA00BF8401002038B50023054D044653
:102E4C0008462B60FEF73CFF431C02D12B6803B1F4
:102E5C00236038BDCC02002038B50023054D044654
:102E6C0008462B60FEF7E0FE431C02D12B6803B131
:102E7C00236038BDCC020020F8B500BFF8BC08BCFC
:102E8C009E467047F8B500BFF8BC08BC9E4670471C
:102E9C000102000002030405060708090A0B0C0DC9
:102EAC000E0F1010000000000102030400000000CF
:102EBC000000000001020304060708095B455D5B86
:102ECC0075736172745D3A20506C7320636865632E
:102EDC006B2053657269616C206E756D6265722131
:102EEC00000000005B495D5B75736172745D3A2094
:102EFC0053657269616C20256420696E6974206F5A
:102F0C006B6179210A0000005B495D5D5B48575D90
:102F1C0020486172647761726520696E69742E2E27
:102F2C002E00232D302B2000686C4C006566674505
:102F3C004647003031323334353637383941424325
:102F4C0044454600303132333435363738396162D6
:082F5C006364656600000000DB
:042F640075010008EB
:042F68004D0100080F
:102F6C00010000001000000000127A0000000000B8
:102F7C0000380140180000200000000088010020EB
:102F8C00F0010020580200200000000000000000AA
:102F9C000000000000000000000000000000000025
:102FAC000000000000000000000000000000000015
:102FBC000000000000000000000000000000000005
:102FCC000000000000000000030000008801002049
:040000050800019955
:00000001FF
